{
  "abi": [
    {
      "inputs": [
        {
          "internalType": "address",
          "name": "_proxyRegistryAddress",
          "type": "address"
        },
        {
          "internalType": "address",
          "name": "_nftAddress",
          "type": "address"
        },
        {
          "internalType": "address",
          "name": "_lootBoxAddress",
          "type": "address"
        }
      ],
      "stateMutability": "nonpayable",
      "type": "constructor"
    },
    {
      "anonymous": false,
      "inputs": [
        {
          "indexed": true,
          "internalType": "address",
          "name": "previousOwner",
          "type": "address"
        },
        {
          "indexed": true,
          "internalType": "address",
          "name": "newOwner",
          "type": "address"
        }
      ],
      "name": "OwnershipTransferred",
      "type": "event"
    },
    {
      "inputs": [],
      "name": "BASIC_LOOTBOX",
      "outputs": [
        {
          "internalType": "uint256",
          "name": "",
          "type": "uint256"
        }
      ],
      "stateMutability": "view",
      "type": "function"
    },
    {
      "inputs": [],
      "name": "GOLD_LOOTBOX",
      "outputs": [
        {
          "internalType": "uint256",
          "name": "",
          "type": "uint256"
        }
      ],
      "stateMutability": "view",
      "type": "function"
    },
    {
      "inputs": [],
      "name": "NUM_LOOTBOX_OPTIONS",
      "outputs": [
        {
          "internalType": "uint256",
          "name": "",
          "type": "uint256"
        }
      ],
      "stateMutability": "view",
      "type": "function"
    },
    {
      "inputs": [],
      "name": "NUM_OPTIONS",
      "outputs": [
        {
          "internalType": "uint256",
          "name": "",
          "type": "uint256"
        }
      ],
      "stateMutability": "view",
      "type": "function"
    },
    {
      "inputs": [],
      "name": "PREMIUM_LOOTBOX",
      "outputs": [
        {
          "internalType": "uint256",
          "name": "",
          "type": "uint256"
        }
      ],
      "stateMutability": "view",
      "type": "function"
    },
    {
      "inputs": [
        {
          "internalType": "address",
          "name": "_owner",
          "type": "address"
        },
        {
          "internalType": "uint256",
          "name": "_optionId",
          "type": "uint256"
        }
      ],
      "name": "balanceOf",
      "outputs": [
        {
          "internalType": "uint256",
          "name": "",
          "type": "uint256"
        }
      ],
      "stateMutability": "view",
      "type": "function"
    },
    {
      "inputs": [
        {
          "internalType": "uint256",
          "name": "_optionId",
          "type": "uint256"
        },
        {
          "internalType": "uint256",
          "name": "_amount",
          "type": "uint256"
        }
      ],
      "name": "canMint",
      "outputs": [
        {
          "internalType": "bool",
          "name": "",
          "type": "bool"
        }
      ],
      "stateMutability": "view",
      "type": "function"
    },
    {
      "inputs": [],
      "name": "factorySchemaName",
      "outputs": [
        {
          "internalType": "string",
          "name": "",
          "type": "string"
        }
      ],
      "stateMutability": "pure",
      "type": "function"
    },
    {
      "inputs": [],
      "name": "lootBoxAddress",
      "outputs": [
        {
          "internalType": "address",
          "name": "",
          "type": "address"
        }
      ],
      "stateMutability": "view",
      "type": "function"
    },
    {
      "inputs": [
        {
          "internalType": "uint256",
          "name": "_optionId",
          "type": "uint256"
        },
        {
          "internalType": "address",
          "name": "_toAddress",
          "type": "address"
        },
        {
          "internalType": "uint256",
          "name": "_amount",
          "type": "uint256"
        },
        {
          "internalType": "bytes",
          "name": "_data",
          "type": "bytes"
        }
      ],
      "name": "mint",
      "outputs": [],
      "stateMutability": "nonpayable",
      "type": "function"
    },
    {
      "inputs": [],
      "name": "name",
      "outputs": [
        {
          "internalType": "string",
          "name": "",
          "type": "string"
        }
      ],
      "stateMutability": "pure",
      "type": "function"
    },
    {
      "inputs": [],
      "name": "nftAddress",
      "outputs": [
        {
          "internalType": "address",
          "name": "",
          "type": "address"
        }
      ],
      "stateMutability": "view",
      "type": "function"
    },
    {
      "inputs": [],
      "name": "numOptions",
      "outputs": [
        {
          "internalType": "uint256",
          "name": "",
          "type": "uint256"
        }
      ],
      "stateMutability": "pure",
      "type": "function"
    },
    {
      "inputs": [],
      "name": "owner",
      "outputs": [
        {
          "internalType": "address",
          "name": "",
          "type": "address"
        }
      ],
      "stateMutability": "view",
      "type": "function"
    },
    {
      "inputs": [],
      "name": "proxyRegistryAddress",
      "outputs": [
        {
          "internalType": "address",
          "name": "",
          "type": "address"
        }
      ],
      "stateMutability": "view",
      "type": "function"
    },
    {
      "inputs": [],
      "name": "renounceOwnership",
      "outputs": [],
      "stateMutability": "nonpayable",
      "type": "function"
    },
    {
      "inputs": [],
      "name": "supportsFactoryInterface",
      "outputs": [
        {
          "internalType": "bool",
          "name": "",
          "type": "bool"
        }
      ],
      "stateMutability": "pure",
      "type": "function"
    },
    {
      "inputs": [],
      "name": "symbol",
      "outputs": [
        {
          "internalType": "string",
          "name": "",
          "type": "string"
        }
      ],
      "stateMutability": "pure",
      "type": "function"
    },
    {
      "inputs": [
        {
          "internalType": "address",
          "name": "newOwner",
          "type": "address"
        }
      ],
      "name": "transferOwnership",
      "outputs": [],
      "stateMutability": "nonpayable",
      "type": "function"
    },
    {
      "inputs": [
        {
          "internalType": "uint256",
          "name": "_optionId",
          "type": "uint256"
        }
      ],
      "name": "uri",
      "outputs": [
        {
          "internalType": "string",
          "name": "",
          "type": "string"
        }
      ],
      "stateMutability": "pure",
      "type": "function"
    }
  ],
  "bytecode": {
    "object": "0x608060405234801561001057600080fd5b506040516200123a3803806200123a833981016040819052610031916100ec565b61003a33610080565b60018055600280546001600160a01b039485166001600160a01b03199182161790915560038054938516938216939093179092556004805491909316911617905561012f565b600080546001600160a01b038381166001600160a01b0319831681178455604051919092169283917f8be0079c531659141344cd1fd0a4f28419497f9722a3daafe3b4186f6b6457e09190a35050565b80516001600160a01b03811681146100e757600080fd5b919050565b60008060006060848603121561010157600080fd5b61010a846100d0565b9250610118602085016100d0565b9150610126604085016100d0565b90509250925092565b6110fb806200013f6000396000f3fe608060405234801561001057600080fd5b506004361061012b5760003560e01c80638531b06b116100ad578063c311c52311610071578063c311c52314610266578063c77b66c21461026d578063cd7c032614610280578063f21af56d14610293578063f2fde38b1461029b57600080fd5b80638531b06b146102115780638da5cb5b1461022457806395d89b4114610235578063a01d9ee414610256578063c0cdf20f1461025e57600080fd5b806345df5787116100f457806345df5787146101a95780634b97aed9146101cc57806350c9b436146101d45780635bf8633a146101dc578063715018a61461020757600080fd5b8062fdd58e1461013057806306fdde03146101565780630e89341c1461016b57806322e1dea91461017e5780633db62e2c146101a1575b600080fd5b61014361013e366004610cef565b6102ae565b6040519081526020015b60405180910390f35b61015e61043e565b60405161014d9190610d6b565b61015e610179366004610d7e565b61045e565b61019161018c366004610d97565b6104a9565b604051901515815260200161014d565b6101436104bd565b6040805180820190915260078152664552433131353560c81b602082015261015e565b6101436104cc565b6101436104df565b6003546101ef906001600160a01b031681565b6040516001600160a01b03909116815260200161014d565b61020f6104eb565b005b6004546101ef906001600160a01b031681565b6000546001600160a01b03166101ef565b60408051808201909152600581526404f534341560dc1b602082015261015e565b610143600381565b610143610556565b6001610191565b61020f61027b366004610db9565b610562565b6002546101ef906001600160a01b031681565b610143610609565b61020f6102a9366004610e4f565b610615565b60006006821015610388576102c2836106e0565b1580156102dd57506004546001600160a01b03848116911614155b156102ea57506000610438565b6003546001600160a01b031660008162fdd58e61030f6000546001600160a01b031690565b6040516001600160e01b031960e084901b1681526001600160a01b03909116600482015260248101879052604401602060405180830381865afa15801561035a573d6000803e3d6000fd5b505050506040513d601f19601f8201168201806040525081019061037e9190610e6c565b9250610438915050565b610391836106e0565b61039d57506000610438565b60006103aa600684610e9b565b6004805460405163bd85b03960e01b81529293506001600160a01b031691600091839163bd85b039916103e39187910190815260200190565b602060405180830381865afa158015610400573d6000803e3d6000fd5b505050506040513d601f19601f820116820180604052508101906104249190610e6c565b9050610432600019826107ba565b93505050505b92915050565b606060405180606001604052806023815260200161107e60239139905090565b60606040518060600160405280602581526020016110a160259139610482836107c6565b604051602001610493929190610eae565b6040516020818303038152906040529050919050565b60006104b63384846108cf565b9392505050565b6104c960036006610ef1565b81565b60006104da60066003610ef1565b905090565b6104c960066002610ef1565b6000546001600160a01b0316331461054a5760405162461bcd60e51b815260206004820181905260248201527f4f776e61626c653a2063616c6c6572206973206e6f7420746865206f776e657260448201526064015b60405180910390fd5b61055460006108f0565b565b6104c960066000610ef1565b6002600154036105b45760405162461bcd60e51b815260206004820152601f60248201527f5265656e7472616e637947756172643a207265656e7472616e742063616c6c006044820152606401610541565b60026001819055506105fe85858585858080601f01602080910402602001604051908101604052809392919081815260200183838082843760009201919091525061094092505050565b505060018055505050565b6104c960066001610ef1565b6000546001600160a01b0316331461066f5760405162461bcd60e51b815260206004820181905260248201527f4f776e61626c653a2063616c6c6572206973206e6f7420746865206f776e65726044820152606401610541565b6001600160a01b0381166106d45760405162461bcd60e51b815260206004820152602660248201527f4f776e61626c653a206e6577206f776e657220697320746865207a65726f206160448201526564647265737360d01b6064820152608401610541565b6106dd816108f0565b50565b6002546000906001600160a01b039081169083166107066000546001600160a01b031690565b6001600160a01b031614806104b65750826001600160a01b0316816001600160a01b031663c45527916107416000546001600160a01b031690565b6040516001600160e01b031960e084901b1681526001600160a01b039091166004820152602401602060405180830381865afa158015610785573d6000803e3d6000fd5b505050506040513d601f19601f820116820180604052508101906107a99190610f04565b6001600160a01b0316149392505050565b60006104b68284610e9b565b6060816000036107ed5750506040805180820190915260018152600360fc1b602082015290565b8160005b8115610817578061080181610f21565b91506108109050600a83610f50565b91506107f1565b60008167ffffffffffffffff81111561083257610832610f64565b6040519080825280601f01601f19166020018201604052801561085c576020820181803683370190505b5090505b84156108c757610871600183610e9b565b915061087e600a86610f7a565b610889906030610ef1565b60f81b81838151811061089e5761089e610f8e565b60200101906001600160f81b031916908160001a9053506108c0600a86610f50565b9450610860565b949350505050565b600080821180156108c75750816108e685856102ae565b1015949350505050565b600080546001600160a01b038381166001600160a01b0319831681178455604051919092169283917f8be0079c531659141344cd1fd0a4f28419497f9722a3daafe3b4186f6b6457e09190a35050565b61094b3385846108cf565b6109b05760405162461bcd60e51b815260206004820152603060248201527f43726561747572654163636573736f7279466163746f7279235f6d696e743a2060448201526f43414e4e4f545f4d494e545f4d4f524560801b6064820152608401610541565b6006841015610aac576109c2336106e0565b806109e057506004546001600160a01b0316336001600160a01b0316145b610a2c5760405162461bcd60e51b815260206004820152601e60248201527f43616c6c65722063616e6e6f74206d696e74206163636573736f7269657300006044820152606401610541565b6003546001600160a01b03168063f242432a610a506000546001600160a01b031690565b868887876040518663ffffffff1660e01b8152600401610a74959493929190610fa4565b600060405180830381600087803b158015610a8e57600080fd5b505af1158015610aa2573d6000803e3d6000fd5b5050505050610b7d565b610ab860036006610ef1565b841015610b4357610ac8336106e0565b610b145760405162461bcd60e51b815260206004820152601860248201527f43616c6c65722063616e6e6f74206d696e7420626f78657300000000000000006044820152606401610541565b6000610b21600686610e9b565b600454909150610b3d906001600160a01b031685838686610b83565b50610b7d565b60405162461bcd60e51b815260206004820152600f60248201526e2ab735b737bbb7102fb7b83a34b7b760891b6044820152606401610541565b50505050565b604051634f558e7960e01b81526004810184905285906001600160a01b03821690634f558e7990602401602060405180830381865afa158015610bca573d6000803e3d6000fd5b505050506040513d601f19601f82011682018060405250810190610bee9190610fe9565b610c6d576040516336a100d560e01b81526001600160a01b038216906336a100d590610c2490889088908890889060040161100b565b6020604051808303816000875af1158015610c43573d6000803e3d6000fd5b505050506040513d601f19601f82011682018060405250810190610c679190610e6c565b50610cd2565b60405163731133e960e01b81526001600160a01b0382169063731133e990610c9f908890889088908890600401611050565b600060405180830381600087803b158015610cb957600080fd5b505af1158015610ccd573d6000803e3d6000fd5b505050505b505050505050565b6001600160a01b03811681146106dd57600080fd5b60008060408385031215610d0257600080fd5b8235610d0d81610cda565b946020939093013593505050565b60005b83811015610d36578181015183820152602001610d1e565b50506000910152565b60008151808452610d57816020860160208601610d1b565b601f01601f19169290920160200192915050565b6020815260006104b66020830184610d3f565b600060208284031215610d9057600080fd5b5035919050565b60008060408385031215610daa57600080fd5b50508035926020909101359150565b600080600080600060808688031215610dd157600080fd5b853594506020860135610de381610cda565b935060408601359250606086013567ffffffffffffffff80821115610e0757600080fd5b818801915088601f830112610e1b57600080fd5b813581811115610e2a57600080fd5b896020828501011115610e3c57600080fd5b9699959850939650602001949392505050565b600060208284031215610e6157600080fd5b81356104b681610cda565b600060208284031215610e7e57600080fd5b5051919050565b634e487b7160e01b600052601160045260246000fd5b8181038181111561043857610438610e85565b60008351610ec0818460208801610d1b565b67666163746f72792f60c01b9083019081528351610ee5816008840160208801610d1b565b01600801949350505050565b8082018082111561043857610438610e85565b600060208284031215610f1657600080fd5b81516104b681610cda565b600060018201610f3357610f33610e85565b5060010190565b634e487b7160e01b600052601260045260246000fd5b600082610f5f57610f5f610f3a565b500490565b634e487b7160e01b600052604160045260246000fd5b600082610f8957610f89610f3a565b500690565b634e487b7160e01b600052603260045260246000fd5b6001600160a01b03868116825285166020820152604081018490526060810183905260a060808201819052600090610fde90830184610d3f565b979650505050505050565b600060208284031215610ffb57600080fd5b815180151581146104b657600080fd5b60018060a01b038516815283602082015282604082015260a06060820152600060a082015260c06080820152600061104660c0830184610d3f565b9695505050505050565b60018060a01b03851681528360208201528260408201526080606082015260006110466080830184610d3f56fe4f70656e536561204372656174757265204163636573736f7279205072652d53616c6568747470733a2f2f6372656174757265732d6170692e6f70656e7365612e696f2f6170692fa2646970667358221220985cc2a0d449e5b5a03597885c8a06d6fc0ec1daf3c4eefee6651121808a9fc264736f6c63430008140033",
    "linkReferences": {}
  },
  "methodIdentifiers": {
    "BASIC_LOOTBOX()": "c0cdf20f",
    "GOLD_LOOTBOX()": "50c9b436",
    "NUM_LOOTBOX_OPTIONS()": "a01d9ee4",
    "NUM_OPTIONS()": "3db62e2c",
    "PREMIUM_LOOTBOX()": "f21af56d",
    "balanceOf(address,uint256)": "00fdd58e",
    "canMint(uint256,uint256)": "22e1dea9",
    "factorySchemaName()": "45df5787",
    "lootBoxAddress()": "8531b06b",
    "mint(uint256,address,uint256,bytes)": "c77b66c2",
    "name()": "06fdde03",
    "nftAddress()": "5bf8633a",
    "numOptions()": "4b97aed9",
    "owner()": "8da5cb5b",
    "proxyRegistryAddress()": "cd7c0326",
    "renounceOwnership()": "715018a6",
    "supportsFactoryInterface()": "c311c523",
    "symbol()": "95d89b41",
    "transferOwnership(address)": "f2fde38b",
    "uri(uint256)": "0e89341c"
  },
  "id": 2
}