{
  "abi": [
    {
      "inputs": [],
      "name": "ERC712_VERSION",
      "outputs": [
        {
          "internalType": "string",
          "name": "",
          "type": "string"
        }
      ],
      "stateMutability": "view",
      "type": "function"
    },
    {
      "inputs": [],
      "name": "getChainId",
      "outputs": [
        {
          "internalType": "uint256",
          "name": "",
          "type": "uint256"
        }
      ],
      "stateMutability": "view",
      "type": "function"
    },
    {
      "inputs": [],
      "name": "getDomainSeperator",
      "outputs": [
        {
          "internalType": "bytes32",
          "name": "",
          "type": "bytes32"
        }
      ],
      "stateMutability": "view",
      "type": "function"
    }
  ],
  "bytecode": {
    "object": "0x60806040526000805460ff1916905534801561001a57600080fd5b5061010c8061002a6000396000f3fe6080604052348015600f57600080fd5b5060043610603c5760003560e01c80630f7e597014604157806320379ee51460745780633408e470146085575b600080fd5b6060604051806040016040528060018152602001603160f81b81525081565b604051606b9190608a565b60405180910390f35b6001545b604051908152602001606b565b466078565b600060208083528351808285015260005b8181101560b557858101830151858201604001528201609b565b506000604082860101526040601f19601f830116850101925050509291505056fea2646970667358221220e786e3525cc4df01df3066743115079fc70a3e9af81ee43772cbdd5fd3d1785064736f6c63430008140033",
    "linkReferences": {}
  },
  "methodIdentifiers": {
    "ERC712_VERSION()": "0f7e5970",
    "getChainId()": "3408e470",
    "getDomainSeperator()": "20379ee5"
  },
  "id": 13
}