{
  "abi": [
    {
      "inputs": [
        {
          "internalType": "address",
          "name": "_proxyRegistryAddress",
          "type": "address"
        }
      ],
      "stateMutability": "nonpayable",
      "type": "constructor"
    },
    {
      "anonymous": false,
      "inputs": [
        {
          "indexed": true,
          "internalType": "address",
          "name": "owner",
          "type": "address"
        },
        {
          "indexed": true,
          "internalType": "address",
          "name": "approved",
          "type": "address"
        },
        {
          "indexed": true,
          "internalType": "uint256",
          "name": "tokenId",
          "type": "uint256"
        }
      ],
      "name": "Approval",
      "type": "event"
    },
    {
      "anonymous": false,
      "inputs": [
        {
          "indexed": true,
          "internalType": "address",
          "name": "owner",
          "type": "address"
        },
        {
          "indexed": true,
          "internalType": "address",
          "name": "operator",
          "type": "address"
        },
        {
          "indexed": false,
          "internalType": "bool",
          "name": "approved",
          "type": "bool"
        }
      ],
      "name": "ApprovalForAll",
      "type": "event"
    },
    {
      "anonymous": false,
      "inputs": [
        {
          "indexed": false,
          "internalType": "address",
          "name": "userAddress",
          "type": "address"
        },
        {
          "indexed": false,
          "internalType": "address payable",
          "name": "relayerAddress",
          "type": "address"
        },
        {
          "indexed": false,
          "internalType": "bytes",
          "name": "functionSignature",
          "type": "bytes"
        }
      ],
      "name": "MetaTransactionExecuted",
      "type": "event"
    },
    {
      "anonymous": false,
      "inputs": [
        {
          "indexed": true,
          "internalType": "address",
          "name": "previousOwner",
          "type": "address"
        },
        {
          "indexed": true,
          "internalType": "address",
          "name": "newOwner",
          "type": "address"
        }
      ],
      "name": "OwnershipTransferred",
      "type": "event"
    },
    {
      "anonymous": false,
      "inputs": [
        {
          "indexed": true,
          "internalType": "address",
          "name": "from",
          "type": "address"
        },
        {
          "indexed": true,
          "internalType": "address",
          "name": "to",
          "type": "address"
        },
        {
          "indexed": true,
          "internalType": "uint256",
          "name": "tokenId",
          "type": "uint256"
        }
      ],
      "name": "Transfer",
      "type": "event"
    },
    {
      "inputs": [],
      "name": "ERC712_VERSION",
      "outputs": [
        {
          "internalType": "string",
          "name": "",
          "type": "string"
        }
      ],
      "stateMutability": "view",
      "type": "function"
    },
    {
      "inputs": [
        {
          "internalType": "address",
          "name": "to",
          "type": "address"
        },
        {
          "internalType": "uint256",
          "name": "tokenId",
          "type": "uint256"
        }
      ],
      "name": "approve",
      "outputs": [],
      "stateMutability": "nonpayable",
      "type": "function"
    },
    {
      "inputs": [
        {
          "internalType": "address",
          "name": "owner",
          "type": "address"
        }
      ],
      "name": "balanceOf",
      "outputs": [
        {
          "internalType": "uint256",
          "name": "",
          "type": "uint256"
        }
      ],
      "stateMutability": "view",
      "type": "function"
    },
    {
      "inputs": [],
      "name": "baseTokenURI",
      "outputs": [
        {
          "internalType": "string",
          "name": "",
          "type": "string"
        }
      ],
      "stateMutability": "pure",
      "type": "function"
    },
    {
      "inputs": [
        {
          "internalType": "address",
          "name": "userAddress",
          "type": "address"
        },
        {
          "internalType": "bytes",
          "name": "functionSignature",
          "type": "bytes"
        },
        {
          "internalType": "bytes32",
          "name": "sigR",
          "type": "bytes32"
        },
        {
          "internalType": "bytes32",
          "name": "sigS",
          "type": "bytes32"
        },
        {
          "internalType": "uint8",
          "name": "sigV",
          "type": "uint8"
        }
      ],
      "name": "executeMetaTransaction",
      "outputs": [
        {
          "internalType": "bytes",
          "name": "",
          "type": "bytes"
        }
      ],
      "stateMutability": "payable",
      "type": "function"
    },
    {
      "inputs": [
        {
          "internalType": "uint256",
          "name": "tokenId",
          "type": "uint256"
        }
      ],
      "name": "getApproved",
      "outputs": [
        {
          "internalType": "address",
          "name": "",
          "type": "address"
        }
      ],
      "stateMutability": "view",
      "type": "function"
    },
    {
      "inputs": [],
      "name": "getChainId",
      "outputs": [
        {
          "internalType": "uint256",
          "name": "",
          "type": "uint256"
        }
      ],
      "stateMutability": "view",
      "type": "function"
    },
    {
      "inputs": [],
      "name": "getDomainSeperator",
      "outputs": [
        {
          "internalType": "bytes32",
          "name": "",
          "type": "bytes32"
        }
      ],
      "stateMutability": "view",
      "type": "function"
    },
    {
      "inputs": [
        {
          "internalType": "address",
          "name": "user",
          "type": "address"
        }
      ],
      "name": "getNonce",
      "outputs": [
        {
          "internalType": "uint256",
          "name": "nonce",
          "type": "uint256"
        }
      ],
      "stateMutability": "view",
      "type": "function"
    },
    {
      "inputs": [
        {
          "internalType": "address",
          "name": "owner",
          "type": "address"
        },
        {
          "internalType": "address",
          "name": "operator",
          "type": "address"
        }
      ],
      "name": "isApprovedForAll",
      "outputs": [
        {
          "internalType": "bool",
          "name": "",
          "type": "bool"
        }
      ],
      "stateMutability": "view",
      "type": "function"
    },
    {
      "inputs": [
        {
          "internalType": "address",
          "name": "_to",
          "type": "address"
        }
      ],
      "name": "mintTo",
      "outputs": [],
      "stateMutability": "nonpayable",
      "type": "function"
    },
    {
      "inputs": [],
      "name": "name",
      "outputs": [
        {
          "internalType": "string",
          "name": "",
          "type": "string"
        }
      ],
      "stateMutability": "view",
      "type": "function"
    },
    {
      "inputs": [],
      "name": "owner",
      "outputs": [
        {
          "internalType": "address",
          "name": "",
          "type": "address"
        }
      ],
      "stateMutability": "view",
      "type": "function"
    },
    {
      "inputs": [
        {
          "internalType": "uint256",
          "name": "tokenId",
          "type": "uint256"
        }
      ],
      "name": "ownerOf",
      "outputs": [
        {
          "internalType": "address",
          "name": "",
          "type": "address"
        }
      ],
      "stateMutability": "view",
      "type": "function"
    },
    {
      "inputs": [],
      "name": "renounceOwnership",
      "outputs": [],
      "stateMutability": "nonpayable",
      "type": "function"
    },
    {
      "inputs": [
        {
          "internalType": "address",
          "name": "from",
          "type": "address"
        },
        {
          "internalType": "address",
          "name": "to",
          "type": "address"
        },
        {
          "internalType": "uint256",
          "name": "tokenId",
          "type": "uint256"
        }
      ],
      "name": "safeTransferFrom",
      "outputs": [],
      "stateMutability": "nonpayable",
      "type": "function"
    },
    {
      "inputs": [
        {
          "internalType": "address",
          "name": "from",
          "type": "address"
        },
        {
          "internalType": "address",
          "name": "to",
          "type": "address"
        },
        {
          "internalType": "uint256",
          "name": "tokenId",
          "type": "uint256"
        },
        {
          "internalType": "bytes",
          "name": "_data",
          "type": "bytes"
        }
      ],
      "name": "safeTransferFrom",
      "outputs": [],
      "stateMutability": "nonpayable",
      "type": "function"
    },
    {
      "inputs": [
        {
          "internalType": "address",
          "name": "operator",
          "type": "address"
        },
        {
          "internalType": "bool",
          "name": "approved",
          "type": "bool"
        }
      ],
      "name": "setApprovalForAll",
      "outputs": [],
      "stateMutability": "nonpayable",
      "type": "function"
    },
    {
      "inputs": [
        {
          "internalType": "bytes4",
          "name": "interfaceId",
          "type": "bytes4"
        }
      ],
      "name": "supportsInterface",
      "outputs": [
        {
          "internalType": "bool",
          "name": "",
          "type": "bool"
        }
      ],
      "stateMutability": "view",
      "type": "function"
    },
    {
      "inputs": [],
      "name": "symbol",
      "outputs": [
        {
          "internalType": "string",
          "name": "",
          "type": "string"
        }
      ],
      "stateMutability": "view",
      "type": "function"
    },
    {
      "inputs": [
        {
          "internalType": "uint256",
          "name": "_tokenId",
          "type": "uint256"
        }
      ],
      "name": "tokenURI",
      "outputs": [
        {
          "internalType": "string",
          "name": "",
          "type": "string"
        }
      ],
      "stateMutability": "pure",
      "type": "function"
    },
    {
      "inputs": [],
      "name": "totalSupply",
      "outputs": [
        {
          "internalType": "uint256",
          "name": "",
          "type": "uint256"
        }
      ],
      "stateMutability": "view",
      "type": "function"
    },
    {
      "inputs": [
        {
          "internalType": "address",
          "name": "from",
          "type": "address"
        },
        {
          "internalType": "address",
          "name": "to",
          "type": "address"
        },
        {
          "internalType": "uint256",
          "name": "tokenId",
          "type": "uint256"
        }
      ],
      "name": "transferFrom",
      "outputs": [],
      "stateMutability": "nonpayable",
      "type": "function"
    },
    {
      "inputs": [
        {
          "internalType": "address",
          "name": "newOwner",
          "type": "address"
        }
      ],
      "name": "transferOwnership",
      "outputs": [],
      "stateMutability": "nonpayable",
      "type": "function"
    }
  ],
  "bytecode": {
    "object": "0x60806040526006805460ff191690553480156200001b57600080fd5b50604051620022ce380380620022ce8339810160408190526200003e91620002c1565b60405180604001604052806008815260200167437265617475726560c01b815250604051806040016040528060038152602001624f534360e81b81525082828281600090816200008f919062000398565b5060016200009e828262000398565b505050620000bb620000b5620000fa60201b60201c565b6200010b565b600b80546001600160a01b0319166001600160a01b038316179055620000e5600a80546001019055565b620000f0836200015d565b5050505062000464565b600062000106620001c1565b905090565b600980546001600160a01b038381166001600160a01b0319831681179093556040519116919082907f8be0079c531659141344cd1fd0a4f28419497f9722a3daafe3b4186f6b6457e090600090a35050565b60065460ff1615620001a65760405162461bcd60e51b815260206004820152600e60248201526d185b1c9958591e481a5b9a5d195960921b604482015260640160405180910390fd5b620001b1816200021f565b506006805460ff19166001179055565b60003033036200021957600080368080601f0160208091040260200160405190810160405280939291908181526020018383808284376000920191909152505050503601516001600160a01b031691506200021c9050565b50335b90565b6040518060800160405280604f81526020016200227f604f9139805160209182012082519282019290922060408051808201825260018152603160f81b90840152805180840194909452838101919091527fc89efdaa54c0f20c7adf612882df0950f5a951637e0307cdcb4c672f298b8bc660608401523060808401524660a0808501919091528151808503909101815260c090930190528151910120600755565b600060208284031215620002d457600080fd5b81516001600160a01b0381168114620002ec57600080fd5b9392505050565b634e487b7160e01b600052604160045260246000fd5b600181811c908216806200031e57607f821691505b6020821081036200033f57634e487b7160e01b600052602260045260246000fd5b50919050565b601f8211156200039357600081815260208120601f850160051c810160208610156200036e5750805b601f850160051c820191505b818110156200038f578281556001016200037a565b5050505b505050565b81516001600160401b03811115620003b457620003b4620002f3565b620003cc81620003c5845462000309565b8462000345565b602080601f831160018114620004045760008415620003eb5750858301515b600019600386901b1c1916600185901b1785556200038f565b600085815260208120601f198616915b82811015620004355788860151825594840194600190910190840162000414565b5085821015620004545787850151600019600388901b60f8161c191681555b5050505050600190811b01905550565b611e0b80620004746000396000f3fe60806040526004361061014b5760003560e01c80636352211e116100b6578063a22cb4651161006f578063a22cb465146103aa578063b88d4fde146103ca578063c87b56dd146103ea578063d547cfb71461040a578063e985e9c51461041f578063f2fde38b1461043f57600080fd5b80636352211e1461030257806370a0823114610322578063715018a614610342578063755edd17146103575780638da5cb5b1461037757806395d89b411461039557600080fd5b806318160ddd1161010857806318160ddd1461024157806320379ee51461026457806323b872dd146102795780632d0335ab146102995780633408e470146102cf57806342842e0e146102e257600080fd5b806301ffc9a71461015057806306fdde0314610185578063081812fc146101a7578063095ea7b3146101df5780630c53c51c146102015780630f7e597014610214575b600080fd5b34801561015c57600080fd5b5061017061016b36600461174a565b61045f565b60405190151581526020015b60405180910390f35b34801561019157600080fd5b5061019a6104b1565b60405161017c91906117b7565b3480156101b357600080fd5b506101c76101c23660046117ca565b610543565b6040516001600160a01b03909116815260200161017c565b3480156101eb57600080fd5b506101ff6101fa3660046117f8565b6105dd565b005b61019a61020f3660046118c7565b610704565b34801561022057600080fd5b5061019a604051806040016040528060018152602001603160f81b81525081565b34801561024d57600080fd5b506102566108ee565b60405190815260200161017c565b34801561027057600080fd5b50600754610256565b34801561028557600080fd5b506101ff610294366004611945565b61090a565b3480156102a557600080fd5b506102566102b4366004611986565b6001600160a01b031660009081526008602052604090205490565b3480156102db57600080fd5b5046610256565b3480156102ee57600080fd5b506101ff6102fd366004611945565b610942565b34801561030e57600080fd5b506101c761031d3660046117ca565b61095d565b34801561032e57600080fd5b5061025661033d366004611986565b6109d4565b34801561034e57600080fd5b506101ff610a5b565b34801561036357600080fd5b506101ff610372366004611986565b610ab0565b34801561038357600080fd5b506009546001600160a01b03166101c7565b3480156103a157600080fd5b5061019a610b22565b3480156103b657600080fd5b506101ff6103c53660046119a3565b610b31565b3480156103d657600080fd5b506101ff6103e53660046119e1565b610b43565b3480156103f657600080fd5b5061019a6104053660046117ca565b610b82565b34801561041657600080fd5b5061019a610bbc565b34801561042b57600080fd5b5061017061043a366004611a4d565b610bdc565b34801561044b57600080fd5b506101ff61045a366004611986565b610c9c565b60006001600160e01b031982166380ac58cd60e01b148061049057506001600160e01b03198216635b5e139f60e01b145b806104ab57506301ffc9a760e01b6001600160e01b03198316145b92915050565b6060600080546104c090611a7b565b80601f01602080910402602001604051908101604052809291908181526020018280546104ec90611a7b565b80156105395780601f1061050e57610100808354040283529160200191610539565b820191906000526020600020905b81548152906001019060200180831161051c57829003601f168201915b5050505050905090565b6000818152600260205260408120546001600160a01b03166105c15760405162461bcd60e51b815260206004820152602c60248201527f4552433732313a20617070726f76656420717565727920666f72206e6f6e657860448201526b34b9ba32b73a103a37b5b2b760a11b60648201526084015b60405180910390fd5b506000908152600460205260409020546001600160a01b031690565b60006105e88261095d565b9050806001600160a01b0316836001600160a01b0316036106555760405162461bcd60e51b815260206004820152602160248201527f4552433732313a20617070726f76616c20746f2063757272656e74206f776e656044820152603960f91b60648201526084016105b8565b806001600160a01b0316610667610d56565b6001600160a01b0316148061068357506106838161043a610d56565b6106f55760405162461bcd60e51b815260206004820152603860248201527f4552433732313a20617070726f76652063616c6c6572206973206e6f74206f7760448201527f6e6572206e6f7220617070726f76656420666f7220616c6c000000000000000060648201526084016105b8565b6106ff8383610d60565b505050565b60408051606081810183526001600160a01b038816600081815260086020908152908590205484528301529181018690526107428782878787610dce565b6107985760405162461bcd60e51b815260206004820152602160248201527f5369676e657220616e64207369676e617475726520646f206e6f74206d6174636044820152600d60fb1b60648201526084016105b8565b6001600160a01b0387166000908152600860205260409020546107bc906001610ebe565b6001600160a01b0388166000908152600860205260409081902091909155517f5845892132946850460bff5a0083f71031bc5bf9aadcd40f1de79423eac9b10b9061080c90899033908a90611ab5565b60405180910390a1600080306001600160a01b0316888a604051602001610834929190611aea565b60408051601f198184030181529082905261084e91611b21565b6000604051808303816000865af19150503d806000811461088b576040519150601f19603f3d011682016040523d82523d6000602084013e610890565b606091505b5091509150816108e25760405162461bcd60e51b815260206004820152601c60248201527f46756e6374696f6e2063616c6c206e6f74207375636365737366756c0000000060448201526064016105b8565b98975050505050505050565b600060016108fb600a5490565b6109059190611b53565b905090565b61091b610915610d56565b82610ed1565b6109375760405162461bcd60e51b81526004016105b890611b66565b6106ff838383610fa0565b6106ff83838360405180602001604052806000815250610b43565b6000818152600260205260408120546001600160a01b0316806104ab5760405162461bcd60e51b815260206004820152602960248201527f4552433732313a206f776e657220717565727920666f72206e6f6e657869737460448201526832b73a103a37b5b2b760b91b60648201526084016105b8565b60006001600160a01b038216610a3f5760405162461bcd60e51b815260206004820152602a60248201527f4552433732313a2062616c616e636520717565727920666f7220746865207a65604482015269726f206164647265737360b01b60648201526084016105b8565b506001600160a01b031660009081526003602052604090205490565b610a63610d56565b6001600160a01b0316610a7e6009546001600160a01b031690565b6001600160a01b031614610aa45760405162461bcd60e51b81526004016105b890611bb7565b610aae6000611140565b565b610ab8610d56565b6001600160a01b0316610ad36009546001600160a01b031690565b6001600160a01b031614610af95760405162461bcd60e51b81526004016105b890611bb7565b6000610b04600a5490565b9050610b14600a80546001019055565b610b1e8282611192565b5050565b6060600180546104c090611a7b565b610b1e610b3c610d56565b83836111ac565b610b54610b4e610d56565b83610ed1565b610b705760405162461bcd60e51b81526004016105b890611b66565b610b7c8484848461127a565b50505050565b6060610b8c610bbc565b610b95836112ad565b604051602001610ba6929190611bec565b6040516020818303038152906040529050919050565b60606040518060600160405280602e8152602001611da8602e9139905090565b600b5460405163c455279160e01b81526001600160a01b03848116600483015260009281169190841690829063c455279190602401602060405180830381865afa158015610c2e573d6000803e3d6000fd5b505050506040513d601f19601f82011682018060405250810190610c529190611c1b565b6001600160a01b031603610c6a5760019150506104ab565b6001600160a01b0380851660009081526005602090815260408083209387168352929052205460ff165b949350505050565b610ca4610d56565b6001600160a01b0316610cbf6009546001600160a01b031690565b6001600160a01b031614610ce55760405162461bcd60e51b81526004016105b890611bb7565b6001600160a01b038116610d4a5760405162461bcd60e51b815260206004820152602660248201527f4f776e61626c653a206e6577206f776e657220697320746865207a65726f206160448201526564647265737360d01b60648201526084016105b8565b610d5381611140565b50565b60006109056113ae565b600081815260046020526040902080546001600160a01b0319166001600160a01b0384169081179091558190610d958261095d565b6001600160a01b03167f8c5be1e5ebec7d5bd14f71427d1e84f3dd0314c0f7b2291e5b200ac8c7c3b92560405160405180910390a45050565b60006001600160a01b038616610e345760405162461bcd60e51b815260206004820152602560248201527f4e61746976654d6574615472616e73616374696f6e3a20494e56414c49445f5360448201526424a3a722a960d91b60648201526084016105b8565b6001610e47610e428761140a565b611487565b6040805160008152602081018083529290925260ff851690820152606081018690526080810185905260a0016020604051602081039080840390855afa158015610e95573d6000803e3d6000fd5b505050602060405103516001600160a01b0316866001600160a01b031614905095945050505050565b6000610eca8284611c38565b9392505050565b6000818152600260205260408120546001600160a01b0316610f4a5760405162461bcd60e51b815260206004820152602c60248201527f4552433732313a206f70657261746f7220717565727920666f72206e6f6e657860448201526b34b9ba32b73a103a37b5b2b760a11b60648201526084016105b8565b6000610f558361095d565b9050806001600160a01b0316846001600160a01b03161480610f905750836001600160a01b0316610f8584610543565b6001600160a01b0316145b80610c945750610c948185610bdc565b826001600160a01b0316610fb38261095d565b6001600160a01b03161461101b5760405162461bcd60e51b815260206004820152602960248201527f4552433732313a207472616e73666572206f6620746f6b656e2074686174206960448201526839903737ba1037bbb760b91b60648201526084016105b8565b6001600160a01b03821661107d5760405162461bcd60e51b8152602060048201526024808201527f4552433732313a207472616e7366657220746f20746865207a65726f206164646044820152637265737360e01b60648201526084016105b8565b611088600082610d60565b6001600160a01b03831660009081526003602052604081208054600192906110b1908490611b53565b90915550506001600160a01b03821660009081526003602052604081208054600192906110df908490611c38565b909155505060008181526002602052604080822080546001600160a01b0319166001600160a01b0386811691821790925591518493918716917fddf252ad1be2c89b69c2b068fc378daa952ba7f163c4a11628f55a4df523b3ef91a4505050565b600980546001600160a01b038381166001600160a01b0319831681179093556040519116919082907f8be0079c531659141344cd1fd0a4f28419497f9722a3daafe3b4186f6b6457e090600090a35050565b610b1e8282604051806020016040528060008152506114b7565b816001600160a01b0316836001600160a01b03160361120d5760405162461bcd60e51b815260206004820152601960248201527f4552433732313a20617070726f766520746f2063616c6c65720000000000000060448201526064016105b8565b6001600160a01b03838116600081815260056020908152604080832094871680845294825291829020805460ff191686151590811790915591519182527f17307eab39ab6107e8899845ad3d59bd9653f200f220920489ca2b5937696c31910160405180910390a3505050565b611285848484610fa0565b611291848484846114ea565b610b7c5760405162461bcd60e51b81526004016105b890611c4b565b6060816000036112d45750506040805180820190915260018152600360fc1b602082015290565b8160005b81156112fe57806112e881611c9d565b91506112f79050600a83611ccc565b91506112d8565b60008167ffffffffffffffff81111561131957611319611824565b6040519080825280601f01601f191660200182016040528015611343576020820181803683370190505b5090505b8415610c9457611358600183611b53565b9150611365600a86611ce0565b611370906030611c38565b60f81b81838151811061138557611385611cf4565b60200101906001600160f81b031916908160001a9053506113a7600a86611ccc565b9450611347565b600030330361140457600080368080601f0160208091040260200160405190810160405280939291908181526020018383808284376000920191909152505050503601516001600160a01b031691506114079050565b50335b90565b6000604051806080016040528060438152602001611d65604391398051602091820120835184830151604080870151805190860120905161146a950193845260208401929092526001600160a01b03166040830152606082015260800190565b604051602081830303815290604052805190602001209050919050565b600061149260075490565b60405161190160f01b602082015260228101919091526042810183905260620161146a565b6114c183836115f2565b6114ce60008484846114ea565b6106ff5760405162461bcd60e51b81526004016105b890611c4b565b60006001600160a01b0384163b156115e757836001600160a01b031663150b7a02611513610d56565b8786866040518563ffffffff1660e01b81526004016115359493929190611d0a565b6020604051808303816000875af1925050508015611570575060408051601f3d908101601f1916820190925261156d91810190611d47565b60015b6115cd573d80801561159e576040519150601f19603f3d011682016040523d82523d6000602084013e6115a3565b606091505b5080516000036115c55760405162461bcd60e51b81526004016105b890611c4b565b805181602001fd5b6001600160e01b031916630a85bd0160e11b149050610c94565b506001949350505050565b6001600160a01b0382166116485760405162461bcd60e51b815260206004820181905260248201527f4552433732313a206d696e7420746f20746865207a65726f206164647265737360448201526064016105b8565b6000818152600260205260409020546001600160a01b0316156116ad5760405162461bcd60e51b815260206004820152601c60248201527f4552433732313a20746f6b656e20616c7265616479206d696e7465640000000060448201526064016105b8565b6001600160a01b03821660009081526003602052604081208054600192906116d6908490611c38565b909155505060008181526002602052604080822080546001600160a01b0319166001600160a01b03861690811790915590518392907fddf252ad1be2c89b69c2b068fc378daa952ba7f163c4a11628f55a4df523b3ef908290a45050565b6001600160e01b031981168114610d5357600080fd5b60006020828403121561175c57600080fd5b8135610eca81611734565b60005b8381101561178257818101518382015260200161176a565b50506000910152565b600081518084526117a3816020860160208601611767565b601f01601f19169290920160200192915050565b602081526000610eca602083018461178b565b6000602082840312156117dc57600080fd5b5035919050565b6001600160a01b0381168114610d5357600080fd5b6000806040838503121561180b57600080fd5b8235611816816117e3565b946020939093013593505050565b634e487b7160e01b600052604160045260246000fd5b600082601f83011261184b57600080fd5b813567ffffffffffffffff8082111561186657611866611824565b604051601f8301601f19908116603f0116810190828211818310171561188e5761188e611824565b816040528381528660208588010111156118a757600080fd5b836020870160208301376000602085830101528094505050505092915050565b600080600080600060a086880312156118df57600080fd5b85356118ea816117e3565b9450602086013567ffffffffffffffff81111561190657600080fd5b6119128882890161183a565b9450506040860135925060608601359150608086013560ff8116811461193757600080fd5b809150509295509295909350565b60008060006060848603121561195a57600080fd5b8335611965816117e3565b92506020840135611975816117e3565b929592945050506040919091013590565b60006020828403121561199857600080fd5b8135610eca816117e3565b600080604083850312156119b657600080fd5b82356119c1816117e3565b9150602083013580151581146119d657600080fd5b809150509250929050565b600080600080608085870312156119f757600080fd5b8435611a02816117e3565b93506020850135611a12816117e3565b925060408501359150606085013567ffffffffffffffff811115611a3557600080fd5b611a418782880161183a565b91505092959194509250565b60008060408385031215611a6057600080fd5b8235611a6b816117e3565b915060208301356119d6816117e3565b600181811c90821680611a8f57607f821691505b602082108103611aaf57634e487b7160e01b600052602260045260246000fd5b50919050565b6001600160a01b03848116825283166020820152606060408201819052600090611ae19083018461178b565b95945050505050565b60008351611afc818460208801611767565b60609390931b6bffffffffffffffffffffffff19169190920190815260140192915050565b60008251611b33818460208701611767565b9190910192915050565b634e487b7160e01b600052601160045260246000fd5b818103818111156104ab576104ab611b3d565b60208082526031908201527f4552433732313a207472616e736665722063616c6c6572206973206e6f74206f6040820152701ddb995c881b9bdc88185c1c1c9bdd9959607a1b606082015260800190565b6020808252818101527f4f776e61626c653a2063616c6c6572206973206e6f7420746865206f776e6572604082015260600190565b60008351611bfe818460208801611767565b835190830190611c12818360208801611767565b01949350505050565b600060208284031215611c2d57600080fd5b8151610eca816117e3565b808201808211156104ab576104ab611b3d565b60208082526032908201527f4552433732313a207472616e7366657220746f206e6f6e20455243373231526560408201527131b2b4bb32b91034b6b83632b6b2b73a32b960711b606082015260800190565b600060018201611caf57611caf611b3d565b5060010190565b634e487b7160e01b600052601260045260246000fd5b600082611cdb57611cdb611cb6565b500490565b600082611cef57611cef611cb6565b500690565b634e487b7160e01b600052603260045260246000fd5b6001600160a01b0385811682528416602082015260408101839052608060608201819052600090611d3d9083018461178b565b9695505050505050565b600060208284031215611d5957600080fd5b8151610eca8161173456fe4d6574615472616e73616374696f6e2875696e74323536206e6f6e63652c616464726573732066726f6d2c62797465732066756e6374696f6e5369676e61747572652968747470733a2f2f6372656174757265732d6170692e6f70656e7365612e696f2f6170692f63726561747572652fa2646970667358221220d76fc64ce62d4e422da33ec5b2bab0d4cdbf4cb088b80583646f2ec6e1c5ee2964736f6c63430008140033454950373132446f6d61696e28737472696e67206e616d652c737472696e672076657273696f6e2c6164647265737320766572696679696e67436f6e74726163742c627974657333322073616c7429",
    "linkReferences": {}
  },
  "methodIdentifiers": {
    "ERC712_VERSION()": "0f7e5970",
    "approve(address,uint256)": "095ea7b3",
    "balanceOf(address)": "70a08231",
    "baseTokenURI()": "d547cfb7",
    "executeMetaTransaction(address,bytes,bytes32,bytes32,uint8)": "0c53c51c",
    "getApproved(uint256)": "081812fc",
    "getChainId()": "3408e470",
    "getDomainSeperator()": "20379ee5",
    "getNonce(address)": "2d0335ab",
    "isApprovedForAll(address,address)": "e985e9c5",
    "mintTo(address)": "755edd17",
    "name()": "06fdde03",
    "owner()": "8da5cb5b",
    "ownerOf(uint256)": "6352211e",
    "renounceOwnership()": "715018a6",
    "safeTransferFrom(address,address,uint256)": "42842e0e",
    "safeTransferFrom(address,address,uint256,bytes)": "b88d4fde",
    "setApprovalForAll(address,bool)": "a22cb465",
    "supportsInterface(bytes4)": "01ffc9a7",
    "symbol()": "95d89b41",
    "tokenURI(uint256)": "c87b56dd",
    "totalSupply()": "18160ddd",
    "transferFrom(address,address,uint256)": "23b872dd",
    "transferOwnership(address)": "f2fde38b"
  },
  "id": 0
}