{
  "abi": [
    {
      "inputs": [
        {
          "internalType": "address",
          "name": "_proxyRegistryAddress",
          "type": "address"
        },
        {
          "internalType": "address",
          "name": "_nftAddress",
          "type": "address"
        }
      ],
      "stateMutability": "nonpayable",
      "type": "constructor"
    },
    {
      "anonymous": false,
      "inputs": [
        {
          "indexed": true,
          "internalType": "address",
          "name": "previousOwner",
          "type": "address"
        },
        {
          "indexed": true,
          "internalType": "address",
          "name": "newOwner",
          "type": "address"
        }
      ],
      "name": "OwnershipTransferred",
      "type": "event"
    },
    {
      "anonymous": false,
      "inputs": [
        {
          "indexed": true,
          "internalType": "address",
          "name": "from",
          "type": "address"
        },
        {
          "indexed": true,
          "internalType": "address",
          "name": "to",
          "type": "address"
        },
        {
          "indexed": true,
          "internalType": "uint256",
          "name": "tokenId",
          "type": "uint256"
        }
      ],
      "name": "Transfer",
      "type": "event"
    },
    {
      "inputs": [],
      "name": "baseURI",
      "outputs": [
        {
          "internalType": "string",
          "name": "",
          "type": "string"
        }
      ],
      "stateMutability": "view",
      "type": "function"
    },
    {
      "inputs": [
        {
          "internalType": "uint256",
          "name": "_optionId",
          "type": "uint256"
        }
      ],
      "name": "canMint",
      "outputs": [
        {
          "internalType": "bool",
          "name": "",
          "type": "bool"
        }
      ],
      "stateMutability": "view",
      "type": "function"
    },
    {
      "inputs": [
        {
          "internalType": "address",
          "name": "_owner",
          "type": "address"
        },
        {
          "internalType": "address",
          "name": "_operator",
          "type": "address"
        }
      ],
      "name": "isApprovedForAll",
      "outputs": [
        {
          "internalType": "bool",
          "name": "",
          "type": "bool"
        }
      ],
      "stateMutability": "view",
      "type": "function"
    },
    {
      "inputs": [],
      "name": "lootBoxNftAddress",
      "outputs": [
        {
          "internalType": "address",
          "name": "",
          "type": "address"
        }
      ],
      "stateMutability": "view",
      "type": "function"
    },
    {
      "inputs": [
        {
          "internalType": "uint256",
          "name": "_optionId",
          "type": "uint256"
        },
        {
          "internalType": "address",
          "name": "_toAddress",
          "type": "address"
        }
      ],
      "name": "mint",
      "outputs": [],
      "stateMutability": "nonpayable",
      "type": "function"
    },
    {
      "inputs": [],
      "name": "name",
      "outputs": [
        {
          "internalType": "string",
          "name": "",
          "type": "string"
        }
      ],
      "stateMutability": "pure",
      "type": "function"
    },
    {
      "inputs": [],
      "name": "nftAddress",
      "outputs": [
        {
          "internalType": "address",
          "name": "",
          "type": "address"
        }
      ],
      "stateMutability": "view",
      "type": "function"
    },
    {
      "inputs": [],
      "name": "numOptions",
      "outputs": [
        {
          "internalType": "uint256",
          "name": "",
          "type": "uint256"
        }
      ],
      "stateMutability": "view",
      "type": "function"
    },
    {
      "inputs": [],
      "name": "owner",
      "outputs": [
        {
          "internalType": "address",
          "name": "",
          "type": "address"
        }
      ],
      "stateMutability": "view",
      "type": "function"
    },
    {
      "inputs": [
        {
          "internalType": "uint256",
          "name": "",
          "type": "uint256"
        }
      ],
      "name": "ownerOf",
      "outputs": [
        {
          "internalType": "address",
          "name": "_owner",
          "type": "address"
        }
      ],
      "stateMutability": "view",
      "type": "function"
    },
    {
      "inputs": [],
      "name": "proxyRegistryAddress",
      "outputs": [
        {
          "internalType": "address",
          "name": "",
          "type": "address"
        }
      ],
      "stateMutability": "view",
      "type": "function"
    },
    {
      "inputs": [],
      "name": "renounceOwnership",
      "outputs": [],
      "stateMutability": "nonpayable",
      "type": "function"
    },
    {
      "inputs": [],
      "name": "supportsFactoryInterface",
      "outputs": [
        {
          "internalType": "bool",
          "name": "",
          "type": "bool"
        }
      ],
      "stateMutability": "pure",
      "type": "function"
    },
    {
      "inputs": [],
      "name": "symbol",
      "outputs": [
        {
          "internalType": "string",
          "name": "",
          "type": "string"
        }
      ],
      "stateMutability": "pure",
      "type": "function"
    },
    {
      "inputs": [
        {
          "internalType": "uint256",
          "name": "_optionId",
          "type": "uint256"
        }
      ],
      "name": "tokenURI",
      "outputs": [
        {
          "internalType": "string",
          "name": "",
          "type": "string"
        }
      ],
      "stateMutability": "view",
      "type": "function"
    },
    {
      "inputs": [
        {
          "internalType": "address",
          "name": "",
          "type": "address"
        },
        {
          "internalType": "address",
          "name": "_to",
          "type": "address"
        },
        {
          "internalType": "uint256",
          "name": "_tokenId",
          "type": "uint256"
        }
      ],
      "name": "transferFrom",
      "outputs": [],
      "stateMutability": "nonpayable",
      "type": "function"
    },
    {
      "inputs": [
        {
          "internalType": "address",
          "name": "newOwner",
          "type": "address"
        }
      ],
      "name": "transferOwnership",
      "outputs": [],
      "stateMutability": "nonpayable",
      "type": "function"
    }
  ],
  "bytecode": {
    "object": "0x60e0604052602d608081815290620037d460a03960049062000022908262000292565b50606460055560036006556000600755600160085560026009556004600a553480156200004e57600080fd5b50604051620038013803806200380183398101604081905262000071916200037b565b6200007c3362000127565b600180546001600160a01b038085166001600160a01b031992831617909255600280549284169290911691909117905560405182903090620000be90620001e0565b6001600160a01b03928316815291166020820152604001604051809103906000f080158015620000f2573d6000803e3d6000fd5b50600380546001600160a01b0319166001600160a01b03928316179055600080546200011f921662000177565b5050620003db565b600080546001600160a01b038381166001600160a01b0319831681178455604051919092169283917f8be0079c531659141344cd1fd0a4f28419497f9722a3daafe3b4186f6b6457e09190a35050565b60005b600654811015620001db5780826001600160a01b0316846001600160a01b03167fddf252ad1be2c89b69c2b068fc378daa952ba7f163c4a11628f55a4df523b3ef60405160405180910390a480620001d281620003b3565b9150506200017a565b505050565b61250280620012d283390190565b634e487b7160e01b600052604160045260246000fd5b600181811c908216806200021957607f821691505b6020821081036200023a57634e487b7160e01b600052602260045260246000fd5b50919050565b601f821115620001db57600081815260208120601f850160051c81016020861015620002695750805b601f850160051c820191505b818110156200028a5782815560010162000275565b505050505050565b81516001600160401b03811115620002ae57620002ae620001ee565b620002c681620002bf845462000204565b8462000240565b602080601f831160018114620002fe5760008415620002e55750858301515b600019600386901b1c1916600185901b1785556200028a565b600085815260208120601f198616915b828110156200032f578886015182559484019460019091019084016200030e565b50858210156200034e5787850151600019600388901b60f8161c191681555b5050505050600190811b01905550565b80516001600160a01b03811681146200037657600080fd5b919050565b600080604083850312156200038f57600080fd5b6200039a836200035e565b9150620003aa602084016200035e565b90509250929050565b600060018201620003d457634e487b7160e01b600052601160045260246000fd5b5060010190565b610ee780620003eb6000396000f3fe608060405234801561001057600080fd5b506004361061010b5760003560e01c80638da5cb5b116100a2578063c87b56dd11610071578063c87b56dd1461023c578063cd7c03261461024f578063e985e9c514610262578063ec07d02e14610275578063f2fde38b1461028857600080fd5b80638da5cb5b146101f257806394bf804d1461020357806395d89b4114610216578063c311c5231461023557600080fd5b80635dd871a3116100de5780635dd871a3146101ac5780636352211e146101cf5780636c0360eb146101e2578063715018a6146101ea57600080fd5b806306fdde031461011057806323b872dd1461015b5780634b97aed9146101705780635bf8633a14610181575b600080fd5b60408051808201909152601981527f4f70656e5365614372656174757265204974656d2053616c650000000000000060208201525b6040516101529190610b4d565b60405180910390f35b61016e610169366004610b95565b61029b565b005b600654604051908152602001610152565b600254610194906001600160a01b031681565b6040516001600160a01b039091168152602001610152565b6101bf6101ba366004610bd6565b6102aa565b6040519015158152602001610152565b6101946101dd366004610bd6565b6103ec565b610145610400565b61016e61048e565b6000546001600160a01b0316610194565b61016e610211366004610bef565b6104cd565b60408051808201909152600381526221a82360e91b6020820152610145565b60016101bf565b61014561024a366004610bd6565b61073b565b600154610194906001600160a01b031681565b6101bf610270366004610c1f565b61076f565b600354610194906001600160a01b031681565b61016e610296366004610c4d565b610888565b6102a581836104cd565b505050565b600060065482106102bd57506000919050565b600254604080516318160ddd60e01b815290516001600160a01b039092169160009183916318160ddd916004808201926020929091908290030181865afa15801561030c573d6000803e3d6000fd5b505050506040513d601f19601f820116820180604052508101906103309190610c71565b905060006007548503610345575060016103d3565b60085485036103575750600a546103d3565b60095485036103d357600354604080516319d554e160e01b815290516001600160a01b039092169182916319d554e19160048083019260209291908290030181865afa1580156103ab573d6000803e3d6000fd5b505050506040513d601f19601f820116820180604052508101906103cf9190610c71565b9150505b806005546103e19190610ca0565b909110949350505050565b600080546001600160a01b03165b92915050565b6004805461040d90610cb3565b80601f016020809104026020016040519081016040528092919081815260200182805461043990610cb3565b80156104865780601f1061045b57610100808354040283529160200191610486565b820191906000526020600020905b81548152906001019060200180831161046957829003601f168201915b505050505081565b6000546001600160a01b031633146104c15760405162461bcd60e51b81526004016104b890610ced565b60405180910390fd5b6104cb60006108d5565b565b6001546001600160a01b0316336001600160a01b0316816001600160a01b031663c45527916105046000546001600160a01b031690565b6040516001600160e01b031960e084901b1681526001600160a01b039091166004820152602401602060405180830381865afa158015610548573d6000803e3d6000fd5b505050506040513d601f19601f8201168201806040525081019061056c9190610d22565b6001600160a01b0316148061058b57506000546001600160a01b031633145b806105a957506003546001600160a01b0316336001600160a01b0316145b6105b5576105b5610d3f565b6105be836102aa565b6105c757600080fd5b6002546007546001600160a01b0390911690840361063f5760405163755edd1760e01b81526001600160a01b03848116600483015282169063755edd1790602401600060405180830381600087803b15801561062257600080fd5b505af1158015610636573d6000803e3d6000fd5b50505050610735565b60085484036106c95760005b600a548110156106c35760405163755edd1760e01b81526001600160a01b03858116600483015283169063755edd1790602401600060405180830381600087803b15801561069857600080fd5b505af11580156106ac573d6000803e3d6000fd5b5050505080806106bb90610d55565b91505061064b565b50610735565b60095484036107355760035460405163755edd1760e01b81526001600160a01b03858116600483015290911690819063755edd1790602401600060405180830381600087803b15801561071b57600080fd5b505af115801561072f573d6000803e3d6000fd5b50505050505b50505050565b6060600461074883610925565b604051602001610759929190610d8a565b6040516020818303038152906040529050919050565b6000826001600160a01b031661078d6000546001600160a01b031690565b6001600160a01b03161480156107b45750816001600160a01b0316836001600160a01b0316145b156107c1575060016103fa565b6001546001600160a01b039081169084166107e46000546001600160a01b031690565b6001600160a01b031614801561086f575060405163c455279160e01b81526001600160a01b038581166004830152808516919083169063c455279190602401602060405180830381865afa158015610840573d6000803e3d6000fd5b505050506040513d601f19601f820116820180604052508101906108649190610d22565b6001600160a01b0316145b1561087e5760019150506103fa565b5060009392505050565b6000546001600160a01b031633146108b25760405162461bcd60e51b81526004016104b890610ced565b6000546001600160a01b03166108c782610a2e565b6108d18183610ac9565b5050565b600080546001600160a01b038381166001600160a01b0319831681178455604051919092169283917f8be0079c531659141344cd1fd0a4f28419497f9722a3daafe3b4186f6b6457e09190a35050565b60608160000361094c5750506040805180820190915260018152600360fc1b602082015290565b8160005b8115610976578061096081610d55565b915061096f9050600a83610e4a565b9150610950565b60008167ffffffffffffffff81111561099157610991610e5e565b6040519080825280601f01601f1916602001820160405280156109bb576020820181803683370190505b5090505b8415610a26576109d0600183610ca0565b91506109dd600a86610e74565b6109e8906030610e88565b60f81b8183815181106109fd576109fd610e9b565b60200101906001600160f81b031916908160001a905350610a1f600a86610e4a565b94506109bf565b949350505050565b6000546001600160a01b03163314610a585760405162461bcd60e51b81526004016104b890610ced565b6001600160a01b038116610abd5760405162461bcd60e51b815260206004820152602660248201527f4f776e61626c653a206e6577206f776e657220697320746865207a65726f206160448201526564647265737360d01b60648201526084016104b8565b610ac6816108d5565b50565b60005b6006548110156102a55780826001600160a01b0316846001600160a01b03167fddf252ad1be2c89b69c2b068fc378daa952ba7f163c4a11628f55a4df523b3ef60405160405180910390a480610b2181610d55565b915050610acc565b60005b83811015610b44578181015183820152602001610b2c565b50506000910152565b6020815260008251806020840152610b6c816040850160208701610b29565b601f01601f19169190910160400192915050565b6001600160a01b0381168114610ac657600080fd5b600080600060608486031215610baa57600080fd5b8335610bb581610b80565b92506020840135610bc581610b80565b929592945050506040919091013590565b600060208284031215610be857600080fd5b5035919050565b60008060408385031215610c0257600080fd5b823591506020830135610c1481610b80565b809150509250929050565b60008060408385031215610c3257600080fd5b8235610c3d81610b80565b91506020830135610c1481610b80565b600060208284031215610c5f57600080fd5b8135610c6a81610b80565b9392505050565b600060208284031215610c8357600080fd5b5051919050565b634e487b7160e01b600052601160045260246000fd5b818103818111156103fa576103fa610c8a565b600181811c90821680610cc757607f821691505b602082108103610ce757634e487b7160e01b600052602260045260246000fd5b50919050565b6020808252818101527f4f776e61626c653a2063616c6c6572206973206e6f7420746865206f776e6572604082015260600190565b600060208284031215610d3457600080fd5b8151610c6a81610b80565b634e487b7160e01b600052600160045260246000fd5b600060018201610d6757610d67610c8a565b5060010190565b60008151610d80818560208601610b29565b9290920192915050565b600080845481600182811c915080831680610da657607f831692505b60208084108203610dc557634e487b7160e01b86526022600452602486fd5b818015610dd95760018114610dee57610e1b565b60ff1986168952841515850289019650610e1b565b60008b81526020902060005b86811015610e135781548b820152908501908301610dfa565b505084890196505b505050505050610e2b8185610d6e565b95945050505050565b634e487b7160e01b600052601260045260246000fd5b600082610e5957610e59610e34565b500490565b634e487b7160e01b600052604160045260246000fd5b600082610e8357610e83610e34565b500690565b808201808211156103fa576103fa610c8a565b634e487b7160e01b600052603260045260246000fdfea26469706673582212200b823978c6b618a810e7ccfcdb0f96983bc0962c2d7bc10b28f1823c0b2945f664736f6c6343000814003360806040526006805460ff191690556003600c556000600d553480156200002557600080fd5b506040516200250238038062002502833981016040819052620000489162000315565b6040518060400160405280600f81526020016e086e4cac2e8eae4ca98dedee884def608b1b815250604051806040016040528060078152602001660989e9ea8849eb60cb1b8152508382828160009081620000a49190620003f2565b506001620000b38282620003f2565b505050620000d0620000ca6200013160201b60201c565b62000142565b600b80546001600160a01b0319166001600160a01b038316179055620000fa600a80546001019055565b620001058362000194565b5050600e80546001600160a01b0319166001600160a01b03939093169290921790915550620004be9050565b60006200013d620001f8565b905090565b600980546001600160a01b038381166001600160a01b0319831681179093556040519116919082907f8be0079c531659141344cd1fd0a4f28419497f9722a3daafe3b4186f6b6457e090600090a35050565b60065460ff1615620001dd5760405162461bcd60e51b815260206004820152600e60248201526d185b1c9958591e481a5b9a5d195960921b604482015260640160405180910390fd5b620001e88162000256565b506006805460ff19166001179055565b60003033036200025057600080368080601f0160208091040260200160405190810160405280939291908181526020018383808284376000920191909152505050503601516001600160a01b03169150620002539050565b50335b90565b6040518060800160405280604f8152602001620024b3604f9139805160209182012082519282019290922060408051808201825260018152603160f81b90840152805180840194909452838101919091527fc89efdaa54c0f20c7adf612882df0950f5a951637e0307cdcb4c672f298b8bc660608401523060808401524660a0808501919091528151808503909101815260c090930190528151910120600755565b80516001600160a01b03811681146200031057600080fd5b919050565b600080604083850312156200032957600080fd5b6200033483620002f8565b91506200034460208401620002f8565b90509250929050565b634e487b7160e01b600052604160045260246000fd5b600181811c908216806200037857607f821691505b6020821081036200039957634e487b7160e01b600052602260045260246000fd5b50919050565b601f821115620003ed57600081815260208120601f850160051c81016020861015620003c85750805b601f850160051c820191505b81811015620003e957828155600101620003d4565b5050505b505050565b81516001600160401b038111156200040e576200040e6200034d565b62000426816200041f845462000363565b846200039f565b602080601f8311600181146200045e5760008415620004455750858301515b600019600386901b1c1916600185901b178555620003e9565b600085815260208120601f198616915b828110156200048f578886015182559484019460019091019084016200046e565b5085821015620004ae5787850151600019600388901b60f8161c191681555b5050505050600190811b01905550565b611fe580620004ce6000396000f3fe6080604052600436106101815760003560e01c80636352211e116100d157806395d89b411161008a578063c87b56dd11610064578063c87b56dd14610455578063d547cfb714610475578063e985e9c51461048a578063f2fde38b146104aa57600080fd5b806395d89b4114610400578063a22cb46514610415578063b88d4fde1461043557600080fd5b80636352211e1461034d57806370a082311461036d578063715018a61461038d578063755edd17146103a25780638a02be68146103c25780638da5cb5b146103e257600080fd5b806318160ddd1161013e57806323b872dd1161011857806323b872dd146102c45780632d0335ab146102e45780633408e4701461031a57806342842e0e1461032d57600080fd5b806318160ddd1461027757806319d554e11461029a57806320379ee5146102af57600080fd5b806301ffc9a71461018657806306fdde03146101bb578063081812fc146101dd578063095ea7b3146102155780630c53c51c146102375780630f7e59701461024a575b600080fd5b34801561019257600080fd5b506101a66101a1366004611929565b6104ca565b60405190151581526020015b60405180910390f35b3480156101c757600080fd5b506101d061051c565b6040516101b29190611996565b3480156101e957600080fd5b506101fd6101f83660046119a9565b6105ae565b6040516001600160a01b0390911681526020016101b2565b34801561022157600080fd5b506102356102303660046119d7565b610648565b005b6101d0610245366004611aa6565b61076f565b34801561025657600080fd5b506101d0604051806040016040528060018152602001603160f81b81525081565b34801561028357600080fd5b5061028c610959565b6040519081526020016101b2565b3480156102a657600080fd5b50600c5461028c565b3480156102bb57600080fd5b5060075461028c565b3480156102d057600080fd5b506102356102df366004611b24565b610975565b3480156102f057600080fd5b5061028c6102ff366004611b65565b6001600160a01b031660009081526008602052604090205490565b34801561032657600080fd5b504661028c565b34801561033957600080fd5b50610235610348366004611b24565b6109ad565b34801561035957600080fd5b506101fd6103683660046119a9565b6109c8565b34801561037957600080fd5b5061028c610388366004611b65565b610a3f565b34801561039957600080fd5b50610235610ac6565b3480156103ae57600080fd5b506102356103bd366004611b65565b610b1b565b3480156103ce57600080fd5b506102356103dd3660046119a9565b610b8d565b3480156103ee57600080fd5b506009546001600160a01b03166101fd565b34801561040c57600080fd5b506101d0610c69565b34801561042157600080fd5b50610235610430366004611b82565b610c78565b34801561044157600080fd5b50610235610450366004611bc0565b610c8a565b34801561046157600080fd5b506101d06104703660046119a9565b610cc9565b34801561048157600080fd5b506101d0610d03565b34801561049657600080fd5b506101a66104a5366004611c2c565b610d23565b3480156104b657600080fd5b506102356104c5366004611b65565b610de3565b60006001600160e01b031982166380ac58cd60e01b14806104fb57506001600160e01b03198216635b5e139f60e01b145b8061051657506301ffc9a760e01b6001600160e01b03198316145b92915050565b60606000805461052b90611c5a565b80601f016020809104026020016040519081016040528092919081815260200182805461055790611c5a565b80156105a45780601f10610579576101008083540402835291602001916105a4565b820191906000526020600020905b81548152906001019060200180831161058757829003601f168201915b5050505050905090565b6000818152600260205260408120546001600160a01b031661062c5760405162461bcd60e51b815260206004820152602c60248201527f4552433732313a20617070726f76656420717565727920666f72206e6f6e657860448201526b34b9ba32b73a103a37b5b2b760a11b60648201526084015b60405180910390fd5b506000908152600460205260409020546001600160a01b031690565b6000610653826109c8565b9050806001600160a01b0316836001600160a01b0316036106c05760405162461bcd60e51b815260206004820152602160248201527f4552433732313a20617070726f76616c20746f2063757272656e74206f776e656044820152603960f91b6064820152608401610623565b806001600160a01b03166106d2610e9a565b6001600160a01b031614806106ee57506106ee816104a5610e9a565b6107605760405162461bcd60e51b815260206004820152603860248201527f4552433732313a20617070726f76652063616c6c6572206973206e6f74206f7760448201527f6e6572206e6f7220617070726f76656420666f7220616c6c00000000000000006064820152608401610623565b61076a8383610ea4565b505050565b60408051606081810183526001600160a01b038816600081815260086020908152908590205484528301529181018690526107ad8782878787610f12565b6108035760405162461bcd60e51b815260206004820152602160248201527f5369676e657220616e64207369676e617475726520646f206e6f74206d6174636044820152600d60fb1b6064820152608401610623565b6001600160a01b038716600090815260086020526040902054610827906001611002565b6001600160a01b0388166000908152600860205260409081902091909155517f5845892132946850460bff5a0083f71031bc5bf9aadcd40f1de79423eac9b10b9061087790899033908a90611c94565b60405180910390a1600080306001600160a01b0316888a60405160200161089f929190611cc9565b60408051601f19818403018152908290526108b991611d00565b6000604051808303816000865af19150503d80600081146108f6576040519150601f19603f3d011682016040523d82523d6000602084013e6108fb565b606091505b50915091508161094d5760405162461bcd60e51b815260206004820152601c60248201527f46756e6374696f6e2063616c6c206e6f74207375636365737366756c000000006044820152606401610623565b98975050505050505050565b60006001610966600a5490565b6109709190611d32565b905090565b610986610980610e9a565b82611015565b6109a25760405162461bcd60e51b815260040161062390611d45565b61076a8383836110e4565b61076a83838360405180602001604052806000815250610c8a565b6000818152600260205260408120546001600160a01b0316806105165760405162461bcd60e51b815260206004820152602960248201527f4552433732313a206f776e657220717565727920666f72206e6f6e657869737460448201526832b73a103a37b5b2b760b91b6064820152608401610623565b60006001600160a01b038216610aaa5760405162461bcd60e51b815260206004820152602a60248201527f4552433732313a2062616c616e636520717565727920666f7220746865207a65604482015269726f206164647265737360b01b6064820152608401610623565b506001600160a01b031660009081526003602052604090205490565b610ace610e9a565b6001600160a01b0316610ae96009546001600160a01b031690565b6001600160a01b031614610b0f5760405162461bcd60e51b815260040161062390611d96565b610b196000611284565b565b610b23610e9a565b6001600160a01b0316610b3e6009546001600160a01b031690565b6001600160a01b031614610b645760405162461bcd60e51b815260040161062390611d96565b6000610b6f600a5490565b9050610b7f600a80546001019055565b610b8982826112d6565b5050565b610b95610e9a565b6001600160a01b0316610ba7826109c8565b6001600160a01b031614610bba57600080fd5b60005b600c54811015610c5c57600e54600d546001600160a01b039091169081906394bf804d90610be9610e9a565b6040516001600160e01b031960e085901b16815260048101929092526001600160a01b03166024820152604401600060405180830381600087803b158015610c3057600080fd5b505af1158015610c44573d6000803e3d6000fd5b50505050508080610c5490611dcb565b915050610bbd565b50610c66816112f0565b50565b60606001805461052b90611c5a565b610b89610c83610e9a565b838361138b565b610c9b610c95610e9a565b83611015565b610cb75760405162461bcd60e51b815260040161062390611d45565b610cc384848484611459565b50505050565b6060610cd3610d03565b610cdc8361148c565b604051602001610ced929190611de4565b6040516020818303038152906040529050919050565b6060604051806060016040528060298152602001611f8760299139905090565b600b5460405163c455279160e01b81526001600160a01b03848116600483015260009281169190841690829063c455279190602401602060405180830381865afa158015610d75573d6000803e3d6000fd5b505050506040513d601f19601f82011682018060405250810190610d999190611e13565b6001600160a01b031603610db1576001915050610516565b6001600160a01b0380851660009081526005602090815260408083209387168352929052205460ff165b949350505050565b610deb610e9a565b6001600160a01b0316610e066009546001600160a01b031690565b6001600160a01b031614610e2c5760405162461bcd60e51b815260040161062390611d96565b6001600160a01b038116610e915760405162461bcd60e51b815260206004820152602660248201527f4f776e61626c653a206e6577206f776e657220697320746865207a65726f206160448201526564647265737360d01b6064820152608401610623565b610c6681611284565b600061097061158d565b600081815260046020526040902080546001600160a01b0319166001600160a01b0384169081179091558190610ed9826109c8565b6001600160a01b03167f8c5be1e5ebec7d5bd14f71427d1e84f3dd0314c0f7b2291e5b200ac8c7c3b92560405160405180910390a45050565b60006001600160a01b038616610f785760405162461bcd60e51b815260206004820152602560248201527f4e61746976654d6574615472616e73616374696f6e3a20494e56414c49445f5360448201526424a3a722a960d91b6064820152608401610623565b6001610f8b610f86876115e9565b611666565b6040805160008152602081018083529290925260ff851690820152606081018690526080810185905260a0016020604051602081039080840390855afa158015610fd9573d6000803e3d6000fd5b505050602060405103516001600160a01b0316866001600160a01b031614905095945050505050565b600061100e8284611e30565b9392505050565b6000818152600260205260408120546001600160a01b031661108e5760405162461bcd60e51b815260206004820152602c60248201527f4552433732313a206f70657261746f7220717565727920666f72206e6f6e657860448201526b34b9ba32b73a103a37b5b2b760a11b6064820152608401610623565b6000611099836109c8565b9050806001600160a01b0316846001600160a01b031614806110d45750836001600160a01b03166110c9846105ae565b6001600160a01b0316145b80610ddb5750610ddb8185610d23565b826001600160a01b03166110f7826109c8565b6001600160a01b03161461115f5760405162461bcd60e51b815260206004820152602960248201527f4552433732313a207472616e73666572206f6620746f6b656e2074686174206960448201526839903737ba1037bbb760b91b6064820152608401610623565b6001600160a01b0382166111c15760405162461bcd60e51b8152602060048201526024808201527f4552433732313a207472616e7366657220746f20746865207a65726f206164646044820152637265737360e01b6064820152608401610623565b6111cc600082610ea4565b6001600160a01b03831660009081526003602052604081208054600192906111f5908490611d32565b90915550506001600160a01b0382166000908152600360205260408120805460019290611223908490611e30565b909155505060008181526002602052604080822080546001600160a01b0319166001600160a01b0386811691821790925591518493918716917fddf252ad1be2c89b69c2b068fc378daa952ba7f163c4a11628f55a4df523b3ef91a4505050565b600980546001600160a01b038381166001600160a01b0319831681179093556040519116919082907f8be0079c531659141344cd1fd0a4f28419497f9722a3daafe3b4186f6b6457e090600090a35050565b610b89828260405180602001604052806000815250611696565b60006112fb826109c8565b9050611308600083610ea4565b6001600160a01b0381166000908152600360205260408120805460019290611331908490611d32565b909155505060008281526002602052604080822080546001600160a01b0319169055518391906001600160a01b038416907fddf252ad1be2c89b69c2b068fc378daa952ba7f163c4a11628f55a4df523b3ef908390a45050565b816001600160a01b0316836001600160a01b0316036113ec5760405162461bcd60e51b815260206004820152601960248201527f4552433732313a20617070726f766520746f2063616c6c6572000000000000006044820152606401610623565b6001600160a01b03838116600081815260056020908152604080832094871680845294825291829020805460ff191686151590811790915591519182527f17307eab39ab6107e8899845ad3d59bd9653f200f220920489ca2b5937696c31910160405180910390a3505050565b6114648484846110e4565b611470848484846116c9565b610cc35760405162461bcd60e51b815260040161062390611e43565b6060816000036114b35750506040805180820190915260018152600360fc1b602082015290565b8160005b81156114dd57806114c781611dcb565b91506114d69050600a83611eab565b91506114b7565b60008167ffffffffffffffff8111156114f8576114f8611a03565b6040519080825280601f01601f191660200182016040528015611522576020820181803683370190505b5090505b8415610ddb57611537600183611d32565b9150611544600a86611ebf565b61154f906030611e30565b60f81b81838151811061156457611564611ed3565b60200101906001600160f81b031916908160001a905350611586600a86611eab565b9450611526565b60003033036115e357600080368080601f0160208091040260200160405190810160405280939291908181526020018383808284376000920191909152505050503601516001600160a01b031691506115e69050565b50335b90565b6000604051806080016040528060438152602001611f446043913980516020918201208351848301516040808701518051908601209051611649950193845260208401929092526001600160a01b03166040830152606082015260800190565b604051602081830303815290604052805190602001209050919050565b600061167160075490565b60405161190160f01b6020820152602281019190915260428101839052606201611649565b6116a083836117d1565b6116ad60008484846116c9565b61076a5760405162461bcd60e51b815260040161062390611e43565b60006001600160a01b0384163b156117c657836001600160a01b031663150b7a026116f2610e9a565b8786866040518563ffffffff1660e01b81526004016117149493929190611ee9565b6020604051808303816000875af192505050801561174f575060408051601f3d908101601f1916820190925261174c91810190611f26565b60015b6117ac573d80801561177d576040519150601f19603f3d011682016040523d82523d6000602084013e611782565b606091505b5080516000036117a45760405162461bcd60e51b815260040161062390611e43565b805181602001fd5b6001600160e01b031916630a85bd0160e11b149050610ddb565b506001949350505050565b6001600160a01b0382166118275760405162461bcd60e51b815260206004820181905260248201527f4552433732313a206d696e7420746f20746865207a65726f20616464726573736044820152606401610623565b6000818152600260205260409020546001600160a01b03161561188c5760405162461bcd60e51b815260206004820152601c60248201527f4552433732313a20746f6b656e20616c7265616479206d696e746564000000006044820152606401610623565b6001600160a01b03821660009081526003602052604081208054600192906118b5908490611e30565b909155505060008181526002602052604080822080546001600160a01b0319166001600160a01b03861690811790915590518392907fddf252ad1be2c89b69c2b068fc378daa952ba7f163c4a11628f55a4df523b3ef908290a45050565b6001600160e01b031981168114610c6657600080fd5b60006020828403121561193b57600080fd5b813561100e81611913565b60005b83811015611961578181015183820152602001611949565b50506000910152565b60008151808452611982816020860160208601611946565b601f01601f19169290920160200192915050565b60208152600061100e602083018461196a565b6000602082840312156119bb57600080fd5b5035919050565b6001600160a01b0381168114610c6657600080fd5b600080604083850312156119ea57600080fd5b82356119f5816119c2565b946020939093013593505050565b634e487b7160e01b600052604160045260246000fd5b600082601f830112611a2a57600080fd5b813567ffffffffffffffff80821115611a4557611a45611a03565b604051601f8301601f19908116603f01168101908282118183101715611a6d57611a6d611a03565b81604052838152866020858801011115611a8657600080fd5b836020870160208301376000602085830101528094505050505092915050565b600080600080600060a08688031215611abe57600080fd5b8535611ac9816119c2565b9450602086013567ffffffffffffffff811115611ae557600080fd5b611af188828901611a19565b9450506040860135925060608601359150608086013560ff81168114611b1657600080fd5b809150509295509295909350565b600080600060608486031215611b3957600080fd5b8335611b44816119c2565b92506020840135611b54816119c2565b929592945050506040919091013590565b600060208284031215611b7757600080fd5b813561100e816119c2565b60008060408385031215611b9557600080fd5b8235611ba0816119c2565b915060208301358015158114611bb557600080fd5b809150509250929050565b60008060008060808587031215611bd657600080fd5b8435611be1816119c2565b93506020850135611bf1816119c2565b925060408501359150606085013567ffffffffffffffff811115611c1457600080fd5b611c2087828801611a19565b91505092959194509250565b60008060408385031215611c3f57600080fd5b8235611c4a816119c2565b91506020830135611bb5816119c2565b600181811c90821680611c6e57607f821691505b602082108103611c8e57634e487b7160e01b600052602260045260246000fd5b50919050565b6001600160a01b03848116825283166020820152606060408201819052600090611cc09083018461196a565b95945050505050565b60008351611cdb818460208801611946565b60609390931b6bffffffffffffffffffffffff19169190920190815260140192915050565b60008251611d12818460208701611946565b9190910192915050565b634e487b7160e01b600052601160045260246000fd5b8181038181111561051657610516611d1c565b60208082526031908201527f4552433732313a207472616e736665722063616c6c6572206973206e6f74206f6040820152701ddb995c881b9bdc88185c1c1c9bdd9959607a1b606082015260800190565b6020808252818101527f4f776e61626c653a2063616c6c6572206973206e6f7420746865206f776e6572604082015260600190565b600060018201611ddd57611ddd611d1c565b5060010190565b60008351611df6818460208801611946565b835190830190611e0a818360208801611946565b01949350505050565b600060208284031215611e2557600080fd5b815161100e816119c2565b8082018082111561051657610516611d1c565b60208082526032908201527f4552433732313a207472616e7366657220746f206e6f6e20455243373231526560408201527131b2b4bb32b91034b6b83632b6b2b73a32b960711b606082015260800190565b634e487b7160e01b600052601260045260246000fd5b600082611eba57611eba611e95565b500490565b600082611ece57611ece611e95565b500690565b634e487b7160e01b600052603260045260246000fd5b6001600160a01b0385811682528416602082015260408101839052608060608201819052600090611f1c9083018461196a565b9695505050505050565b600060208284031215611f3857600080fd5b815161100e8161191356fe4d6574615472616e73616374696f6e2875696e74323536206e6f6e63652c616464726573732066726f6d2c62797465732066756e6374696f6e5369676e61747572652968747470733a2f2f6372656174757265732d6170692e6f70656e7365612e696f2f6170692f626f782fa2646970667358221220625751eae7b647f32039cc9628d091a7db653bccc9e26db2f7072c74a289ce0264736f6c63430008140033454950373132446f6d61696e28737472696e67206e616d652c737472696e672076657273696f6e2c6164647265737320766572696679696e67436f6e74726163742c627974657333322073616c742968747470733a2f2f6372656174757265732d6170692e6f70656e7365612e696f2f6170692f666163746f72792f",
    "linkReferences": {}
  },
  "methodIdentifiers": {
    "baseURI()": "6c0360eb",
    "canMint(uint256)": "5dd871a3",
    "isApprovedForAll(address,address)": "e985e9c5",
    "lootBoxNftAddress()": "ec07d02e",
    "mint(uint256,address)": "94bf804d",
    "name()": "06fdde03",
    "nftAddress()": "5bf8633a",
    "numOptions()": "4b97aed9",
    "owner()": "8da5cb5b",
    "ownerOf(uint256)": "6352211e",
    "proxyRegistryAddress()": "cd7c0326",
    "renounceOwnership()": "715018a6",
    "supportsFactoryInterface()": "c311c523",
    "symbol()": "95d89b41",
    "tokenURI(uint256)": "c87b56dd",
    "transferFrom(address,address,uint256)": "23b872dd",
    "transferOwnership(address)": "f2fde38b"
  },
  "id": 4
}