{
  "abi": [
    {
      "inputs": [
        {
          "internalType": "address",
          "name": "_proxyRegistryAddress",
          "type": "address"
        }
      ],
      "stateMutability": "nonpayable",
      "type": "constructor"
    },
    {
      "anonymous": false,
      "inputs": [
        {
          "indexed": true,
          "internalType": "address",
          "name": "account",
          "type": "address"
        },
        {
          "indexed": true,
          "internalType": "address",
          "name": "operator",
          "type": "address"
        },
        {
          "indexed": false,
          "internalType": "bool",
          "name": "approved",
          "type": "bool"
        }
      ],
      "name": "ApprovalForAll",
      "type": "event"
    },
    {
      "anonymous": false,
      "inputs": [
        {
          "indexed": true,
          "internalType": "uint256",
          "name": "optionId",
          "type": "uint256"
        },
        {
          "indexed": true,
          "internalType": "address",
          "name": "buyer",
          "type": "address"
        },
        {
          "indexed": false,
          "internalType": "uint256",
          "name": "boxesPurchased",
          "type": "uint256"
        },
        {
          "indexed": false,
          "internalType": "uint256",
          "name": "itemsMinted",
          "type": "uint256"
        }
      ],
      "name": "LootBoxOpened",
      "type": "event"
    },
    {
      "anonymous": false,
      "inputs": [
        {
          "indexed": false,
          "internalType": "address",
          "name": "userAddress",
          "type": "address"
        },
        {
          "indexed": false,
          "internalType": "address payable",
          "name": "relayerAddress",
          "type": "address"
        },
        {
          "indexed": false,
          "internalType": "bytes",
          "name": "functionSignature",
          "type": "bytes"
        }
      ],
      "name": "MetaTransactionExecuted",
      "type": "event"
    },
    {
      "anonymous": false,
      "inputs": [
        {
          "indexed": true,
          "internalType": "address",
          "name": "previousOwner",
          "type": "address"
        },
        {
          "indexed": true,
          "internalType": "address",
          "name": "newOwner",
          "type": "address"
        }
      ],
      "name": "OwnershipTransferred",
      "type": "event"
    },
    {
      "anonymous": false,
      "inputs": [
        {
          "indexed": true,
          "internalType": "address",
          "name": "operator",
          "type": "address"
        },
        {
          "indexed": true,
          "internalType": "address",
          "name": "from",
          "type": "address"
        },
        {
          "indexed": true,
          "internalType": "address",
          "name": "to",
          "type": "address"
        },
        {
          "indexed": false,
          "internalType": "uint256[]",
          "name": "ids",
          "type": "uint256[]"
        },
        {
          "indexed": false,
          "internalType": "uint256[]",
          "name": "values",
          "type": "uint256[]"
        }
      ],
      "name": "TransferBatch",
      "type": "event"
    },
    {
      "anonymous": false,
      "inputs": [
        {
          "indexed": true,
          "internalType": "address",
          "name": "operator",
          "type": "address"
        },
        {
          "indexed": true,
          "internalType": "address",
          "name": "from",
          "type": "address"
        },
        {
          "indexed": true,
          "internalType": "address",
          "name": "to",
          "type": "address"
        },
        {
          "indexed": false,
          "internalType": "uint256",
          "name": "id",
          "type": "uint256"
        },
        {
          "indexed": false,
          "internalType": "uint256",
          "name": "value",
          "type": "uint256"
        }
      ],
      "name": "TransferSingle",
      "type": "event"
    },
    {
      "anonymous": false,
      "inputs": [
        {
          "indexed": false,
          "internalType": "string",
          "name": "value",
          "type": "string"
        },
        {
          "indexed": true,
          "internalType": "uint256",
          "name": "id",
          "type": "uint256"
        }
      ],
      "name": "URI",
      "type": "event"
    },
    {
      "inputs": [],
      "name": "ERC712_VERSION",
      "outputs": [
        {
          "internalType": "string",
          "name": "",
          "type": "string"
        }
      ],
      "stateMutability": "view",
      "type": "function"
    },
    {
      "inputs": [
        {
          "internalType": "address",
          "name": "account",
          "type": "address"
        },
        {
          "internalType": "uint256",
          "name": "id",
          "type": "uint256"
        }
      ],
      "name": "balanceOf",
      "outputs": [
        {
          "internalType": "uint256",
          "name": "",
          "type": "uint256"
        }
      ],
      "stateMutability": "view",
      "type": "function"
    },
    {
      "inputs": [
        {
          "internalType": "address[]",
          "name": "accounts",
          "type": "address[]"
        },
        {
          "internalType": "uint256[]",
          "name": "ids",
          "type": "uint256[]"
        }
      ],
      "name": "balanceOfBatch",
      "outputs": [
        {
          "internalType": "uint256[]",
          "name": "",
          "type": "uint256[]"
        }
      ],
      "stateMutability": "view",
      "type": "function"
    },
    {
      "inputs": [
        {
          "internalType": "address",
          "name": "_to",
          "type": "address"
        },
        {
          "internalType": "uint256[]",
          "name": "_ids",
          "type": "uint256[]"
        },
        {
          "internalType": "uint256[]",
          "name": "_quantities",
          "type": "uint256[]"
        },
        {
          "internalType": "bytes",
          "name": "_data",
          "type": "bytes"
        }
      ],
      "name": "batchMint",
      "outputs": [],
      "stateMutability": "nonpayable",
      "type": "function"
    },
    {
      "inputs": [
        {
          "internalType": "address",
          "name": "_initialOwner",
          "type": "address"
        },
        {
          "internalType": "uint256",
          "name": "_id",
          "type": "uint256"
        },
        {
          "internalType": "uint256",
          "name": "_initialSupply",
          "type": "uint256"
        },
        {
          "internalType": "string",
          "name": "_uri",
          "type": "string"
        },
        {
          "internalType": "bytes",
          "name": "_data",
          "type": "bytes"
        }
      ],
      "name": "create",
      "outputs": [
        {
          "internalType": "uint256",
          "name": "",
          "type": "uint256"
        }
      ],
      "stateMutability": "nonpayable",
      "type": "function"
    },
    {
      "inputs": [
        {
          "internalType": "uint256",
          "name": "",
          "type": "uint256"
        }
      ],
      "name": "creators",
      "outputs": [
        {
          "internalType": "address",
          "name": "",
          "type": "address"
        }
      ],
      "stateMutability": "view",
      "type": "function"
    },
    {
      "inputs": [
        {
          "internalType": "address",
          "name": "userAddress",
          "type": "address"
        },
        {
          "internalType": "bytes",
          "name": "functionSignature",
          "type": "bytes"
        },
        {
          "internalType": "bytes32",
          "name": "sigR",
          "type": "bytes32"
        },
        {
          "internalType": "bytes32",
          "name": "sigS",
          "type": "bytes32"
        },
        {
          "internalType": "uint8",
          "name": "sigV",
          "type": "uint8"
        }
      ],
      "name": "executeMetaTransaction",
      "outputs": [
        {
          "internalType": "bytes",
          "name": "",
          "type": "bytes"
        }
      ],
      "stateMutability": "payable",
      "type": "function"
    },
    {
      "inputs": [
        {
          "internalType": "uint256",
          "name": "_id",
          "type": "uint256"
        }
      ],
      "name": "exists",
      "outputs": [
        {
          "internalType": "bool",
          "name": "",
          "type": "bool"
        }
      ],
      "stateMutability": "view",
      "type": "function"
    },
    {
      "inputs": [],
      "name": "getChainId",
      "outputs": [
        {
          "internalType": "uint256",
          "name": "",
          "type": "uint256"
        }
      ],
      "stateMutability": "view",
      "type": "function"
    },
    {
      "inputs": [],
      "name": "getDomainSeperator",
      "outputs": [
        {
          "internalType": "bytes32",
          "name": "",
          "type": "bytes32"
        }
      ],
      "stateMutability": "view",
      "type": "function"
    },
    {
      "inputs": [
        {
          "internalType": "address",
          "name": "user",
          "type": "address"
        }
      ],
      "name": "getNonce",
      "outputs": [
        {
          "internalType": "uint256",
          "name": "nonce",
          "type": "uint256"
        }
      ],
      "stateMutability": "view",
      "type": "function"
    },
    {
      "inputs": [
        {
          "internalType": "address",
          "name": "_owner",
          "type": "address"
        },
        {
          "internalType": "address",
          "name": "_operator",
          "type": "address"
        }
      ],
      "name": "isApprovedForAll",
      "outputs": [
        {
          "internalType": "bool",
          "name": "isOperator",
          "type": "bool"
        }
      ],
      "stateMutability": "view",
      "type": "function"
    },
    {
      "inputs": [
        {
          "internalType": "address",
          "name": "_to",
          "type": "address"
        },
        {
          "internalType": "uint256",
          "name": "_optionId",
          "type": "uint256"
        },
        {
          "internalType": "uint256",
          "name": "_amount",
          "type": "uint256"
        },
        {
          "internalType": "bytes",
          "name": "_data",
          "type": "bytes"
        }
      ],
      "name": "mint",
      "outputs": [],
      "stateMutability": "nonpayable",
      "type": "function"
    },
    {
      "inputs": [],
      "name": "name",
      "outputs": [
        {
          "internalType": "string",
          "name": "",
          "type": "string"
        }
      ],
      "stateMutability": "view",
      "type": "function"
    },
    {
      "inputs": [],
      "name": "owner",
      "outputs": [
        {
          "internalType": "address",
          "name": "",
          "type": "address"
        }
      ],
      "stateMutability": "view",
      "type": "function"
    },
    {
      "inputs": [],
      "name": "renounceOwnership",
      "outputs": [],
      "stateMutability": "nonpayable",
      "type": "function"
    },
    {
      "inputs": [
        {
          "internalType": "address",
          "name": "from",
          "type": "address"
        },
        {
          "internalType": "address",
          "name": "to",
          "type": "address"
        },
        {
          "internalType": "uint256[]",
          "name": "ids",
          "type": "uint256[]"
        },
        {
          "internalType": "uint256[]",
          "name": "amounts",
          "type": "uint256[]"
        },
        {
          "internalType": "bytes",
          "name": "data",
          "type": "bytes"
        }
      ],
      "name": "safeBatchTransferFrom",
      "outputs": [],
      "stateMutability": "nonpayable",
      "type": "function"
    },
    {
      "inputs": [
        {
          "internalType": "address",
          "name": "from",
          "type": "address"
        },
        {
          "internalType": "address",
          "name": "to",
          "type": "address"
        },
        {
          "internalType": "uint256",
          "name": "id",
          "type": "uint256"
        },
        {
          "internalType": "uint256",
          "name": "amount",
          "type": "uint256"
        },
        {
          "internalType": "bytes",
          "name": "data",
          "type": "bytes"
        }
      ],
      "name": "safeTransferFrom",
      "outputs": [],
      "stateMutability": "nonpayable",
      "type": "function"
    },
    {
      "inputs": [
        {
          "internalType": "address",
          "name": "operator",
          "type": "address"
        },
        {
          "internalType": "bool",
          "name": "approved",
          "type": "bool"
        }
      ],
      "name": "setApprovalForAll",
      "outputs": [],
      "stateMutability": "nonpayable",
      "type": "function"
    },
    {
      "inputs": [
        {
          "internalType": "address",
          "name": "_to",
          "type": "address"
        },
        {
          "internalType": "uint256[]",
          "name": "_ids",
          "type": "uint256[]"
        }
      ],
      "name": "setCreator",
      "outputs": [],
      "stateMutability": "nonpayable",
      "type": "function"
    },
    {
      "inputs": [
        {
          "internalType": "uint256",
          "name": "_tokenId",
          "type": "uint256"
        },
        {
          "internalType": "string",
          "name": "_newURI",
          "type": "string"
        }
      ],
      "name": "setCustomURI",
      "outputs": [],
      "stateMutability": "nonpayable",
      "type": "function"
    },
    {
      "inputs": [
        {
          "internalType": "uint256",
          "name": "_option",
          "type": "uint256"
        },
        {
          "internalType": "uint256",
          "name": "_maxQuantityPerOpen",
          "type": "uint256"
        },
        {
          "internalType": "uint16[]",
          "name": "_classProbabilities",
          "type": "uint16[]"
        },
        {
          "internalType": "uint16[]",
          "name": "_guarantees",
          "type": "uint16[]"
        }
      ],
      "name": "setOptionSettings",
      "outputs": [],
      "stateMutability": "nonpayable",
      "type": "function"
    },
    {
      "inputs": [
        {
          "internalType": "address",
          "name": "_factoryAddress",
          "type": "address"
        },
        {
          "internalType": "uint256",
          "name": "_numOptions",
          "type": "uint256"
        },
        {
          "internalType": "uint256",
          "name": "_numClasses",
          "type": "uint256"
        },
        {
          "internalType": "uint256",
          "name": "_seed",
          "type": "uint256"
        }
      ],
      "name": "setState",
      "outputs": [],
      "stateMutability": "nonpayable",
      "type": "function"
    },
    {
      "inputs": [
        {
          "internalType": "uint256",
          "name": "_classId",
          "type": "uint256"
        },
        {
          "internalType": "uint256[]",
          "name": "_tokenIds",
          "type": "uint256[]"
        }
      ],
      "name": "setTokenIdsForClass",
      "outputs": [],
      "stateMutability": "nonpayable",
      "type": "function"
    },
    {
      "inputs": [
        {
          "internalType": "string",
          "name": "_newURI",
          "type": "string"
        }
      ],
      "name": "setURI",
      "outputs": [],
      "stateMutability": "nonpayable",
      "type": "function"
    },
    {
      "inputs": [
        {
          "internalType": "bytes4",
          "name": "interfaceId",
          "type": "bytes4"
        }
      ],
      "name": "supportsInterface",
      "outputs": [
        {
          "internalType": "bool",
          "name": "",
          "type": "bool"
        }
      ],
      "stateMutability": "view",
      "type": "function"
    },
    {
      "inputs": [],
      "name": "symbol",
      "outputs": [
        {
          "internalType": "string",
          "name": "",
          "type": "string"
        }
      ],
      "stateMutability": "view",
      "type": "function"
    },
    {
      "inputs": [
        {
          "internalType": "uint256",
          "name": "",
          "type": "uint256"
        }
      ],
      "name": "tokenSupply",
      "outputs": [
        {
          "internalType": "uint256",
          "name": "",
          "type": "uint256"
        }
      ],
      "stateMutability": "view",
      "type": "function"
    },
    {
      "inputs": [
        {
          "internalType": "uint256",
          "name": "_id",
          "type": "uint256"
        }
      ],
      "name": "totalSupply",
      "outputs": [
        {
          "internalType": "uint256",
          "name": "",
          "type": "uint256"
        }
      ],
      "stateMutability": "view",
      "type": "function"
    },
    {
      "inputs": [
        {
          "internalType": "address",
          "name": "newOwner",
          "type": "address"
        }
      ],
      "name": "transferOwnership",
      "outputs": [],
      "stateMutability": "nonpayable",
      "type": "function"
    },
    {
      "inputs": [
        {
          "internalType": "uint256",
          "name": "_optionId",
          "type": "uint256"
        },
        {
          "internalType": "address",
          "name": "_toAddress",
          "type": "address"
        },
        {
          "internalType": "uint256",
          "name": "_amount",
          "type": "uint256"
        }
      ],
      "name": "unpack",
      "outputs": [],
      "stateMutability": "nonpayable",
      "type": "function"
    },
    {
      "inputs": [
        {
          "internalType": "uint256",
          "name": "_id",
          "type": "uint256"
        }
      ],
      "name": "uri",
      "outputs": [
        {
          "internalType": "string",
          "name": "",
          "type": "string"
        }
      ],
      "stateMutability": "view",
      "type": "function"
    }
  ],
  "bytecode": {
    "object": "0x60806040526003805460ff191690553480156200001b57600080fd5b506040516200432f3803806200432f8339810160408190526200003e9162000374565b6040518060600160405280602381526020016200430c602391396040518060400160405280600881526020016713d4d0d05313d3d560c21b8152506040518060200160405280600081525083816200009c816200019b60201b60201c565b50620000b1620000ab620001ad565b620001be565b600b620000bf85826200044b565b50600c620000ce84826200044b565b50600780546001600160a01b0319166001600160a01b038316179055600b80546200018a9190620000ff90620003bc565b80601f01602080910402602001604051908101604052809291908181526020018280546200012d90620003bc565b80156200017e5780601f1062000152576101008083540402835291602001916200017e565b820191906000526020600020905b8154815290600101906020018083116200016057829003601f168201915b50506200021092505050565b50506001600d555062000517915050565b6002620001a982826200044b565b5050565b6000620001b962000274565b905090565b600680546001600160a01b038381166001600160a01b0319831681179093556040519116919082907f8be0079c531659141344cd1fd0a4f28419497f9722a3daafe3b4186f6b6457e090600090a35050565b60035460ff1615620002595760405162461bcd60e51b815260206004820152600e60248201526d185b1c9958591e481a5b9a5d195960921b604482015260640160405180910390fd5b6200026481620002d2565b506003805460ff19166001179055565b6000303303620002cc57600080368080601f0160208091040260200160405190810160405280939291908181526020018383808284376000920191909152505050503601516001600160a01b03169150620002cf9050565b50335b90565b6040518060800160405280604f8152602001620042bd604f9139805160209182012082519282019290922060408051808201825260018152603160f81b90840152805180840194909452838101919091527fc89efdaa54c0f20c7adf612882df0950f5a951637e0307cdcb4c672f298b8bc660608401523060808401524660a0808501919091528151808503909101815260c090930190528151910120600455565b6000602082840312156200038757600080fd5b81516001600160a01b03811681146200039f57600080fd5b9392505050565b634e487b7160e01b600052604160045260246000fd5b600181811c90821680620003d157607f821691505b602082108103620003f257634e487b7160e01b600052602260045260246000fd5b50919050565b601f8211156200044657600081815260208120601f850160051c81016020861015620004215750805b601f850160051c820191505b8181101562000442578281556001016200042d565b5050505b505050565b81516001600160401b03811115620004675762000467620003a6565b6200047f81620004788454620003bc565b84620003f8565b602080601f831160018114620004b757600084156200049e5750858301515b600019600386901b1c1916600185901b17855562000442565b600085815260208120601f198616915b82811015620004e857888601518255948401946001909101908401620004c7565b5085821015620005075787850151600019600388901b60f8161c191681555b5050505050600190811b01905550565b613d9680620005276000396000f3fe6080604052600436106101e25760003560e01c80634f558e7911610102578063bd85b03911610095578063f0fee98c11610064578063f0fee98c146105c5578063f242432a146105e5578063f2fde38b14610605578063f71882461461062557600080fd5b8063bd85b03914610522578063cd53d08e1461054f578063d2a6b51a14610585578063e985e9c5146105a557600080fd5b80638da5cb5b116100d15780638da5cb5b1461049b57806395d89b41146104cd578063a22cb465146104e2578063b48ab8b61461050257600080fd5b80634f558e791461042657806360ea279714610446578063715018a614610466578063731133e91461047b57600080fd5b806322629f9e1161017a5780633408e470116101495780633408e470146103a657806336a100d5146103b95780633adf80b4146103d95780634e1273f4146103f957600080fd5b806322629f9e146103035780632693ebf2146103235780632d0335ab146103505780632eb2c2d61461038657600080fd5b80630c53c51c116101b65780630c53c51c1461028e5780630e89341c146102a15780630f7e5970146102c157806320379ee5146102ee57600080fd5b8062fdd58e146101e757806301ffc9a71461021a57806302fe53051461024a57806306fdde031461026c575b600080fd5b3480156101f357600080fd5b50610207610202366004612d62565b610645565b6040519081526020015b60405180910390f35b34801561022657600080fd5b5061023a610235366004612da4565b6106df565b6040519015158152602001610211565b34801561025657600080fd5b5061026a610265366004612e76565b61072f565b005b34801561027857600080fd5b50610281610784565b6040516102119190612efa565b61028161029c366004612f0d565b610812565b3480156102ad57600080fd5b506102816102bc366004612f8a565b6109fc565b3480156102cd57600080fd5b50610281604051806040016040528060018152602001603160f81b81525081565b3480156102fa57600080fd5b50600454610207565b34801561030f57600080fd5b5061026a61031e366004612fa3565b610bca565b34801561032f57600080fd5b5061020761033e366004612f8a565b60096020526000908152604090205481565b34801561035c57600080fd5b5061020761036b366004612fde565b6001600160a01b031660009081526005602052604090205490565b34801561039257600080fd5b5061026a6103a136600461308f565b610ca1565b3480156103b257600080fd5b5046610207565b3480156103c557600080fd5b506102076103d436600461313c565b610d4a565b3480156103e557600080fd5b5061026a6103f4366004613195565b610eaa565b34801561040557600080fd5b506104196104143660046131db565b610f42565b60405161021191906132d8565b34801561043257600080fd5b5061023a610441366004612f8a565b61106b565b34801561045257600080fd5b5061026a610461366004613362565b61108a565b34801561047257600080fd5b5061026a611113565b34801561048757600080fd5b5061026a6104963660046133d8565b611168565b3480156104a757600080fd5b506006546001600160a01b03165b6040516001600160a01b039091168152602001610211565b3480156104d957600080fd5b50610281611283565b3480156104ee57600080fd5b5061026a6104fd36600461342e565b611290565b34801561050e57600080fd5b5061026a61051d36600461346c565b6112a6565b34801561052e57600080fd5b5061020761053d366004612f8a565b60009081526009602052604090205490565b34801561055b57600080fd5b506104b561056a366004612f8a565b6008602052600090815260409020546001600160a01b031681565b34801561059157600080fd5b5061026a6105a03660046134fa565b6113d6565b3480156105b157600080fd5b5061023a6105c036600461353f565b61148d565b3480156105d157600080fd5b5061026a6105e036600461356d565b61154d565b3480156105f157600080fd5b5061026a6106003660046135a5565b61157d565b34801561061157600080fd5b5061026a610620366004612fde565b611616565b34801561063157600080fd5b5061026a61064036600461360d565b6116cd565b60006001600160a01b0383166106b65760405162461bcd60e51b815260206004820152602b60248201527f455243313135353a2062616c616e636520717565727920666f7220746865207a60448201526a65726f206164647265737360a81b60648201526084015b60405180910390fd5b506000818152602081815260408083206001600160a01b03861684529091529020545b92915050565b60006001600160e01b03198216636cdb3d1360e11b148061071057506001600160e01b031982166303a24d0760e21b145b806106d957506301ffc9a760e01b6001600160e01b03198316146106d9565b610737611786565b6001600160a01b03166107526006546001600160a01b031690565b6001600160a01b0316146107785760405162461bcd60e51b81526004016106ad9061363d565b61078181611795565b50565b600b805461079190613672565b80601f01602080910402602001604051908101604052809291908181526020018280546107bd90613672565b801561080a5780601f106107df5761010080835404028352916020019161080a565b820191906000526020600020905b8154815290600101906020018083116107ed57829003601f168201915b505050505081565b60408051606081810183526001600160a01b0388166000818152600560209081529085902054845283015291810186905261085087828787876117a1565b6108a65760405162461bcd60e51b815260206004820152602160248201527f5369676e657220616e64207369676e617475726520646f206e6f74206d6174636044820152600d60fb1b60648201526084016106ad565b6001600160a01b0387166000908152600560205260409020546108ca906001611891565b6001600160a01b0388166000908152600560205260409081902091909155517f5845892132946850460bff5a0083f71031bc5bf9aadcd40f1de79423eac9b10b9061091a90899033908a906136a6565b60405180910390a1600080306001600160a01b0316888a6040516020016109429291906136db565b60408051601f198184030181529082905261095c91613712565b6000604051808303816000865af19150503d8060008114610999576040519150601f19603f3d011682016040523d82523d6000602084013e61099e565b606091505b5091509150816109f05760405162461bcd60e51b815260206004820152601c60248201527f46756e6374696f6e2063616c6c206e6f74207375636365737366756c0000000060448201526064016106ad565b98975050505050505050565b6000818152600860205260409020546060906001600160a01b0316610a725760405162461bcd60e51b815260206004820152602660248201527f455243313135355472616461626c65237572693a204e4f4e4558495354454e546044820152652faa27a5a2a760d11b60648201526084016106ad565b6000828152600a602052604081208054610a8b90613672565b80601f0160208091040260200160405190810160405280929190818152602001828054610ab790613672565b8015610b045780601f10610ad957610100808354040283529160200191610b04565b820191906000526020600020905b815481529060010190602001808311610ae757829003601f168201915b50505050509050600081511115610bb4576000838152600a602052604090208054610b2e90613672565b80601f0160208091040260200160405190810160405280929190818152602001828054610b5a90613672565b8015610ba75780601f10610b7c57610100808354040283529160200191610ba7565b820191906000526020600020905b815481529060010190602001808311610b8a57829003601f168201915b5050505050915050919050565b610bbd8361189d565b9392505050565b50919050565b610bd2611786565b6001600160a01b0316610bed6006546001600160a01b031690565b6001600160a01b031614610c135760405162461bcd60e51b81526004016106ad9061363d565b604051636306b42b60e01b8152600e60048201526001600160a01b038516602482015260448101849052606481018390526084810182905273__$0bb950f4aaea5ac6428b53f217b373f560$__90636306b42b9060a4015b60006040518083038186803b158015610c8357600080fd5b505af4158015610c97573d6000803e3d6000fd5b5050505050505050565b610ca9611786565b6001600160a01b0316856001600160a01b03161480610ccf5750610ccf856105c0611786565b610d365760405162461bcd60e51b815260206004820152603260248201527f455243313135353a207472616e736665722063616c6c6572206973206e6f74206044820152711bdddb995c881b9bdc88185c1c1c9bdd995960721b60648201526084016106ad565b610d438585858585611931565b5050505050565b6000610d54611786565b6001600160a01b0316610d6f6006546001600160a01b031690565b6001600160a01b031614610d955760405162461bcd60e51b81526004016106ad9061363d565b6000858152600860205260409020546001600160a01b031615610dfa5760405162461bcd60e51b815260206004820152601860248201527f746f6b656e205f696420616c726561647920657869737473000000000000000060448201526064016106ad565b610e02611786565b600086815260086020526040902080546001600160a01b0319166001600160a01b0392909216919091179055825115610e87576000858152600a60205260409020610e4d8482613774565b50847f6bb7ff708619ba0610cba295a58592e0451dee2622938c8755667688daf3529b84604051610e7e9190612efa565b60405180910390a25b610e9386868685611ad0565b505050600082815260096020526040902055919050565b81610eb3611786565b6000828152600860205260409020546001600160a01b03908116911614610eec5760405162461bcd60e51b81526004016106ad90613833565b6000838152600a60205260409020610f048382613774565b50827f6bb7ff708619ba0610cba295a58592e0451dee2622938c8755667688daf3529b83604051610f359190612efa565b60405180910390a2505050565b60608151835114610fa75760405162461bcd60e51b815260206004820152602960248201527f455243313135353a206163636f756e747320616e6420696473206c656e677468604482015268040dad2e6dac2e8c6d60bb1b60648201526084016106ad565b600083516001600160401b03811115610fc257610fc2612dc1565b604051908082528060200260200182016040528015610feb578160200160208202803683370190505b50905060005b84518110156110635761103685828151811061100f5761100f613884565b602002602001015185838151811061102957611029613884565b6020026020010151610645565b82828151811061104857611048613884565b602090810291909101015261105c816138b0565b9050610ff1565b509392505050565b6000818152600860205260408120546001600160a01b031615156106d9565b611092611786565b6001600160a01b03166110ad6006546001600160a01b031690565b6001600160a01b0316146110d35760405162461bcd60e51b81526004016106ad9061363d565b60405163b13d6c3560e01b815273__$0bb950f4aaea5ac6428b53f217b373f560$__9063b13d6c3590610c6b90600e9088908890889088906004016138fd565b61111b611786565b6001600160a01b03166111366006546001600160a01b031690565b6001600160a01b03161461115c5760405162461bcd60e51b81526004016106ad9061363d565b6111666000611b04565b565b6002600d54036111ba5760405162461bcd60e51b815260206004820152601f60248201527f5265656e7472616e637947756172643a207265656e7472616e742063616c6c0060448201526064016106ad565b6002600d556111cf6111ca611786565b611b56565b61121b5760405162461bcd60e51b815260206004820152601c60248201527f4c6f6f74626f783a206f776e6572206f722070726f7879206f6e6c790000000060448201526064016106ad565b600f54831061126c5760405162461bcd60e51b815260206004820152601760248201527f4c6f6f74626f783a20496e76616c6964204f7074696f6e00000000000000000060448201526064016106ad565b61127884848484611ad0565b50506001600d555050565b600c805461079190613672565b6112a261129b611786565b8383611c30565b5050565b60005b83518110156113c35760008482815181106112c6576112c6613884565b602002602001015190506112d8611786565b6000828152600860205260409020546001600160a01b039081169116146113595760405162461bcd60e51b815260206004820152602f60248201527f455243313135355472616461626c652362617463684d696e743a204f4e4c595f60448201526e10d491505513d497d0531313d5d151608a1b60648201526084016106ad565b600084838151811061136d5761136d613884565b6020026020010151905061139d81600960008581526020019081526020016000205461189190919063ffffffff16565b6000928352600960205260409092209190915550806113bb816138b0565b9150506112a9565b506113d084848484611d10565b50505050565b6001600160a01b0382166114415760405162461bcd60e51b815260206004820152602c60248201527f455243313135355472616461626c652373657443726561746f723a20494e564160448201526b2624a22fa0a2222922a9a99760a11b60648201526084016106ad565b60005b815181101561148857600082828151811061146157611461613884565b602002602001015190506114758482611e66565b5080611480816138b0565b915050611444565b505050565b60075460405163c455279160e01b81526001600160a01b03848116600483015260009281169190841690829063c455279190602401602060405180830381865afa1580156114df573d6000803e3d6000fd5b505050506040513d601f19601f820116820180604052508101906115039190613934565b6001600160a01b03160361151b5760019150506106d9565b6001600160a01b0380851660009081526001602090815260408083209387168352929052205460ff165b949350505050565b61155f611558611786565b8483611ed7565b611488600e848484604051806020016040528060008152503061205c565b611585611786565b6001600160a01b0316856001600160a01b031614806115ab57506115ab856105c0611786565b6116095760405162461bcd60e51b815260206004820152602960248201527f455243313135353a2063616c6c6572206973206e6f74206f776e6572206e6f7260448201526808185c1c1c9bdd995960ba1b60648201526084016106ad565b610d438585858585612375565b61161e611786565b6001600160a01b03166116396006546001600160a01b031690565b6001600160a01b03161461165f5760405162461bcd60e51b81526004016106ad9061363d565b6001600160a01b0381166116c45760405162461bcd60e51b815260206004820152602660248201527f4f776e61626c653a206e6577206f776e657220697320746865207a65726f206160448201526564647265737360d01b60648201526084016106ad565b61078181611b04565b6116d5611786565b6001600160a01b03166116f06006546001600160a01b031690565b6001600160a01b0316146117165760405162461bcd60e51b81526004016106ad9061363d565b60405163195f3e8960e21b815273__$0bb950f4aaea5ac6428b53f217b373f560$__9063657cfa249061175290600e9086908690600401613951565b60006040518083038186803b15801561176a57600080fd5b505af415801561177e573d6000803e3d6000fd5b505050505050565b60006117906124a6565b905090565b60026112a28282613774565b60006001600160a01b0386166118075760405162461bcd60e51b815260206004820152602560248201527f4e61746976654d6574615472616e73616374696f6e3a20494e56414c49445f5360448201526424a3a722a960d91b60648201526084016106ad565b600161181a61181587612502565b61257f565b6040805160008152602081018083529290925260ff851690820152606081018690526080810185905260a0016020604051602081039080840390855afa158015611868573d6000803e3d6000fd5b505050602060405103516001600160a01b0316866001600160a01b031614905095945050505050565b6000610bbd82846139a6565b6060600280546118ac90613672565b80601f01602080910402602001604051908101604052809291908181526020018280546118d890613672565b80156119255780601f106118fa57610100808354040283529160200191611925565b820191906000526020600020905b81548152906001019060200180831161190857829003601f168201915b50505050509050919050565b81518351146119525760405162461bcd60e51b81526004016106ad906139b9565b6001600160a01b0384166119785760405162461bcd60e51b81526004016106ad90613a01565b6000611982611786565b905060005b8451811015611a6a5760008582815181106119a4576119a4613884565b6020026020010151905060008583815181106119c2576119c2613884565b602090810291909101810151600084815280835260408082206001600160a01b038e168352909352919091205490915081811015611a125760405162461bcd60e51b81526004016106ad90613a46565b6000838152602081815260408083206001600160a01b038e8116855292528083208585039055908b16825281208054849290611a4f9084906139a6565b9250508190555050505080611a63906138b0565b9050611987565b50846001600160a01b0316866001600160a01b0316826001600160a01b03167f4a39dc06d4c0dbc64b70af90fd698a233a518aa5d07e595d983b8c0526c8f7fb8787604051611aba929190613a90565b60405180910390a461177e8187878787876125af565b600083815260096020526040902054611ae99083611891565b6000848152600960205260409020556113d08484848461270a565b600680546001600160a01b038381166001600160a01b0319831681179093556040519116919082907f8be0079c531659141344cd1fd0a4f28419497f9722a3daafe3b4186f6b6457e090600090a35050565b6007546000906001600160a01b03908116908316611b7c6006546001600160a01b031690565b6001600160a01b03161480610bbd5750826001600160a01b0316816001600160a01b031663c4552791611bb76006546001600160a01b031690565b6040516001600160e01b031960e084901b1681526001600160a01b039091166004820152602401602060405180830381865afa158015611bfb573d6000803e3d6000fd5b505050506040513d601f19601f82011682018060405250810190611c1f9190613934565b6001600160a01b0316149392505050565b816001600160a01b0316836001600160a01b031603611ca35760405162461bcd60e51b815260206004820152602960248201527f455243313135353a2073657474696e6720617070726f76616c20737461747573604482015268103337b91039b2b63360b91b60648201526084016106ad565b6001600160a01b03838116600081815260016020908152604080832094871680845294825291829020805460ff191686151590811790915591519182527f17307eab39ab6107e8899845ad3d59bd9653f200f220920489ca2b5937696c31910160405180910390a3505050565b6001600160a01b038416611d365760405162461bcd60e51b81526004016106ad90613ab5565b8151835114611d575760405162461bcd60e51b81526004016106ad906139b9565b6000611d61611786565b905060005b8451811015611dfe57838181518110611d8157611d81613884565b6020026020010151600080878481518110611d9e57611d9e613884565b602002602001015181526020019081526020016000206000886001600160a01b03166001600160a01b031681526020019081526020016000206000828254611de691906139a6565b90915550819050611df6816138b0565b915050611d66565b50846001600160a01b031660006001600160a01b0316826001600160a01b03167f4a39dc06d4c0dbc64b70af90fd698a233a518aa5d07e595d983b8c0526c8f7fb8787604051611e4f929190613a90565b60405180910390a4610d43816000878787876125af565b80611e6f611786565b6000828152600860205260409020546001600160a01b03908116911614611ea85760405162461bcd60e51b81526004016106ad90613833565b50600090815260086020526040902080546001600160a01b0319166001600160a01b0392909216919091179055565b6001600160a01b038316611f395760405162461bcd60e51b815260206004820152602360248201527f455243313135353a206275726e2066726f6d20746865207a65726f206164647260448201526265737360e81b60648201526084016106ad565b6000611f43611786565b9050611f7481856000611f55876127dc565b611f5e876127dc565b5050604080516020810190915260009052505050565b6000838152602081815260408083206001600160a01b038816845290915290205482811015611ff15760405162461bcd60e51b8152602060048201526024808201527f455243313135353a206275726e20616d6f756e7420657863656564732062616c604482015263616e636560e01b60648201526084016106ad565b6000848152602081815260408083206001600160a01b03898116808652918452828520888703905582518981529384018890529092908616917fc3d58168c5ae7397731d063d5bbf3d657854427343f4c083240f7aacaa2d0f62910160405180910390a45050505050565b856001015485106120a65760405162461bcd60e51b81526020600482015260146024820152735f6f7074696f6e206f7574206f662072616e676560601b60448201526064016106ad565b60008581526003870160209081526040808320815160808101835281548152600182018054845181870281018701909552808552919492938584019390929083018282801561213c57602002820191906000526020600020906000905b82829054906101000a900461ffff1661ffff16815260200190600201906020826001010492830192600103820291508084116121035790505b5050509183525050600282015460ff16151560208083019190915260038301805460408051828502810185018252828152940193928301828280156121c857602002820191906000526020600020906000905b82829054906101000a900461ffff1661ffff168152602001906002019060208260010104928301926001038202915080841161218f5790505b5050505050815250509050600081600001511161223b5760405162461bcd60e51b815260206004820152602b60248201527f4c6f6f74426f7852616e646f6d6e657373235f6d696e743a204f5054494f4e5f60448201526a1393d517d0531313d5d15160aa1b60648201526084016106ad565b6000805b858110156123245760008360400151156122c25760005b8460600151518110156122c05760008560600151828151811061227b5761227b613884565b602002602001015161ffff16905060008111156122ad5761229f8c838c848b612827565b506122aa81846139a6565b92505b50806122b8816138b0565b915050612256565b505b83518110156123045760006001905060006122e18c8760200151612912565b90506122f08c828c858b612827565b506122fb82846139a6565b925050506122c2565b61230e81846139a6565b925050808061231c906138b0565b91505061223f565b5060408051868152602081018390526001600160a01b0388169189917fd8c55eae4f6ffa3dfbfba23f50cb5e242e86d347736fe1b910ad11bff616d839910160405180910390a35050505050505050565b6001600160a01b03841661239b5760405162461bcd60e51b81526004016106ad90613a01565b60006123a5611786565b90506123bf8187876123b6886127dc565b610d43886127dc565b6000848152602081815260408083206001600160a01b038a168452909152902054838110156124005760405162461bcd60e51b81526004016106ad90613a46565b6000858152602081815260408083206001600160a01b038b811685529252808320878503905590881682528120805486929061243d9084906139a6565b909155505060408051868152602081018690526001600160a01b03808916928a821692918616917fc3d58168c5ae7397731d063d5bbf3d657854427343f4c083240f7aacaa2d0f62910160405180910390a461249d8288888888886129a7565b50505050505050565b60003033036124fc57600080368080601f0160208091040260200160405190810160405280939291908181526020018383808284376000920191909152505050503601516001600160a01b031691506124ff9050565b50335b90565b6000604051806080016040528060438152602001613d1e6043913980516020918201208351848301516040808701518051908601209051612562950193845260208401929092526001600160a01b03166040830152606082015260800190565b604051602081830303815290604052805190602001209050919050565b600061258a60045490565b60405161190160f01b6020820152602281019190915260428101839052606201612562565b6001600160a01b0384163b1561177e5760405163bc197c8160e01b81526001600160a01b0385169063bc197c81906125f39089908990889088908890600401613af6565b6020604051808303816000875af192505050801561262e575060408051601f3d908101601f1916820190925261262b91810190613b48565b60015b6126da5761263a613b65565b806308c379a003612673575061264e613b80565b806126595750612675565b8060405162461bcd60e51b81526004016106ad9190612efa565b505b60405162461bcd60e51b815260206004820152603460248201527f455243313135353a207472616e7366657220746f206e6f6e20455243313135356044820152732932b1b2b4bb32b91034b6b83632b6b2b73a32b960611b60648201526084016106ad565b6001600160e01b0319811663bc197c8160e01b1461249d5760405162461bcd60e51b81526004016106ad90613c09565b6001600160a01b0384166127305760405162461bcd60e51b81526004016106ad90613ab5565b600061273a611786565b905061274c816000876123b6886127dc565b6000848152602081815260408083206001600160a01b03891684529091528120805485929061277c9084906139a6565b909155505060408051858152602081018590526001600160a01b0380881692600092918516917fc3d58168c5ae7397731d063d5bbf3d657854427343f4c083240f7aacaa2d0f62910160405180910390a4610d43816000878787876129a7565b6040805160018082528183019092526060916000919060208083019080368337019050509050828160008151811061281657612816613884565b602090810291909101015292915050565b6000856002015485106128725760405162461bcd60e51b81526020600482015260136024820152725f636c617373206f7574206f662072616e676560681b60448201526064016106ad565b85546001600160a01b0316600061288b88888787612a62565b6040516363bdb36160e11b8152600481018290526001600160a01b0388811660248301526044820188905260806064830152600060848301529192509083169063c77b66c29060a401600060405180830381600087803b1580156128ee57600080fd5b505af1158015612902573d6000803e3d6000fd5b50929a9950505050505050505050565b60008061292a61271061292486612cdd565b90612d41565b905060006001845161293c9190613c51565b90505b801561299c57600084828151811061295957612959613884565b602002602001015190508061ffff168361ffff16101561297d575091506106d99050565b6129878184613c64565b9250508061299481613c86565b91505061293f565b506000949350505050565b6001600160a01b0384163b1561177e5760405163f23a6e6160e01b81526001600160a01b0385169063f23a6e61906129eb9089908990889088908890600401613c9d565b6020604051808303816000875af1925050508015612a26575060408051601f3d908101601f19168201909252612a2391810190613b48565b60015b612a325761263a613b65565b6001600160e01b0319811663f23a6e6160e01b1461249d5760405162461bcd60e51b81526004016106ad90613c09565b600084600201548410612aad5760405162461bcd60e51b81526020600482015260136024820152725f636c617373206f7574206f662072616e676560681b60448201526064016106ad565b6000848152600486016020908152604080832080548251818502810185019093528083529192909190830182828015612b0557602002820191906000526020600020905b815481526020019060010190808311612af1575b505050505090506000815111612b5d5760405162461bcd60e51b815260206004820152601960248201527f4e6f20746f6b656e2069647320666f72205f636c61737349640000000000000060448201526064016106ad565b6000612b6d825161292489612cdd565b87549091506001600160a01b0316815b8351612b8990846139a6565b811015612c5357600084855183612ba09190613ce2565b81518110612bb057612bb0613884565b6020908102919091010151604051627eeac760e11b81526001600160a01b03898116600483015260248201839052919250899185169062fdd58e90604401602060405180830381865afa158015612c0b573d6000803e3d6000fd5b505050506040513d601f19601f82011682018060405250810190612c2f9190613d04565b10612c405794506115459350505050565b5080612c4b816138b0565b915050612b7d565b5060405162461bcd60e51b815260206004820152605260248201527f4c6f6f74426f7852616e646f6d6e657373235f7069636b52616e646f6d41766160448201527f696c61626c65546f6b656e4964466f72436c6173733a204e4f545f454e4f5547606482015271485f544f4b454e535f464f525f434c41535360701b608482015260a4016106ad565b600080612ceb600143613c51565b600584015460408051924060208401526bffffffffffffffffffffffff193360601b1690830152605482015260740160408051601f19818403018152919052805160209091012060059093018390555090919050565b6000610bbd8284613ce2565b6001600160a01b038116811461078157600080fd5b60008060408385031215612d7557600080fd5b8235612d8081612d4d565b946020939093013593505050565b6001600160e01b03198116811461078157600080fd5b600060208284031215612db657600080fd5b8135610bbd81612d8e565b634e487b7160e01b600052604160045260246000fd5b601f8201601f191681016001600160401b0381118282101715612dfc57612dfc612dc1565b6040525050565b600082601f830112612e1457600080fd5b81356001600160401b03811115612e2d57612e2d612dc1565b604051612e44601f8301601f191660200182612dd7565b818152846020838601011115612e5957600080fd5b816020850160208301376000918101602001919091529392505050565b600060208284031215612e8857600080fd5b81356001600160401b03811115612e9e57600080fd5b61154584828501612e03565b60005b83811015612ec5578181015183820152602001612ead565b50506000910152565b60008151808452612ee6816020860160208601612eaa565b601f01601f19169290920160200192915050565b602081526000610bbd6020830184612ece565b600080600080600060a08688031215612f2557600080fd5b8535612f3081612d4d565b945060208601356001600160401b03811115612f4b57600080fd5b612f5788828901612e03565b9450506040860135925060608601359150608086013560ff81168114612f7c57600080fd5b809150509295509295909350565b600060208284031215612f9c57600080fd5b5035919050565b60008060008060808587031215612fb957600080fd5b8435612fc481612d4d565b966020860135965060408601359560600135945092505050565b600060208284031215612ff057600080fd5b8135610bbd81612d4d565b60006001600160401b0382111561301457613014612dc1565b5060051b60200190565b600082601f83011261302f57600080fd5b8135602061303c82612ffb565b6040516130498282612dd7565b83815260059390931b850182019282810191508684111561306957600080fd5b8286015b84811015613084578035835291830191830161306d565b509695505050505050565b600080600080600060a086880312156130a757600080fd5b85356130b281612d4d565b945060208601356130c281612d4d565b935060408601356001600160401b03808211156130de57600080fd5b6130ea89838a0161301e565b9450606088013591508082111561310057600080fd5b61310c89838a0161301e565b9350608088013591508082111561312257600080fd5b5061312f88828901612e03565b9150509295509295909350565b600080600080600060a0868803121561315457600080fd5b853561315f81612d4d565b9450602086013593506040860135925060608601356001600160401b038082111561318957600080fd5b61310c89838a01612e03565b600080604083850312156131a857600080fd5b8235915060208301356001600160401b038111156131c557600080fd5b6131d185828601612e03565b9150509250929050565b600080604083850312156131ee57600080fd5b82356001600160401b038082111561320557600080fd5b818501915085601f83011261321957600080fd5b8135602061322682612ffb565b6040516132338282612dd7565b83815260059390931b850182019282810191508984111561325357600080fd5b948201945b8386101561327a57853561326b81612d4d565b82529482019490820190613258565b9650508601359250508082111561329057600080fd5b506131d18582860161301e565b600081518084526020808501945080840160005b838110156132cd578151875295820195908201906001016132b1565b509495945050505050565b602081526000610bbd602083018461329d565b600082601f8301126132fc57600080fd5b8135602061330982612ffb565b6040516133168282612dd7565b83815260059390931b850182019282810191508684111561333657600080fd5b8286015b8481101561308457803561ffff811681146133555760008081fd5b835291830191830161333a565b6000806000806080858703121561337857600080fd5b843593506020850135925060408501356001600160401b038082111561339d57600080fd5b6133a9888389016132eb565b935060608701359150808211156133bf57600080fd5b506133cc878288016132eb565b91505092959194509250565b600080600080608085870312156133ee57600080fd5b84356133f981612d4d565b9350602085013592506040850135915060608501356001600160401b0381111561342257600080fd5b6133cc87828801612e03565b6000806040838503121561344157600080fd5b823561344c81612d4d565b91506020830135801515811461346157600080fd5b809150509250929050565b6000806000806080858703121561348257600080fd5b843561348d81612d4d565b935060208501356001600160401b03808211156134a957600080fd5b6134b58883890161301e565b945060408701359150808211156134cb57600080fd5b6134d78883890161301e565b935060608701359150808211156134ed57600080fd5b506133cc87828801612e03565b6000806040838503121561350d57600080fd5b823561351881612d4d565b915060208301356001600160401b0381111561353357600080fd5b6131d18582860161301e565b6000806040838503121561355257600080fd5b823561355d81612d4d565b9150602083013561346181612d4d565b60008060006060848603121561358257600080fd5b83359250602084013561359481612d4d565b929592945050506040919091013590565b600080600080600060a086880312156135bd57600080fd5b85356135c881612d4d565b945060208601356135d881612d4d565b9350604086013592506060860135915060808601356001600160401b0381111561360157600080fd5b61312f88828901612e03565b6000806040838503121561362057600080fd5b8235915060208301356001600160401b0381111561353357600080fd5b6020808252818101527f4f776e61626c653a2063616c6c6572206973206e6f7420746865206f776e6572604082015260600190565b600181811c9082168061368657607f821691505b602082108103610bc457634e487b7160e01b600052602260045260246000fd5b6001600160a01b038481168252831660208201526060604082018190526000906136d290830184612ece565b95945050505050565b600083516136ed818460208801612eaa565b60609390931b6bffffffffffffffffffffffff19169190920190815260140192915050565b60008251613724818460208701612eaa565b9190910192915050565b601f82111561148857600081815260208120601f850160051c810160208610156137555750805b601f850160051c820191505b8181101561177e57828155600101613761565b81516001600160401b0381111561378d5761378d612dc1565b6137a18161379b8454613672565b8461372e565b602080601f8311600181146137d657600084156137be5750858301515b600019600386901b1c1916600185901b17855561177e565b600085815260208120601f198616915b82811015613805578886015182559484019460019091019084016137e6565b50858210156138235787850151600019600388901b60f8161c191681555b5050505050600190811b01905550565b60208082526031908201527f455243313135355472616461626c652363726561746f724f6e6c793a204f4e4c6040820152701657d0d491505513d497d0531313d5d151607a1b606082015260800190565b634e487b7160e01b600052603260045260246000fd5b634e487b7160e01b600052601160045260246000fd5b6000600182016138c2576138c261389a565b5060010190565b600081518084526020808501945080840160005b838110156132cd57815161ffff16875295820195908201906001016138dd565b85815284602082015283604082015260a06060820152600061392260a08301856138c9565b82810360808401526109f081856138c9565b60006020828403121561394657600080fd5b8151610bbd81612d4d565b6000606082018583526020858185015260606040850152818551808452608086019150828701935060005b818110156139985784518352938301939183019160010161397c565b509098975050505050505050565b808201808211156106d9576106d961389a565b60208082526028908201527f455243313135353a2069647320616e6420616d6f756e7473206c656e677468206040820152670dad2e6dac2e8c6d60c31b606082015260800190565b60208082526025908201527f455243313135353a207472616e7366657220746f20746865207a65726f206164604082015264647265737360d81b606082015260800190565b6020808252602a908201527f455243313135353a20696e73756666696369656e742062616c616e636520666f60408201526939103a3930b739b332b960b11b606082015260800190565b604081526000613aa3604083018561329d565b82810360208401526136d2818561329d565b60208082526021908201527f455243313135353a206d696e7420746f20746865207a65726f206164647265736040820152607360f81b606082015260800190565b6001600160a01b0386811682528516602082015260a060408201819052600090613b229083018661329d565b8281036060840152613b34818661329d565b905082810360808401526109f08185612ece565b600060208284031215613b5a57600080fd5b8151610bbd81612d8e565b600060033d11156124ff5760046000803e5060005160e01c90565b600060443d1015613b8e5790565b6040516003193d81016004833e81513d6001600160401b038160248401118184111715613bbd57505050505090565b8285019150815181811115613bd55750505050505090565b843d8701016020828501011115613bef5750505050505090565b613bfe60208286010187612dd7565b509095945050505050565b60208082526028908201527f455243313135353a204552433131353552656365697665722072656a656374656040820152676420746f6b656e7360c01b606082015260800190565b818103818111156106d9576106d961389a565b61ffff828116828216039080821115613c7f57613c7f61389a565b5092915050565b600081613c9557613c9561389a565b506000190190565b6001600160a01b03868116825285166020820152604081018490526060810183905260a060808201819052600090613cd790830184612ece565b979650505050505050565b600082613cff57634e487b7160e01b600052601260045260246000fd5b500690565b600060208284031215613d1657600080fd5b505191905056fe4d6574615472616e73616374696f6e2875696e74323536206e6f6e63652c616464726573732066726f6d2c62797465732066756e6374696f6e5369676e617475726529a26469706673582212202438046acb0c4e5b128b44732863641b771599457328b7e34ad79a003e26ba3d64736f6c63430008140033454950373132446f6d61696e28737472696e67206e616d652c737472696e672076657273696f6e2c6164647265737320766572696679696e67436f6e74726163742c627974657333322073616c74294f70656e536561204372656174757265204163636573736f7279204c6f6f7420426f78",
    "linkReferences": {
      "contracts/LootBoxRandomness.sol": {
        "LootBoxRandomness": [
          {
            "start": 4468,
            "length": 20
          },
          {
            "start": 5641,
            "length": 20
          },
          {
            "start": 7244,
            "length": 20
          }
        ]
      }
    }
  },
  "methodIdentifiers": {
    "ERC712_VERSION()": "0f7e5970",
    "balanceOf(address,uint256)": "00fdd58e",
    "balanceOfBatch(address[],uint256[])": "4e1273f4",
    "batchMint(address,uint256[],uint256[],bytes)": "b48ab8b6",
    "create(address,uint256,uint256,string,bytes)": "36a100d5",
    "creators(uint256)": "cd53d08e",
    "executeMetaTransaction(address,bytes,bytes32,bytes32,uint8)": "0c53c51c",
    "exists(uint256)": "4f558e79",
    "getChainId()": "3408e470",
    "getDomainSeperator()": "20379ee5",
    "getNonce(address)": "2d0335ab",
    "isApprovedForAll(address,address)": "e985e9c5",
    "mint(address,uint256,uint256,bytes)": "731133e9",
    "name()": "06fdde03",
    "owner()": "8da5cb5b",
    "renounceOwnership()": "715018a6",
    "safeBatchTransferFrom(address,address,uint256[],uint256[],bytes)": "2eb2c2d6",
    "safeTransferFrom(address,address,uint256,uint256,bytes)": "f242432a",
    "setApprovalForAll(address,bool)": "a22cb465",
    "setCreator(address,uint256[])": "d2a6b51a",
    "setCustomURI(uint256,string)": "3adf80b4",
    "setOptionSettings(uint256,uint256,uint16[],uint16[])": "60ea2797",
    "setState(address,uint256,uint256,uint256)": "22629f9e",
    "setTokenIdsForClass(uint256,uint256[])": "f7188246",
    "setURI(string)": "02fe5305",
    "supportsInterface(bytes4)": "01ffc9a7",
    "symbol()": "95d89b41",
    "tokenSupply(uint256)": "2693ebf2",
    "totalSupply(uint256)": "bd85b039",
    "transferOwnership(address)": "f2fde38b",
    "unpack(uint256,address,uint256)": "f0fee98c",
    "uri(uint256)": "0e89341c"
  },
  "id": 3
}