{
  "abi": [
    {
      "inputs": [],
      "stateMutability": "nonpayable",
      "type": "constructor"
    },
    {
      "inputs": [],
      "name": "factoryAddress",
      "outputs": [
        {
          "internalType": "address",
          "name": "",
          "type": "address"
        }
      ],
      "stateMutability": "view",
      "type": "function"
    },
    {
      "inputs": [
        {
          "internalType": "address",
          "name": "",
          "type": "address"
        },
        {
          "internalType": "address",
          "name": "",
          "type": "address"
        },
        {
          "internalType": "uint256[]",
          "name": "",
          "type": "uint256[]"
        },
        {
          "internalType": "uint256[]",
          "name": "",
          "type": "uint256[]"
        },
        {
          "internalType": "bytes",
          "name": "",
          "type": "bytes"
        }
      ],
      "name": "onERC1155BatchReceived",
      "outputs": [
        {
          "internalType": "bytes4",
          "name": "",
          "type": "bytes4"
        }
      ],
      "stateMutability": "pure",
      "type": "function"
    },
    {
      "inputs": [
        {
          "internalType": "address",
          "name": "",
          "type": "address"
        },
        {
          "internalType": "address",
          "name": "",
          "type": "address"
        },
        {
          "internalType": "uint256",
          "name": "_id",
          "type": "uint256"
        },
        {
          "internalType": "uint256",
          "name": "",
          "type": "uint256"
        },
        {
          "internalType": "bytes",
          "name": "",
          "type": "bytes"
        }
      ],
      "name": "onERC1155Received",
      "outputs": [
        {
          "internalType": "bytes4",
          "name": "",
          "type": "bytes4"
        }
      ],
      "stateMutability": "nonpayable",
      "type": "function"
    },
    {
      "inputs": [
        {
          "internalType": "address",
          "name": "_factoryAddress",
          "type": "address"
        }
      ],
      "name": "setFactoryAddress",
      "outputs": [],
      "stateMutability": "nonpayable",
      "type": "function"
    },
    {
      "inputs": [
        {
          "internalType": "bytes4",
          "name": "interfaceID",
          "type": "bytes4"
        }
      ],
      "name": "supportsInterface",
      "outputs": [
        {
          "internalType": "bool",
          "name": "",
          "type": "bool"
        }
      ],
      "stateMutability": "pure",
      "type": "function"
    }
  ],
  "bytecode": {
    "object": "0x608060405234801561001057600080fd5b5061058f806100206000396000f3fe608060405234801561001057600080fd5b50600436106100575760003560e01c806301ffc9a71461005c57806383c17c5514610084578063966dae0e146100bb578063bc197c81146100e6578063f23a6e611461011e575b600080fd5b61006f61006a36600461026b565b610131565b60405190151581526020015b60405180910390f35b6100b96100923660046102b8565b600080546001600160a01b0319166001600160a01b03929092169190911790556003600155565b005b6000546100ce906001600160a01b031681565b6040516001600160a01b03909116815260200161007b565b6101056100f436600461039a565b63bc197c8160e01b95945050505050565b6040516001600160e01b0319909116815260200161007b565b61010561012c36600461049a565b610168565b60006001600160e01b031982166301ffc9a760e01b148061016257506001600160e01b03198216630271189760e51b145b92915050565b604051627eeac760e11b8152306004820152602481018590526000908190339062fdd58e90604401602060405180830381865afa1580156101ad573d6000803e3d6000fd5b505050506040513d601f19601f820116820180604052508101906101d19190610540565b905060015481101561025757600080546040516363bdb36160e11b815260016004820181905230602483015260448201526080606482015260848101929092526001600160a01b03169063c77b66c29060a401600060405180830381600087803b15801561023e57600080fd5b505af1158015610252573d6000803e3d6000fd5b505050505b5063f23a6e6160e01b979650505050505050565b60006020828403121561027d57600080fd5b81356001600160e01b03198116811461029557600080fd5b9392505050565b80356001600160a01b03811681146102b357600080fd5b919050565b6000602082840312156102ca57600080fd5b6102958261029c565b634e487b7160e01b600052604160045260246000fd5b604051601f8201601f1916810167ffffffffffffffff81118282101715610312576103126102d3565b604052919050565b600082601f83011261032b57600080fd5b8135602067ffffffffffffffff821115610347576103476102d3565b8160051b6103568282016102e9565b928352848101820192828101908785111561037057600080fd5b83870192505b8483101561038f57823582529183019190830190610376565b979650505050505050565b600080600080600060a086880312156103b257600080fd5b6103bb8661029c565b945060206103ca81880161029c565b9450604087013567ffffffffffffffff808211156103e757600080fd5b6103f38a838b0161031a565b9550606089013591508082111561040957600080fd5b6104158a838b0161031a565b9450608089013591508082111561042b57600080fd5b818901915089601f83011261043f57600080fd5b813581811115610451576104516102d3565b610463601f8201601f191685016102e9565b91508082528a8482850101111561047957600080fd5b80848401858401376000848284010152508093505050509295509295909350565b60008060008060008060a087890312156104b357600080fd5b6104bc8761029c565b95506104ca6020880161029c565b94506040870135935060608701359250608087013567ffffffffffffffff808211156104f557600080fd5b818901915089601f83011261050957600080fd5b81358181111561051857600080fd5b8a602082850101111561052a57600080fd5b6020830194508093505050509295509295509295565b60006020828403121561055257600080fd5b505191905056fea264697066735822122009bccd43b54b7ad67562b19a2502250cfc41d317d0126217d4d143148c2e1bac64736f6c63430008140033",
    "linkReferences": {}
  },
  "methodIdentifiers": {
    "factoryAddress()": "966dae0e",
    "onERC1155BatchReceived(address,address,uint256[],uint256[],bytes)": "bc197c81",
    "onERC1155Received(address,address,uint256,uint256,bytes)": "f23a6e61",
    "setFactoryAddress(address)": "83c17c55",
    "supportsInterface(bytes4)": "01ffc9a7"
  },
  "id": 18
}