{
  "abi": [
    {
      "anonymous": false,
      "inputs": [
        {
          "indexed": true,
          "internalType": "address",
          "name": "previousOwner",
          "type": "address"
        },
        {
          "indexed": true,
          "internalType": "address",
          "name": "newOwner",
          "type": "address"
        }
      ],
      "name": "OwnershipTransferred",
      "type": "event"
    },
    {
      "inputs": [],
      "name": "owner",
      "outputs": [
        {
          "internalType": "address",
          "name": "",
          "type": "address"
        }
      ],
      "stateMutability": "view",
      "type": "function"
    },
    {
      "inputs": [
        {
          "internalType": "address",
          "name": "",
          "type": "address"
        }
      ],
      "name": "proxies",
      "outputs": [
        {
          "internalType": "address",
          "name": "",
          "type": "address"
        }
      ],
      "stateMutability": "view",
      "type": "function"
    },
    {
      "inputs": [],
      "name": "renounceOwnership",
      "outputs": [],
      "stateMutability": "nonpayable",
      "type": "function"
    },
    {
      "inputs": [
        {
          "internalType": "address",
          "name": "_address",
          "type": "address"
        },
        {
          "internalType": "address",
          "name": "_proxyForAddress",
          "type": "address"
        }
      ],
      "name": "setProxy",
      "outputs": [],
      "stateMutability": "nonpayable",
      "type": "function"
    },
    {
      "inputs": [
        {
          "internalType": "address",
          "name": "newOwner",
          "type": "address"
        }
      ],
      "name": "transferOwnership",
      "outputs": [],
      "stateMutability": "nonpayable",
      "type": "function"
    }
  ],
  "bytecode": {
    "object": "0x608060405234801561001057600080fd5b5061001a3361001f565b61006f565b600080546001600160a01b038381166001600160a01b0319831681178455604051919092169283917f8be0079c531659141344cd1fd0a4f28419497f9722a3daafe3b4186f6b6457e09190a35050565b61033c8061007e6000396000f3fe608060405234801561001057600080fd5b50600436106100575760003560e01c8063715018a61461005c5780638da5cb5b14610066578063a9d4630c1461008f578063c4552791146100a2578063f2fde38b146100cb575b600080fd5b6100646100de565b005b6000546001600160a01b03165b6040516001600160a01b03909116815260200160405180910390f35b61006461009d36600461027c565b61011d565b6100736100b03660046102af565b6001602052600090815260409020546001600160a01b031681565b6100646100d93660046102af565b610175565b6000546001600160a01b031633146101115760405162461bcd60e51b8152600401610108906102d1565b60405180910390fd5b61011b6000610210565b565b6000546001600160a01b031633146101475760405162461bcd60e51b8152600401610108906102d1565b6001600160a01b03918216600090815260016020526040902080546001600160a01b03191691909216179055565b6000546001600160a01b0316331461019f5760405162461bcd60e51b8152600401610108906102d1565b6001600160a01b0381166102045760405162461bcd60e51b815260206004820152602660248201527f4f776e61626c653a206e6577206f776e657220697320746865207a65726f206160448201526564647265737360d01b6064820152608401610108565b61020d81610210565b50565b600080546001600160a01b038381166001600160a01b0319831681178455604051919092169283917f8be0079c531659141344cd1fd0a4f28419497f9722a3daafe3b4186f6b6457e09190a35050565b80356001600160a01b038116811461027757600080fd5b919050565b6000806040838503121561028f57600080fd5b61029883610260565b91506102a660208401610260565b90509250929050565b6000602082840312156102c157600080fd5b6102ca82610260565b9392505050565b6020808252818101527f4f776e61626c653a2063616c6c6572206973206e6f7420746865206f776e657260408201526060019056fea2646970667358221220f4f9c64f267c748aa9b05deb806255c5513bc429b4298a6eae097c327d8abd4b64736f6c63430008140033",
    "linkReferences": {}
  },
  "methodIdentifiers": {
    "owner()": "8da5cb5b",
    "proxies(address)": "c4552791",
    "renounceOwnership()": "715018a6",
    "setProxy(address,address)": "a9d4630c",
    "transferOwnership(address)": "f2fde38b"
  },
  "id": 17
}