{
  "abi": [
    {
      "inputs": [
        {
          "internalType": "address",
          "name": "_proxyRegistryAddress",
          "type": "address"
        }
      ],
      "stateMutability": "nonpayable",
      "type": "constructor"
    },
    {
      "anonymous": false,
      "inputs": [
        {
          "indexed": true,
          "internalType": "address",
          "name": "account",
          "type": "address"
        },
        {
          "indexed": true,
          "internalType": "address",
          "name": "operator",
          "type": "address"
        },
        {
          "indexed": false,
          "internalType": "bool",
          "name": "approved",
          "type": "bool"
        }
      ],
      "name": "ApprovalForAll",
      "type": "event"
    },
    {
      "anonymous": false,
      "inputs": [
        {
          "indexed": false,
          "internalType": "address",
          "name": "userAddress",
          "type": "address"
        },
        {
          "indexed": false,
          "internalType": "address payable",
          "name": "relayerAddress",
          "type": "address"
        },
        {
          "indexed": false,
          "internalType": "bytes",
          "name": "functionSignature",
          "type": "bytes"
        }
      ],
      "name": "MetaTransactionExecuted",
      "type": "event"
    },
    {
      "anonymous": false,
      "inputs": [
        {
          "indexed": true,
          "internalType": "address",
          "name": "previousOwner",
          "type": "address"
        },
        {
          "indexed": true,
          "internalType": "address",
          "name": "newOwner",
          "type": "address"
        }
      ],
      "name": "OwnershipTransferred",
      "type": "event"
    },
    {
      "anonymous": false,
      "inputs": [
        {
          "indexed": true,
          "internalType": "address",
          "name": "operator",
          "type": "address"
        },
        {
          "indexed": true,
          "internalType": "address",
          "name": "from",
          "type": "address"
        },
        {
          "indexed": true,
          "internalType": "address",
          "name": "to",
          "type": "address"
        },
        {
          "indexed": false,
          "internalType": "uint256[]",
          "name": "ids",
          "type": "uint256[]"
        },
        {
          "indexed": false,
          "internalType": "uint256[]",
          "name": "values",
          "type": "uint256[]"
        }
      ],
      "name": "TransferBatch",
      "type": "event"
    },
    {
      "anonymous": false,
      "inputs": [
        {
          "indexed": true,
          "internalType": "address",
          "name": "operator",
          "type": "address"
        },
        {
          "indexed": true,
          "internalType": "address",
          "name": "from",
          "type": "address"
        },
        {
          "indexed": true,
          "internalType": "address",
          "name": "to",
          "type": "address"
        },
        {
          "indexed": false,
          "internalType": "uint256",
          "name": "id",
          "type": "uint256"
        },
        {
          "indexed": false,
          "internalType": "uint256",
          "name": "value",
          "type": "uint256"
        }
      ],
      "name": "TransferSingle",
      "type": "event"
    },
    {
      "anonymous": false,
      "inputs": [
        {
          "indexed": false,
          "internalType": "string",
          "name": "value",
          "type": "string"
        },
        {
          "indexed": true,
          "internalType": "uint256",
          "name": "id",
          "type": "uint256"
        }
      ],
      "name": "URI",
      "type": "event"
    },
    {
      "inputs": [],
      "name": "ERC712_VERSION",
      "outputs": [
        {
          "internalType": "string",
          "name": "",
          "type": "string"
        }
      ],
      "stateMutability": "view",
      "type": "function"
    },
    {
      "inputs": [
        {
          "internalType": "address",
          "name": "account",
          "type": "address"
        },
        {
          "internalType": "uint256",
          "name": "id",
          "type": "uint256"
        }
      ],
      "name": "balanceOf",
      "outputs": [
        {
          "internalType": "uint256",
          "name": "",
          "type": "uint256"
        }
      ],
      "stateMutability": "view",
      "type": "function"
    },
    {
      "inputs": [
        {
          "internalType": "address[]",
          "name": "accounts",
          "type": "address[]"
        },
        {
          "internalType": "uint256[]",
          "name": "ids",
          "type": "uint256[]"
        }
      ],
      "name": "balanceOfBatch",
      "outputs": [
        {
          "internalType": "uint256[]",
          "name": "",
          "type": "uint256[]"
        }
      ],
      "stateMutability": "view",
      "type": "function"
    },
    {
      "inputs": [
        {
          "internalType": "address",
          "name": "_to",
          "type": "address"
        },
        {
          "internalType": "uint256[]",
          "name": "_ids",
          "type": "uint256[]"
        },
        {
          "internalType": "uint256[]",
          "name": "_quantities",
          "type": "uint256[]"
        },
        {
          "internalType": "bytes",
          "name": "_data",
          "type": "bytes"
        }
      ],
      "name": "batchMint",
      "outputs": [],
      "stateMutability": "nonpayable",
      "type": "function"
    },
    {
      "inputs": [],
      "name": "contractURI",
      "outputs": [
        {
          "internalType": "string",
          "name": "",
          "type": "string"
        }
      ],
      "stateMutability": "pure",
      "type": "function"
    },
    {
      "inputs": [
        {
          "internalType": "address",
          "name": "_initialOwner",
          "type": "address"
        },
        {
          "internalType": "uint256",
          "name": "_id",
          "type": "uint256"
        },
        {
          "internalType": "uint256",
          "name": "_initialSupply",
          "type": "uint256"
        },
        {
          "internalType": "string",
          "name": "_uri",
          "type": "string"
        },
        {
          "internalType": "bytes",
          "name": "_data",
          "type": "bytes"
        }
      ],
      "name": "create",
      "outputs": [
        {
          "internalType": "uint256",
          "name": "",
          "type": "uint256"
        }
      ],
      "stateMutability": "nonpayable",
      "type": "function"
    },
    {
      "inputs": [
        {
          "internalType": "uint256",
          "name": "",
          "type": "uint256"
        }
      ],
      "name": "creators",
      "outputs": [
        {
          "internalType": "address",
          "name": "",
          "type": "address"
        }
      ],
      "stateMutability": "view",
      "type": "function"
    },
    {
      "inputs": [
        {
          "internalType": "address",
          "name": "userAddress",
          "type": "address"
        },
        {
          "internalType": "bytes",
          "name": "functionSignature",
          "type": "bytes"
        },
        {
          "internalType": "bytes32",
          "name": "sigR",
          "type": "bytes32"
        },
        {
          "internalType": "bytes32",
          "name": "sigS",
          "type": "bytes32"
        },
        {
          "internalType": "uint8",
          "name": "sigV",
          "type": "uint8"
        }
      ],
      "name": "executeMetaTransaction",
      "outputs": [
        {
          "internalType": "bytes",
          "name": "",
          "type": "bytes"
        }
      ],
      "stateMutability": "payable",
      "type": "function"
    },
    {
      "inputs": [
        {
          "internalType": "uint256",
          "name": "_id",
          "type": "uint256"
        }
      ],
      "name": "exists",
      "outputs": [
        {
          "internalType": "bool",
          "name": "",
          "type": "bool"
        }
      ],
      "stateMutability": "view",
      "type": "function"
    },
    {
      "inputs": [],
      "name": "getChainId",
      "outputs": [
        {
          "internalType": "uint256",
          "name": "",
          "type": "uint256"
        }
      ],
      "stateMutability": "view",
      "type": "function"
    },
    {
      "inputs": [],
      "name": "getDomainSeperator",
      "outputs": [
        {
          "internalType": "bytes32",
          "name": "",
          "type": "bytes32"
        }
      ],
      "stateMutability": "view",
      "type": "function"
    },
    {
      "inputs": [
        {
          "internalType": "address",
          "name": "user",
          "type": "address"
        }
      ],
      "name": "getNonce",
      "outputs": [
        {
          "internalType": "uint256",
          "name": "nonce",
          "type": "uint256"
        }
      ],
      "stateMutability": "view",
      "type": "function"
    },
    {
      "inputs": [
        {
          "internalType": "address",
          "name": "_owner",
          "type": "address"
        },
        {
          "internalType": "address",
          "name": "_operator",
          "type": "address"
        }
      ],
      "name": "isApprovedForAll",
      "outputs": [
        {
          "internalType": "bool",
          "name": "isOperator",
          "type": "bool"
        }
      ],
      "stateMutability": "view",
      "type": "function"
    },
    {
      "inputs": [
        {
          "internalType": "address",
          "name": "_to",
          "type": "address"
        },
        {
          "internalType": "uint256",
          "name": "_id",
          "type": "uint256"
        },
        {
          "internalType": "uint256",
          "name": "_quantity",
          "type": "uint256"
        },
        {
          "internalType": "bytes",
          "name": "_data",
          "type": "bytes"
        }
      ],
      "name": "mint",
      "outputs": [],
      "stateMutability": "nonpayable",
      "type": "function"
    },
    {
      "inputs": [],
      "name": "name",
      "outputs": [
        {
          "internalType": "string",
          "name": "",
          "type": "string"
        }
      ],
      "stateMutability": "view",
      "type": "function"
    },
    {
      "inputs": [],
      "name": "owner",
      "outputs": [
        {
          "internalType": "address",
          "name": "",
          "type": "address"
        }
      ],
      "stateMutability": "view",
      "type": "function"
    },
    {
      "inputs": [],
      "name": "renounceOwnership",
      "outputs": [],
      "stateMutability": "nonpayable",
      "type": "function"
    },
    {
      "inputs": [
        {
          "internalType": "address",
          "name": "from",
          "type": "address"
        },
        {
          "internalType": "address",
          "name": "to",
          "type": "address"
        },
        {
          "internalType": "uint256[]",
          "name": "ids",
          "type": "uint256[]"
        },
        {
          "internalType": "uint256[]",
          "name": "amounts",
          "type": "uint256[]"
        },
        {
          "internalType": "bytes",
          "name": "data",
          "type": "bytes"
        }
      ],
      "name": "safeBatchTransferFrom",
      "outputs": [],
      "stateMutability": "nonpayable",
      "type": "function"
    },
    {
      "inputs": [
        {
          "internalType": "address",
          "name": "from",
          "type": "address"
        },
        {
          "internalType": "address",
          "name": "to",
          "type": "address"
        },
        {
          "internalType": "uint256",
          "name": "id",
          "type": "uint256"
        },
        {
          "internalType": "uint256",
          "name": "amount",
          "type": "uint256"
        },
        {
          "internalType": "bytes",
          "name": "data",
          "type": "bytes"
        }
      ],
      "name": "safeTransferFrom",
      "outputs": [],
      "stateMutability": "nonpayable",
      "type": "function"
    },
    {
      "inputs": [
        {
          "internalType": "address",
          "name": "operator",
          "type": "address"
        },
        {
          "internalType": "bool",
          "name": "approved",
          "type": "bool"
        }
      ],
      "name": "setApprovalForAll",
      "outputs": [],
      "stateMutability": "nonpayable",
      "type": "function"
    },
    {
      "inputs": [
        {
          "internalType": "address",
          "name": "_to",
          "type": "address"
        },
        {
          "internalType": "uint256[]",
          "name": "_ids",
          "type": "uint256[]"
        }
      ],
      "name": "setCreator",
      "outputs": [],
      "stateMutability": "nonpayable",
      "type": "function"
    },
    {
      "inputs": [
        {
          "internalType": "uint256",
          "name": "_tokenId",
          "type": "uint256"
        },
        {
          "internalType": "string",
          "name": "_newURI",
          "type": "string"
        }
      ],
      "name": "setCustomURI",
      "outputs": [],
      "stateMutability": "nonpayable",
      "type": "function"
    },
    {
      "inputs": [
        {
          "internalType": "string",
          "name": "_newURI",
          "type": "string"
        }
      ],
      "name": "setURI",
      "outputs": [],
      "stateMutability": "nonpayable",
      "type": "function"
    },
    {
      "inputs": [
        {
          "internalType": "bytes4",
          "name": "interfaceId",
          "type": "bytes4"
        }
      ],
      "name": "supportsInterface",
      "outputs": [
        {
          "internalType": "bool",
          "name": "",
          "type": "bool"
        }
      ],
      "stateMutability": "view",
      "type": "function"
    },
    {
      "inputs": [],
      "name": "symbol",
      "outputs": [
        {
          "internalType": "string",
          "name": "",
          "type": "string"
        }
      ],
      "stateMutability": "view",
      "type": "function"
    },
    {
      "inputs": [
        {
          "internalType": "uint256",
          "name": "",
          "type": "uint256"
        }
      ],
      "name": "tokenSupply",
      "outputs": [
        {
          "internalType": "uint256",
          "name": "",
          "type": "uint256"
        }
      ],
      "stateMutability": "view",
      "type": "function"
    },
    {
      "inputs": [
        {
          "internalType": "uint256",
          "name": "_id",
          "type": "uint256"
        }
      ],
      "name": "totalSupply",
      "outputs": [
        {
          "internalType": "uint256",
          "name": "",
          "type": "uint256"
        }
      ],
      "stateMutability": "view",
      "type": "function"
    },
    {
      "inputs": [
        {
          "internalType": "address",
          "name": "newOwner",
          "type": "address"
        }
      ],
      "name": "transferOwnership",
      "outputs": [],
      "stateMutability": "nonpayable",
      "type": "function"
    },
    {
      "inputs": [
        {
          "internalType": "uint256",
          "name": "_id",
          "type": "uint256"
        }
      ],
      "name": "uri",
      "outputs": [
        {
          "internalType": "string",
          "name": "",
          "type": "string"
        }
      ],
      "stateMutability": "view",
      "type": "function"
    }
  ],
  "bytecode": {
    "object": "0x60806040526003805460ff191690553480156200001b57600080fd5b5060405162003364380380620033648339810160408190526200003e916200038a565b6040518060400160405280601a81526020017f4f70656e536561204372656174757265204163636573736f7279000000000000815250604051806040016040528060048152602001634f53434160e01b81525060405180606001604052806033815260200162003331603391398381620000b881620001b1565b50620000cd620000c7620001c3565b620001d4565b600b620000db858262000461565b50600c620000ea848262000461565b50600780546001600160a01b0319166001600160a01b038316179055600b8054620001a691906200011b90620003d2565b80601f01602080910402602001604051908101604052809291908181526020018280546200014990620003d2565b80156200019a5780601f106200016e576101008083540402835291602001916200019a565b820191906000526020600020905b8154815290600101906020018083116200017c57829003601f168201915b50506200022692505050565b50505050506200052d565b6002620001bf828262000461565b5050565b6000620001cf6200028a565b905090565b600680546001600160a01b038381166001600160a01b0319831681179093556040519116919082907f8be0079c531659141344cd1fd0a4f28419497f9722a3daafe3b4186f6b6457e090600090a35050565b60035460ff16156200026f5760405162461bcd60e51b815260206004820152600e60248201526d185b1c9958591e481a5b9a5d195960921b604482015260640160405180910390fd5b6200027a81620002e8565b506003805460ff19166001179055565b6000303303620002e257600080368080601f0160208091040260200160405190810160405280939291908181526020018383808284376000920191909152505050503601516001600160a01b03169150620002e59050565b50335b90565b6040518060800160405280604f8152602001620032e2604f9139805160209182012082519282019290922060408051808201825260018152603160f81b90840152805180840194909452838101919091527fc89efdaa54c0f20c7adf612882df0950f5a951637e0307cdcb4c672f298b8bc660608401523060808401524660a0808501919091528151808503909101815260c090930190528151910120600455565b6000602082840312156200039d57600080fd5b81516001600160a01b0381168114620003b557600080fd5b9392505050565b634e487b7160e01b600052604160045260246000fd5b600181811c90821680620003e757607f821691505b6020821081036200040857634e487b7160e01b600052602260045260246000fd5b50919050565b601f8211156200045c57600081815260208120601f850160051c81016020861015620004375750805b601f850160051c820191505b81811015620004585782815560010162000443565b5050505b505050565b81516001600160401b038111156200047d576200047d620003bc565b62000495816200048e8454620003d2565b846200040e565b602080601f831160018114620004cd5760008415620004b45750858301515b600019600386901b1c1916600185901b17855562000458565b600085815260208120601f198616915b82811015620004fe57888601518255948401946001909101908401620004dd565b50858210156200051d5787850151600019600388901b60f8161c191681555b5050505050600190811b01905550565b612da5806200053d6000396000f3fe6080604052600436106101c15760003560e01c80634e1273f4116100f7578063b48ab8b611610095578063e8a3d48511610064578063e8a3d48514610544578063e985e9c514610559578063f242432a14610579578063f2fde38b1461059957600080fd5b8063b48ab8b6146104a1578063bd85b039146104c1578063cd53d08e146104ee578063d2a6b51a1461052457600080fd5b8063731133e9116100d1578063731133e91461041a5780638da5cb5b1461043a57806395d89b411461046c578063a22cb4651461048157600080fd5b80634e1273f4146103b85780634f558e79146103e5578063715018a61461040557600080fd5b806320379ee5116101645780632eb2c2d61161013e5780632eb2c2d6146103455780633408e4701461036557806336a100d5146103785780633adf80b41461039857600080fd5b806320379ee5146102cd5780632693ebf2146102e25780632d0335ab1461030f57600080fd5b806306fdde03116101a057806306fdde031461024b5780630c53c51c1461026d5780630e89341c146102805780630f7e5970146102a057600080fd5b8062fdd58e146101c657806301ffc9a7146101f957806302fe530514610229575b600080fd5b3480156101d257600080fd5b506101e66101e1366004612003565b6105b9565b6040519081526020015b60405180910390f35b34801561020557600080fd5b50610219610214366004612045565b610653565b60405190151581526020016101f0565b34801561023557600080fd5b50610249610244366004612117565b6106a3565b005b34801561025757600080fd5b506102606106f8565b6040516101f0919061219b565b61026061027b3660046121ae565b610786565b34801561028c57600080fd5b5061026061029b36600461222b565b610970565b3480156102ac57600080fd5b50610260604051806040016040528060018152602001603160f81b81525081565b3480156102d957600080fd5b506004546101e6565b3480156102ee57600080fd5b506101e66102fd36600461222b565b60096020526000908152604090205481565b34801561031b57600080fd5b506101e661032a366004612244565b6001600160a01b031660009081526005602052604090205490565b34801561035157600080fd5b506102496103603660046122f5565b610b3e565b34801561037157600080fd5b50466101e6565b34801561038457600080fd5b506101e66103933660046123a2565b610be7565b3480156103a457600080fd5b506102496103b33660046123fb565b610d47565b3480156103c457600080fd5b506103d86103d3366004612441565b610ddf565b6040516101f0919061253e565b3480156103f157600080fd5b5061021961040036600461222b565b610f08565b34801561041157600080fd5b50610249610f27565b34801561042657600080fd5b50610249610435366004612551565b610f7c565b34801561044657600080fd5b506006546001600160a01b03165b6040516001600160a01b0390911681526020016101f0565b34801561047857600080fd5b50610260610ffc565b34801561048d57600080fd5b5061024961049c3660046125b3565b611009565b3480156104ad57600080fd5b506102496104bc3660046125f1565b61101f565b3480156104cd57600080fd5b506101e66104dc36600461222b565b60009081526009602052604090205490565b3480156104fa57600080fd5b5061045461050936600461222b565b6008602052600090815260409020546001600160a01b031681565b34801561053057600080fd5b5061024961053f36600461267f565b61114f565b34801561055057600080fd5b50610260611206565b34801561056557600080fd5b506102196105743660046126c4565b611226565b34801561058557600080fd5b506102496105943660046126f2565b6112e6565b3480156105a557600080fd5b506102496105b4366004612244565b61137f565b60006001600160a01b03831661062a5760405162461bcd60e51b815260206004820152602b60248201527f455243313135353a2062616c616e636520717565727920666f7220746865207a60448201526a65726f206164647265737360a81b60648201526084015b60405180910390fd5b506000818152602081815260408083206001600160a01b03861684529091529020545b92915050565b60006001600160e01b03198216636cdb3d1360e11b148061068457506001600160e01b031982166303a24d0760e21b145b8061064d57506301ffc9a760e01b6001600160e01b031983161461064d565b6106ab611436565b6001600160a01b03166106c66006546001600160a01b031690565b6001600160a01b0316146106ec5760405162461bcd60e51b81526004016106219061275a565b6106f581611445565b50565b600b80546107059061278f565b80601f01602080910402602001604051908101604052809291908181526020018280546107319061278f565b801561077e5780601f106107535761010080835404028352916020019161077e565b820191906000526020600020905b81548152906001019060200180831161076157829003601f168201915b505050505081565b60408051606081810183526001600160a01b038816600081815260056020908152908590205484528301529181018690526107c48782878787611451565b61081a5760405162461bcd60e51b815260206004820152602160248201527f5369676e657220616e64207369676e617475726520646f206e6f74206d6174636044820152600d60fb1b6064820152608401610621565b6001600160a01b03871660009081526005602052604090205461083e906001611541565b6001600160a01b0388166000908152600560205260409081902091909155517f5845892132946850460bff5a0083f71031bc5bf9aadcd40f1de79423eac9b10b9061088e90899033908a906127c3565b60405180910390a1600080306001600160a01b0316888a6040516020016108b69291906127f8565b60408051601f19818403018152908290526108d09161282f565b6000604051808303816000865af19150503d806000811461090d576040519150601f19603f3d011682016040523d82523d6000602084013e610912565b606091505b5091509150816109645760405162461bcd60e51b815260206004820152601c60248201527f46756e6374696f6e2063616c6c206e6f74207375636365737366756c000000006044820152606401610621565b98975050505050505050565b6000818152600860205260409020546060906001600160a01b03166109e65760405162461bcd60e51b815260206004820152602660248201527f455243313135355472616461626c65237572693a204e4f4e4558495354454e546044820152652faa27a5a2a760d11b6064820152608401610621565b6000828152600a6020526040812080546109ff9061278f565b80601f0160208091040260200160405190810160405280929190818152602001828054610a2b9061278f565b8015610a785780601f10610a4d57610100808354040283529160200191610a78565b820191906000526020600020905b815481529060010190602001808311610a5b57829003601f168201915b50505050509050600081511115610b28576000838152600a602052604090208054610aa29061278f565b80601f0160208091040260200160405190810160405280929190818152602001828054610ace9061278f565b8015610b1b5780601f10610af057610100808354040283529160200191610b1b565b820191906000526020600020905b815481529060010190602001808311610afe57829003601f168201915b5050505050915050919050565b610b318361154d565b9392505050565b50919050565b610b46611436565b6001600160a01b0316856001600160a01b03161480610b6c5750610b6c85610574611436565b610bd35760405162461bcd60e51b815260206004820152603260248201527f455243313135353a207472616e736665722063616c6c6572206973206e6f74206044820152711bdddb995c881b9bdc88185c1c1c9bdd995960721b6064820152608401610621565b610be085858585856115e1565b5050505050565b6000610bf1611436565b6001600160a01b0316610c0c6006546001600160a01b031690565b6001600160a01b031614610c325760405162461bcd60e51b81526004016106219061275a565b6000858152600860205260409020546001600160a01b031615610c975760405162461bcd60e51b815260206004820152601860248201527f746f6b656e205f696420616c72656164792065786973747300000000000000006044820152606401610621565b610c9f611436565b600086815260086020526040902080546001600160a01b0319166001600160a01b0392909216919091179055825115610d24576000858152600a60205260409020610cea8482612891565b50847f6bb7ff708619ba0610cba295a58592e0451dee2622938c8755667688daf3529b84604051610d1b919061219b565b60405180910390a25b610d3086868685611788565b505050600082815260096020526040902055919050565b81610d50611436565b6000828152600860205260409020546001600160a01b03908116911614610d895760405162461bcd60e51b815260040161062190612950565b6000838152600a60205260409020610da18382612891565b50827f6bb7ff708619ba0610cba295a58592e0451dee2622938c8755667688daf3529b83604051610dd2919061219b565b60405180910390a2505050565b60608151835114610e445760405162461bcd60e51b815260206004820152602960248201527f455243313135353a206163636f756e747320616e6420696473206c656e677468604482015268040dad2e6dac2e8c6d60bb1b6064820152608401610621565b600083516001600160401b03811115610e5f57610e5f612062565b604051908082528060200260200182016040528015610e88578160200160208202803683370190505b50905060005b8451811015610f0057610ed3858281518110610eac57610eac6129a1565b6020026020010151858381518110610ec657610ec66129a1565b60200260200101516105b9565b828281518110610ee557610ee56129a1565b6020908102919091010152610ef9816129cd565b9050610e8e565b509392505050565b6000818152600860205260408120546001600160a01b0316151561064d565b610f2f611436565b6001600160a01b0316610f4a6006546001600160a01b031690565b6001600160a01b031614610f705760405162461bcd60e51b81526004016106219061275a565b610f7a6000611863565b565b82610f85611436565b6000828152600860205260409020546001600160a01b03908116911614610fbe5760405162461bcd60e51b815260040161062190612950565b610fca85858585611788565b600084815260096020526040902054610fe39084611541565b6000948552600960205260409094209390935550505050565b600c80546107059061278f565b61101b611014611436565b83836118b5565b5050565b60005b835181101561113c57600084828151811061103f5761103f6129a1565b60200260200101519050611051611436565b6000828152600860205260409020546001600160a01b039081169116146110d25760405162461bcd60e51b815260206004820152602f60248201527f455243313135355472616461626c652362617463684d696e743a204f4e4c595f60448201526e10d491505513d497d0531313d5d151608a1b6064820152608401610621565b60008483815181106110e6576110e66129a1565b6020026020010151905061111681600960008581526020019081526020016000205461154190919063ffffffff16565b600092835260096020526040909220919091555080611134816129cd565b915050611022565b5061114984848484611995565b50505050565b6001600160a01b0382166111ba5760405162461bcd60e51b815260206004820152602c60248201527f455243313135355472616461626c652373657443726561746f723a20494e564160448201526b2624a22fa0a2222922a9a99760a11b6064820152608401610621565b60005b81518110156112015760008282815181106111da576111da6129a1565b602002602001015190506111ee8482611aeb565b50806111f9816129cd565b9150506111bd565b505050565b6060604051806060016040528060398152602001612d3760399139905090565b60075460405163c455279160e01b81526001600160a01b03848116600483015260009281169190841690829063c455279190602401602060405180830381865afa158015611278573d6000803e3d6000fd5b505050506040513d601f19601f8201168201806040525081019061129c91906129e6565b6001600160a01b0316036112b457600191505061064d565b6001600160a01b0380851660009081526001602090815260408083209387168352929052205460ff165b949350505050565b6112ee611436565b6001600160a01b0316856001600160a01b03161480611314575061131485610574611436565b6113725760405162461bcd60e51b815260206004820152602960248201527f455243313135353a2063616c6c6572206973206e6f74206f776e6572206e6f7260448201526808185c1c1c9bdd995960ba1b6064820152608401610621565b610be08585858585611b5c565b611387611436565b6001600160a01b03166113a26006546001600160a01b031690565b6001600160a01b0316146113c85760405162461bcd60e51b81526004016106219061275a565b6001600160a01b03811661142d5760405162461bcd60e51b815260206004820152602660248201527f4f776e61626c653a206e6577206f776e657220697320746865207a65726f206160448201526564647265737360d01b6064820152608401610621565b6106f581611863565b6000611440611c84565b905090565b600261101b8282612891565b60006001600160a01b0386166114b75760405162461bcd60e51b815260206004820152602560248201527f4e61746976654d6574615472616e73616374696f6e3a20494e56414c49445f5360448201526424a3a722a960d91b6064820152608401610621565b60016114ca6114c587611ce0565b611d5d565b6040805160008152602081018083529290925260ff851690820152606081018690526080810185905260a0016020604051602081039080840390855afa158015611518573d6000803e3d6000fd5b505050602060405103516001600160a01b0316866001600160a01b031614905095945050505050565b6000610b318284612a03565b60606002805461155c9061278f565b80601f01602080910402602001604051908101604052809291908181526020018280546115889061278f565b80156115d55780601f106115aa576101008083540402835291602001916115d5565b820191906000526020600020905b8154815290600101906020018083116115b857829003601f168201915b50505050509050919050565b81518351146116025760405162461bcd60e51b815260040161062190612a16565b6001600160a01b0384166116285760405162461bcd60e51b815260040161062190612a5e565b6000611632611436565b905060005b845181101561171a576000858281518110611654576116546129a1565b602002602001015190506000858381518110611672576116726129a1565b602090810291909101810151600084815280835260408082206001600160a01b038e1683529093529190912054909150818110156116c25760405162461bcd60e51b815260040161062190612aa3565b6000838152602081815260408083206001600160a01b038e8116855292528083208585039055908b168252812080548492906116ff908490612a03565b9250508190555050505080611713906129cd565b9050611637565b50846001600160a01b0316866001600160a01b0316826001600160a01b03167f4a39dc06d4c0dbc64b70af90fd698a233a518aa5d07e595d983b8c0526c8f7fb878760405161176a929190612aed565b60405180910390a4611780818787878787611d8d565b505050505050565b6001600160a01b0384166117ae5760405162461bcd60e51b815260040161062190612b12565b60006117b8611436565b90506117d3816000876117ca88611ee8565b610be088611ee8565b6000848152602081815260408083206001600160a01b038916845290915281208054859290611803908490612a03565b909155505060408051858152602081018590526001600160a01b0380881692600092918516917fc3d58168c5ae7397731d063d5bbf3d657854427343f4c083240f7aacaa2d0f62910160405180910390a4610be081600087878787611f33565b600680546001600160a01b038381166001600160a01b0319831681179093556040519116919082907f8be0079c531659141344cd1fd0a4f28419497f9722a3daafe3b4186f6b6457e090600090a35050565b816001600160a01b0316836001600160a01b0316036119285760405162461bcd60e51b815260206004820152602960248201527f455243313135353a2073657474696e6720617070726f76616c20737461747573604482015268103337b91039b2b63360b91b6064820152608401610621565b6001600160a01b03838116600081815260016020908152604080832094871680845294825291829020805460ff191686151590811790915591519182527f17307eab39ab6107e8899845ad3d59bd9653f200f220920489ca2b5937696c31910160405180910390a3505050565b6001600160a01b0384166119bb5760405162461bcd60e51b815260040161062190612b12565b81518351146119dc5760405162461bcd60e51b815260040161062190612a16565b60006119e6611436565b905060005b8451811015611a8357838181518110611a0657611a066129a1565b6020026020010151600080878481518110611a2357611a236129a1565b602002602001015181526020019081526020016000206000886001600160a01b03166001600160a01b031681526020019081526020016000206000828254611a6b9190612a03565b90915550819050611a7b816129cd565b9150506119eb565b50846001600160a01b031660006001600160a01b0316826001600160a01b03167f4a39dc06d4c0dbc64b70af90fd698a233a518aa5d07e595d983b8c0526c8f7fb8787604051611ad4929190612aed565b60405180910390a4610be081600087878787611d8d565b80611af4611436565b6000828152600860205260409020546001600160a01b03908116911614611b2d5760405162461bcd60e51b815260040161062190612950565b50600090815260086020526040902080546001600160a01b0319166001600160a01b0392909216919091179055565b6001600160a01b038416611b825760405162461bcd60e51b815260040161062190612a5e565b6000611b8c611436565b9050611b9d8187876117ca88611ee8565b6000848152602081815260408083206001600160a01b038a16845290915290205483811015611bde5760405162461bcd60e51b815260040161062190612aa3565b6000858152602081815260408083206001600160a01b038b8116855292528083208785039055908816825281208054869290611c1b908490612a03565b909155505060408051868152602081018690526001600160a01b03808916928a821692918616917fc3d58168c5ae7397731d063d5bbf3d657854427343f4c083240f7aacaa2d0f62910160405180910390a4611c7b828888888888611f33565b50505050505050565b6000303303611cda57600080368080601f0160208091040260200160405190810160405280939291908181526020018383808284376000920191909152505050503601516001600160a01b03169150611cdd9050565b50335b90565b6000604051806080016040528060438152602001612cf46043913980516020918201208351848301516040808701518051908601209051611d40950193845260208401929092526001600160a01b03166040830152606082015260800190565b604051602081830303815290604052805190602001209050919050565b6000611d6860045490565b60405161190160f01b6020820152602281019190915260428101839052606201611d40565b6001600160a01b0384163b156117805760405163bc197c8160e01b81526001600160a01b0385169063bc197c8190611dd19089908990889088908890600401612b53565b6020604051808303816000875af1925050508015611e0c575060408051601f3d908101601f19168201909252611e0991810190612ba5565b60015b611eb857611e18612bc2565b806308c379a003611e515750611e2c612bdd565b80611e375750611e53565b8060405162461bcd60e51b8152600401610621919061219b565b505b60405162461bcd60e51b815260206004820152603460248201527f455243313135353a207472616e7366657220746f206e6f6e20455243313135356044820152732932b1b2b4bb32b91034b6b83632b6b2b73a32b960611b6064820152608401610621565b6001600160e01b0319811663bc197c8160e01b14611c7b5760405162461bcd60e51b815260040161062190612c66565b60408051600180825281830190925260609160009190602080830190803683370190505090508281600081518110611f2257611f226129a1565b602090810291909101015292915050565b6001600160a01b0384163b156117805760405163f23a6e6160e01b81526001600160a01b0385169063f23a6e6190611f779089908990889088908890600401612cae565b6020604051808303816000875af1925050508015611fb2575060408051601f3d908101601f19168201909252611faf91810190612ba5565b60015b611fbe57611e18612bc2565b6001600160e01b0319811663f23a6e6160e01b14611c7b5760405162461bcd60e51b815260040161062190612c66565b6001600160a01b03811681146106f557600080fd5b6000806040838503121561201657600080fd5b823561202181611fee565b946020939093013593505050565b6001600160e01b0319811681146106f557600080fd5b60006020828403121561205757600080fd5b8135610b318161202f565b634e487b7160e01b600052604160045260246000fd5b601f8201601f191681016001600160401b038111828210171561209d5761209d612062565b6040525050565b600082601f8301126120b557600080fd5b81356001600160401b038111156120ce576120ce612062565b6040516120e5601f8301601f191660200182612078565b8181528460208386010111156120fa57600080fd5b816020850160208301376000918101602001919091529392505050565b60006020828403121561212957600080fd5b81356001600160401b0381111561213f57600080fd5b6112de848285016120a4565b60005b8381101561216657818101518382015260200161214e565b50506000910152565b6000815180845261218781602086016020860161214b565b601f01601f19169290920160200192915050565b602081526000610b31602083018461216f565b600080600080600060a086880312156121c657600080fd5b85356121d181611fee565b945060208601356001600160401b038111156121ec57600080fd5b6121f8888289016120a4565b9450506040860135925060608601359150608086013560ff8116811461221d57600080fd5b809150509295509295909350565b60006020828403121561223d57600080fd5b5035919050565b60006020828403121561225657600080fd5b8135610b3181611fee565b60006001600160401b0382111561227a5761227a612062565b5060051b60200190565b600082601f83011261229557600080fd5b813560206122a282612261565b6040516122af8282612078565b83815260059390931b85018201928281019150868411156122cf57600080fd5b8286015b848110156122ea57803583529183019183016122d3565b509695505050505050565b600080600080600060a0868803121561230d57600080fd5b853561231881611fee565b9450602086013561232881611fee565b935060408601356001600160401b038082111561234457600080fd5b61235089838a01612284565b9450606088013591508082111561236657600080fd5b61237289838a01612284565b9350608088013591508082111561238857600080fd5b50612395888289016120a4565b9150509295509295909350565b600080600080600060a086880312156123ba57600080fd5b85356123c581611fee565b9450602086013593506040860135925060608601356001600160401b03808211156123ef57600080fd5b61237289838a016120a4565b6000806040838503121561240e57600080fd5b8235915060208301356001600160401b0381111561242b57600080fd5b612437858286016120a4565b9150509250929050565b6000806040838503121561245457600080fd5b82356001600160401b038082111561246b57600080fd5b818501915085601f83011261247f57600080fd5b8135602061248c82612261565b6040516124998282612078565b83815260059390931b85018201928281019150898411156124b957600080fd5b948201945b838610156124e05785356124d181611fee565b825294820194908201906124be565b965050860135925050808211156124f657600080fd5b5061243785828601612284565b600081518084526020808501945080840160005b8381101561253357815187529582019590820190600101612517565b509495945050505050565b602081526000610b316020830184612503565b6000806000806080858703121561256757600080fd5b843561257281611fee565b9350602085013592506040850135915060608501356001600160401b0381111561259b57600080fd5b6125a7878288016120a4565b91505092959194509250565b600080604083850312156125c657600080fd5b82356125d181611fee565b9150602083013580151581146125e657600080fd5b809150509250929050565b6000806000806080858703121561260757600080fd5b843561261281611fee565b935060208501356001600160401b038082111561262e57600080fd5b61263a88838901612284565b9450604087013591508082111561265057600080fd5b61265c88838901612284565b9350606087013591508082111561267257600080fd5b506125a7878288016120a4565b6000806040838503121561269257600080fd5b823561269d81611fee565b915060208301356001600160401b038111156126b857600080fd5b61243785828601612284565b600080604083850312156126d757600080fd5b82356126e281611fee565b915060208301356125e681611fee565b600080600080600060a0868803121561270a57600080fd5b853561271581611fee565b9450602086013561272581611fee565b9350604086013592506060860135915060808601356001600160401b0381111561274e57600080fd5b612395888289016120a4565b6020808252818101527f4f776e61626c653a2063616c6c6572206973206e6f7420746865206f776e6572604082015260600190565b600181811c908216806127a357607f821691505b602082108103610b3857634e487b7160e01b600052602260045260246000fd5b6001600160a01b038481168252831660208201526060604082018190526000906127ef9083018461216f565b95945050505050565b6000835161280a81846020880161214b565b60609390931b6bffffffffffffffffffffffff19169190920190815260140192915050565b6000825161284181846020870161214b565b9190910192915050565b601f82111561120157600081815260208120601f850160051c810160208610156128725750805b601f850160051c820191505b818110156117805782815560010161287e565b81516001600160401b038111156128aa576128aa612062565b6128be816128b8845461278f565b8461284b565b602080601f8311600181146128f357600084156128db5750858301515b600019600386901b1c1916600185901b178555611780565b600085815260208120601f198616915b8281101561292257888601518255948401946001909101908401612903565b50858210156129405787850151600019600388901b60f8161c191681555b5050505050600190811b01905550565b60208082526031908201527f455243313135355472616461626c652363726561746f724f6e6c793a204f4e4c6040820152701657d0d491505513d497d0531313d5d151607a1b606082015260800190565b634e487b7160e01b600052603260045260246000fd5b634e487b7160e01b600052601160045260246000fd5b6000600182016129df576129df6129b7565b5060010190565b6000602082840312156129f857600080fd5b8151610b3181611fee565b8082018082111561064d5761064d6129b7565b60208082526028908201527f455243313135353a2069647320616e6420616d6f756e7473206c656e677468206040820152670dad2e6dac2e8c6d60c31b606082015260800190565b60208082526025908201527f455243313135353a207472616e7366657220746f20746865207a65726f206164604082015264647265737360d81b606082015260800190565b6020808252602a908201527f455243313135353a20696e73756666696369656e742062616c616e636520666f60408201526939103a3930b739b332b960b11b606082015260800190565b604081526000612b006040830185612503565b82810360208401526127ef8185612503565b60208082526021908201527f455243313135353a206d696e7420746f20746865207a65726f206164647265736040820152607360f81b606082015260800190565b6001600160a01b0386811682528516602082015260a060408201819052600090612b7f90830186612503565b8281036060840152612b918186612503565b90508281036080840152610964818561216f565b600060208284031215612bb757600080fd5b8151610b318161202f565b600060033d1115611cdd5760046000803e5060005160e01c90565b600060443d1015612beb5790565b6040516003193d81016004833e81513d6001600160401b038160248401118184111715612c1a57505050505090565b8285019150815181811115612c325750505050505090565b843d8701016020828501011115612c4c5750505050505090565b612c5b60208286010187612078565b509095945050505050565b60208082526028908201527f455243313135353a204552433131353552656365697665722072656a656374656040820152676420746f6b656e7360c01b606082015260800190565b6001600160a01b03868116825285166020820152604081018490526060810183905260a060808201819052600090612ce89083018461216f565b97965050505050505056fe4d6574615472616e73616374696f6e2875696e74323536206e6f6e63652c616464726573732066726f6d2c62797465732066756e6374696f6e5369676e61747572652968747470733a2f2f6372656174757265732d6170692e6f70656e7365612e696f2f636f6e74726163742f6f70656e7365612d65726331313535a2646970667358221220212337b8a816ba23c7b8ba3b3e0ea122160dfda35f238aecd15ec046dcb6a50764736f6c63430008140033454950373132446f6d61696e28737472696e67206e616d652c737472696e672076657273696f6e2c6164647265737320766572696679696e67436f6e74726163742c627974657333322073616c742968747470733a2f2f6372656174757265732d6170692e6f70656e7365612e696f2f6170692f6163636573736f72792f7b69647d",
    "linkReferences": {}
  },
  "methodIdentifiers": {
    "ERC712_VERSION()": "0f7e5970",
    "balanceOf(address,uint256)": "00fdd58e",
    "balanceOfBatch(address[],uint256[])": "4e1273f4",
    "batchMint(address,uint256[],uint256[],bytes)": "b48ab8b6",
    "contractURI()": "e8a3d485",
    "create(address,uint256,uint256,string,bytes)": "36a100d5",
    "creators(uint256)": "cd53d08e",
    "executeMetaTransaction(address,bytes,bytes32,bytes32,uint8)": "0c53c51c",
    "exists(uint256)": "4f558e79",
    "getChainId()": "3408e470",
    "getDomainSeperator()": "20379ee5",
    "getNonce(address)": "2d0335ab",
    "isApprovedForAll(address,address)": "e985e9c5",
    "mint(address,uint256,uint256,bytes)": "731133e9",
    "name()": "06fdde03",
    "owner()": "8da5cb5b",
    "renounceOwnership()": "715018a6",
    "safeBatchTransferFrom(address,address,uint256[],uint256[],bytes)": "2eb2c2d6",
    "safeTransferFrom(address,address,uint256,uint256,bytes)": "f242432a",
    "setApprovalForAll(address,bool)": "a22cb465",
    "setCreator(address,uint256[])": "d2a6b51a",
    "setCustomURI(uint256,string)": "3adf80b4",
    "setURI(string)": "02fe5305",
    "supportsInterface(bytes4)": "01ffc9a7",
    "symbol()": "95d89b41",
    "tokenSupply(uint256)": "2693ebf2",
    "totalSupply(uint256)": "bd85b039",
    "transferOwnership(address)": "f2fde38b",
    "uri(uint256)": "0e89341c"
  },
  "id": 1
}