{
  "abi": [
    {
      "inputs": [
        {
          "internalType": "string",
          "name": "_name",
          "type": "string"
        },
        {
          "internalType": "string",
          "name": "_symbol",
          "type": "string"
        },
        {
          "internalType": "string",
          "name": "_uri",
          "type": "string"
        },
        {
          "internalType": "address",
          "name": "_proxyRegistryAddress",
          "type": "address"
        }
      ],
      "stateMutability": "nonpayable",
      "type": "constructor"
    },
    {
      "anonymous": false,
      "inputs": [
        {
          "indexed": true,
          "internalType": "address",
          "name": "account",
          "type": "address"
        },
        {
          "indexed": true,
          "internalType": "address",
          "name": "operator",
          "type": "address"
        },
        {
          "indexed": false,
          "internalType": "bool",
          "name": "approved",
          "type": "bool"
        }
      ],
      "name": "ApprovalForAll",
      "type": "event"
    },
    {
      "anonymous": false,
      "inputs": [
        {
          "indexed": false,
          "internalType": "address",
          "name": "userAddress",
          "type": "address"
        },
        {
          "indexed": false,
          "internalType": "address payable",
          "name": "relayerAddress",
          "type": "address"
        },
        {
          "indexed": false,
          "internalType": "bytes",
          "name": "functionSignature",
          "type": "bytes"
        }
      ],
      "name": "MetaTransactionExecuted",
      "type": "event"
    },
    {
      "anonymous": false,
      "inputs": [
        {
          "indexed": true,
          "internalType": "address",
          "name": "previousOwner",
          "type": "address"
        },
        {
          "indexed": true,
          "internalType": "address",
          "name": "newOwner",
          "type": "address"
        }
      ],
      "name": "OwnershipTransferred",
      "type": "event"
    },
    {
      "anonymous": false,
      "inputs": [
        {
          "indexed": true,
          "internalType": "address",
          "name": "operator",
          "type": "address"
        },
        {
          "indexed": true,
          "internalType": "address",
          "name": "from",
          "type": "address"
        },
        {
          "indexed": true,
          "internalType": "address",
          "name": "to",
          "type": "address"
        },
        {
          "indexed": false,
          "internalType": "uint256[]",
          "name": "ids",
          "type": "uint256[]"
        },
        {
          "indexed": false,
          "internalType": "uint256[]",
          "name": "values",
          "type": "uint256[]"
        }
      ],
      "name": "TransferBatch",
      "type": "event"
    },
    {
      "anonymous": false,
      "inputs": [
        {
          "indexed": true,
          "internalType": "address",
          "name": "operator",
          "type": "address"
        },
        {
          "indexed": true,
          "internalType": "address",
          "name": "from",
          "type": "address"
        },
        {
          "indexed": true,
          "internalType": "address",
          "name": "to",
          "type": "address"
        },
        {
          "indexed": false,
          "internalType": "uint256",
          "name": "id",
          "type": "uint256"
        },
        {
          "indexed": false,
          "internalType": "uint256",
          "name": "value",
          "type": "uint256"
        }
      ],
      "name": "TransferSingle",
      "type": "event"
    },
    {
      "anonymous": false,
      "inputs": [
        {
          "indexed": false,
          "internalType": "string",
          "name": "value",
          "type": "string"
        },
        {
          "indexed": true,
          "internalType": "uint256",
          "name": "id",
          "type": "uint256"
        }
      ],
      "name": "URI",
      "type": "event"
    },
    {
      "inputs": [],
      "name": "ERC712_VERSION",
      "outputs": [
        {
          "internalType": "string",
          "name": "",
          "type": "string"
        }
      ],
      "stateMutability": "view",
      "type": "function"
    },
    {
      "inputs": [
        {
          "internalType": "address",
          "name": "account",
          "type": "address"
        },
        {
          "internalType": "uint256",
          "name": "id",
          "type": "uint256"
        }
      ],
      "name": "balanceOf",
      "outputs": [
        {
          "internalType": "uint256",
          "name": "",
          "type": "uint256"
        }
      ],
      "stateMutability": "view",
      "type": "function"
    },
    {
      "inputs": [
        {
          "internalType": "address[]",
          "name": "accounts",
          "type": "address[]"
        },
        {
          "internalType": "uint256[]",
          "name": "ids",
          "type": "uint256[]"
        }
      ],
      "name": "balanceOfBatch",
      "outputs": [
        {
          "internalType": "uint256[]",
          "name": "",
          "type": "uint256[]"
        }
      ],
      "stateMutability": "view",
      "type": "function"
    },
    {
      "inputs": [
        {
          "internalType": "address",
          "name": "_to",
          "type": "address"
        },
        {
          "internalType": "uint256[]",
          "name": "_ids",
          "type": "uint256[]"
        },
        {
          "internalType": "uint256[]",
          "name": "_quantities",
          "type": "uint256[]"
        },
        {
          "internalType": "bytes",
          "name": "_data",
          "type": "bytes"
        }
      ],
      "name": "batchMint",
      "outputs": [],
      "stateMutability": "nonpayable",
      "type": "function"
    },
    {
      "inputs": [
        {
          "internalType": "address",
          "name": "_initialOwner",
          "type": "address"
        },
        {
          "internalType": "uint256",
          "name": "_id",
          "type": "uint256"
        },
        {
          "internalType": "uint256",
          "name": "_initialSupply",
          "type": "uint256"
        },
        {
          "internalType": "string",
          "name": "_uri",
          "type": "string"
        },
        {
          "internalType": "bytes",
          "name": "_data",
          "type": "bytes"
        }
      ],
      "name": "create",
      "outputs": [
        {
          "internalType": "uint256",
          "name": "",
          "type": "uint256"
        }
      ],
      "stateMutability": "nonpayable",
      "type": "function"
    },
    {
      "inputs": [
        {
          "internalType": "uint256",
          "name": "",
          "type": "uint256"
        }
      ],
      "name": "creators",
      "outputs": [
        {
          "internalType": "address",
          "name": "",
          "type": "address"
        }
      ],
      "stateMutability": "view",
      "type": "function"
    },
    {
      "inputs": [
        {
          "internalType": "address",
          "name": "userAddress",
          "type": "address"
        },
        {
          "internalType": "bytes",
          "name": "functionSignature",
          "type": "bytes"
        },
        {
          "internalType": "bytes32",
          "name": "sigR",
          "type": "bytes32"
        },
        {
          "internalType": "bytes32",
          "name": "sigS",
          "type": "bytes32"
        },
        {
          "internalType": "uint8",
          "name": "sigV",
          "type": "uint8"
        }
      ],
      "name": "executeMetaTransaction",
      "outputs": [
        {
          "internalType": "bytes",
          "name": "",
          "type": "bytes"
        }
      ],
      "stateMutability": "payable",
      "type": "function"
    },
    {
      "inputs": [
        {
          "internalType": "uint256",
          "name": "_id",
          "type": "uint256"
        }
      ],
      "name": "exists",
      "outputs": [
        {
          "internalType": "bool",
          "name": "",
          "type": "bool"
        }
      ],
      "stateMutability": "view",
      "type": "function"
    },
    {
      "inputs": [],
      "name": "getChainId",
      "outputs": [
        {
          "internalType": "uint256",
          "name": "",
          "type": "uint256"
        }
      ],
      "stateMutability": "view",
      "type": "function"
    },
    {
      "inputs": [],
      "name": "getDomainSeperator",
      "outputs": [
        {
          "internalType": "bytes32",
          "name": "",
          "type": "bytes32"
        }
      ],
      "stateMutability": "view",
      "type": "function"
    },
    {
      "inputs": [
        {
          "internalType": "address",
          "name": "user",
          "type": "address"
        }
      ],
      "name": "getNonce",
      "outputs": [
        {
          "internalType": "uint256",
          "name": "nonce",
          "type": "uint256"
        }
      ],
      "stateMutability": "view",
      "type": "function"
    },
    {
      "inputs": [
        {
          "internalType": "address",
          "name": "_owner",
          "type": "address"
        },
        {
          "internalType": "address",
          "name": "_operator",
          "type": "address"
        }
      ],
      "name": "isApprovedForAll",
      "outputs": [
        {
          "internalType": "bool",
          "name": "isOperator",
          "type": "bool"
        }
      ],
      "stateMutability": "view",
      "type": "function"
    },
    {
      "inputs": [
        {
          "internalType": "address",
          "name": "_to",
          "type": "address"
        },
        {
          "internalType": "uint256",
          "name": "_id",
          "type": "uint256"
        },
        {
          "internalType": "uint256",
          "name": "_quantity",
          "type": "uint256"
        },
        {
          "internalType": "bytes",
          "name": "_data",
          "type": "bytes"
        }
      ],
      "name": "mint",
      "outputs": [],
      "stateMutability": "nonpayable",
      "type": "function"
    },
    {
      "inputs": [],
      "name": "name",
      "outputs": [
        {
          "internalType": "string",
          "name": "",
          "type": "string"
        }
      ],
      "stateMutability": "view",
      "type": "function"
    },
    {
      "inputs": [],
      "name": "owner",
      "outputs": [
        {
          "internalType": "address",
          "name": "",
          "type": "address"
        }
      ],
      "stateMutability": "view",
      "type": "function"
    },
    {
      "inputs": [],
      "name": "renounceOwnership",
      "outputs": [],
      "stateMutability": "nonpayable",
      "type": "function"
    },
    {
      "inputs": [
        {
          "internalType": "address",
          "name": "from",
          "type": "address"
        },
        {
          "internalType": "address",
          "name": "to",
          "type": "address"
        },
        {
          "internalType": "uint256[]",
          "name": "ids",
          "type": "uint256[]"
        },
        {
          "internalType": "uint256[]",
          "name": "amounts",
          "type": "uint256[]"
        },
        {
          "internalType": "bytes",
          "name": "data",
          "type": "bytes"
        }
      ],
      "name": "safeBatchTransferFrom",
      "outputs": [],
      "stateMutability": "nonpayable",
      "type": "function"
    },
    {
      "inputs": [
        {
          "internalType": "address",
          "name": "from",
          "type": "address"
        },
        {
          "internalType": "address",
          "name": "to",
          "type": "address"
        },
        {
          "internalType": "uint256",
          "name": "id",
          "type": "uint256"
        },
        {
          "internalType": "uint256",
          "name": "amount",
          "type": "uint256"
        },
        {
          "internalType": "bytes",
          "name": "data",
          "type": "bytes"
        }
      ],
      "name": "safeTransferFrom",
      "outputs": [],
      "stateMutability": "nonpayable",
      "type": "function"
    },
    {
      "inputs": [
        {
          "internalType": "address",
          "name": "operator",
          "type": "address"
        },
        {
          "internalType": "bool",
          "name": "approved",
          "type": "bool"
        }
      ],
      "name": "setApprovalForAll",
      "outputs": [],
      "stateMutability": "nonpayable",
      "type": "function"
    },
    {
      "inputs": [
        {
          "internalType": "address",
          "name": "_to",
          "type": "address"
        },
        {
          "internalType": "uint256[]",
          "name": "_ids",
          "type": "uint256[]"
        }
      ],
      "name": "setCreator",
      "outputs": [],
      "stateMutability": "nonpayable",
      "type": "function"
    },
    {
      "inputs": [
        {
          "internalType": "uint256",
          "name": "_tokenId",
          "type": "uint256"
        },
        {
          "internalType": "string",
          "name": "_newURI",
          "type": "string"
        }
      ],
      "name": "setCustomURI",
      "outputs": [],
      "stateMutability": "nonpayable",
      "type": "function"
    },
    {
      "inputs": [
        {
          "internalType": "string",
          "name": "_newURI",
          "type": "string"
        }
      ],
      "name": "setURI",
      "outputs": [],
      "stateMutability": "nonpayable",
      "type": "function"
    },
    {
      "inputs": [
        {
          "internalType": "bytes4",
          "name": "interfaceId",
          "type": "bytes4"
        }
      ],
      "name": "supportsInterface",
      "outputs": [
        {
          "internalType": "bool",
          "name": "",
          "type": "bool"
        }
      ],
      "stateMutability": "view",
      "type": "function"
    },
    {
      "inputs": [],
      "name": "symbol",
      "outputs": [
        {
          "internalType": "string",
          "name": "",
          "type": "string"
        }
      ],
      "stateMutability": "view",
      "type": "function"
    },
    {
      "inputs": [
        {
          "internalType": "uint256",
          "name": "",
          "type": "uint256"
        }
      ],
      "name": "tokenSupply",
      "outputs": [
        {
          "internalType": "uint256",
          "name": "",
          "type": "uint256"
        }
      ],
      "stateMutability": "view",
      "type": "function"
    },
    {
      "inputs": [
        {
          "internalType": "uint256",
          "name": "_id",
          "type": "uint256"
        }
      ],
      "name": "totalSupply",
      "outputs": [
        {
          "internalType": "uint256",
          "name": "",
          "type": "uint256"
        }
      ],
      "stateMutability": "view",
      "type": "function"
    },
    {
      "inputs": [
        {
          "internalType": "address",
          "name": "newOwner",
          "type": "address"
        }
      ],
      "name": "transferOwnership",
      "outputs": [],
      "stateMutability": "nonpayable",
      "type": "function"
    },
    {
      "inputs": [
        {
          "internalType": "uint256",
          "name": "_id",
          "type": "uint256"
        }
      ],
      "name": "uri",
      "outputs": [
        {
          "internalType": "string",
          "name": "",
          "type": "string"
        }
      ],
      "stateMutability": "view",
      "type": "function"
    }
  ],
  "bytecode": {
    "object": "0x60806040526003805460ff191690553480156200001b57600080fd5b5060405162003379380380620033798339810160408190526200003e91620003e0565b816200004a8162000142565b506200005f6200005962000154565b62000165565b600b6200006d858262000522565b50600c6200007c848262000522565b50600780546001600160a01b0319166001600160a01b038316179055600b8054620001389190620000ad9062000493565b80601f0160208091040260200160405190810160405280929190818152602001828054620000db9062000493565b80156200012c5780601f1062000100576101008083540402835291602001916200012c565b820191906000526020600020905b8154815290600101906020018083116200010e57829003601f168201915b5050620001b792505050565b50505050620005ee565b600262000150828262000522565b5050565b6000620001606200021b565b905090565b600680546001600160a01b038381166001600160a01b0319831681179093556040519116919082907f8be0079c531659141344cd1fd0a4f28419497f9722a3daafe3b4186f6b6457e090600090a35050565b60035460ff1615620002005760405162461bcd60e51b815260206004820152600e60248201526d185b1c9958591e481a5b9a5d195960921b604482015260640160405180910390fd5b6200020b8162000279565b506003805460ff19166001179055565b60003033036200027357600080368080601f0160208091040260200160405190810160405280939291908181526020018383808284376000920191909152505050503601516001600160a01b03169150620002769050565b50335b90565b6040518060800160405280604f81526020016200332a604f9139805160209182012082519282019290922060408051808201825260018152603160f81b90840152805180840194909452838101919091527fc89efdaa54c0f20c7adf612882df0950f5a951637e0307cdcb4c672f298b8bc660608401523060808401524660a0808501919091528151808503909101815260c090930190528151910120600455565b634e487b7160e01b600052604160045260246000fd5b600082601f8301126200034357600080fd5b81516001600160401b03808211156200036057620003606200031b565b604051601f8301601f19908116603f011681019082821181831017156200038b576200038b6200031b565b81604052838152602092508683858801011115620003a857600080fd5b600091505b83821015620003cc5785820183015181830184015290820190620003ad565b600093810190920192909252949350505050565b60008060008060808587031215620003f757600080fd5b84516001600160401b03808211156200040f57600080fd5b6200041d8883890162000331565b955060208701519150808211156200043457600080fd5b620004428883890162000331565b945060408701519150808211156200045957600080fd5b50620004688782880162000331565b606087015190935090506001600160a01b03811681146200048857600080fd5b939692955090935050565b600181811c90821680620004a857607f821691505b602082108103620004c957634e487b7160e01b600052602260045260246000fd5b50919050565b601f8211156200051d57600081815260208120601f850160051c81016020861015620004f85750805b601f850160051c820191505b81811015620005195782815560010162000504565b5050505b505050565b81516001600160401b038111156200053e576200053e6200031b565b62000556816200054f845462000493565b84620004cf565b602080601f8311600181146200058e5760008415620005755750858301515b600019600386901b1c1916600185901b17855562000519565b600085815260208120601f198616915b82811015620005bf578886015182559484019460019091019084016200059e565b5085821015620005de5787850151600019600388901b60f8161c191681555b5050505050600190811b01905550565b612d2c80620005fe6000396000f3fe6080604052600436106101b65760003560e01c80634e1273f4116100ec578063b48ab8b61161008a578063d2a6b51a11610064578063d2a6b51a14610519578063e985e9c514610539578063f242432a14610559578063f2fde38b1461057957600080fd5b8063b48ab8b614610496578063bd85b039146104b6578063cd53d08e146104e357600080fd5b8063731133e9116100c6578063731133e91461040f5780638da5cb5b1461042f57806395d89b4114610461578063a22cb4651461047657600080fd5b80634e1273f4146103ad5780634f558e79146103da578063715018a6146103fa57600080fd5b806320379ee5116101595780632eb2c2d6116101335780632eb2c2d61461033a5780633408e4701461035a57806336a100d51461036d5780633adf80b41461038d57600080fd5b806320379ee5146102c25780632693ebf2146102d75780632d0335ab1461030457600080fd5b806306fdde031161019557806306fdde03146102405780630c53c51c146102625780630e89341c146102755780630f7e59701461029557600080fd5b8062fdd58e146101bb57806301ffc9a7146101ee57806302fe53051461021e575b600080fd5b3480156101c757600080fd5b506101db6101d6366004611fc3565b610599565b6040519081526020015b60405180910390f35b3480156101fa57600080fd5b5061020e610209366004612005565b610633565b60405190151581526020016101e5565b34801561022a57600080fd5b5061023e6102393660046120d7565b610683565b005b34801561024c57600080fd5b506102556106d8565b6040516101e5919061215b565b61025561027036600461216e565b610766565b34801561028157600080fd5b506102556102903660046121eb565b610950565b3480156102a157600080fd5b50610255604051806040016040528060018152602001603160f81b81525081565b3480156102ce57600080fd5b506004546101db565b3480156102e357600080fd5b506101db6102f23660046121eb565b60096020526000908152604090205481565b34801561031057600080fd5b506101db61031f366004612204565b6001600160a01b031660009081526005602052604090205490565b34801561034657600080fd5b5061023e6103553660046122b5565b610b1e565b34801561036657600080fd5b50466101db565b34801561037957600080fd5b506101db610388366004612362565b610bc7565b34801561039957600080fd5b5061023e6103a83660046123bb565b610d27565b3480156103b957600080fd5b506103cd6103c8366004612401565b610dbf565b6040516101e591906124fe565b3480156103e657600080fd5b5061020e6103f53660046121eb565b610ee8565b34801561040657600080fd5b5061023e610f07565b34801561041b57600080fd5b5061023e61042a366004612511565b610f5c565b34801561043b57600080fd5b506006546001600160a01b03165b6040516001600160a01b0390911681526020016101e5565b34801561046d57600080fd5b50610255610fdc565b34801561048257600080fd5b5061023e610491366004612573565b610fe9565b3480156104a257600080fd5b5061023e6104b13660046125b1565b610fff565b3480156104c257600080fd5b506101db6104d13660046121eb565b60009081526009602052604090205490565b3480156104ef57600080fd5b506104496104fe3660046121eb565b6008602052600090815260409020546001600160a01b031681565b34801561052557600080fd5b5061023e61053436600461263f565b61112f565b34801561054557600080fd5b5061020e610554366004612684565b6111e6565b34801561056557600080fd5b5061023e6105743660046126b2565b6112a6565b34801561058557600080fd5b5061023e610594366004612204565b61133f565b60006001600160a01b03831661060a5760405162461bcd60e51b815260206004820152602b60248201527f455243313135353a2062616c616e636520717565727920666f7220746865207a60448201526a65726f206164647265737360a81b60648201526084015b60405180910390fd5b506000818152602081815260408083206001600160a01b03861684529091529020545b92915050565b60006001600160e01b03198216636cdb3d1360e11b148061066457506001600160e01b031982166303a24d0760e21b145b8061062d57506301ffc9a760e01b6001600160e01b031983161461062d565b61068b6113f6565b6001600160a01b03166106a66006546001600160a01b031690565b6001600160a01b0316146106cc5760405162461bcd60e51b81526004016106019061271a565b6106d581611405565b50565b600b80546106e59061274f565b80601f01602080910402602001604051908101604052809291908181526020018280546107119061274f565b801561075e5780601f106107335761010080835404028352916020019161075e565b820191906000526020600020905b81548152906001019060200180831161074157829003601f168201915b505050505081565b60408051606081810183526001600160a01b038816600081815260056020908152908590205484528301529181018690526107a48782878787611411565b6107fa5760405162461bcd60e51b815260206004820152602160248201527f5369676e657220616e64207369676e617475726520646f206e6f74206d6174636044820152600d60fb1b6064820152608401610601565b6001600160a01b03871660009081526005602052604090205461081e906001611501565b6001600160a01b0388166000908152600560205260409081902091909155517f5845892132946850460bff5a0083f71031bc5bf9aadcd40f1de79423eac9b10b9061086e90899033908a90612783565b60405180910390a1600080306001600160a01b0316888a6040516020016108969291906127b8565b60408051601f19818403018152908290526108b0916127ef565b6000604051808303816000865af19150503d80600081146108ed576040519150601f19603f3d011682016040523d82523d6000602084013e6108f2565b606091505b5091509150816109445760405162461bcd60e51b815260206004820152601c60248201527f46756e6374696f6e2063616c6c206e6f74207375636365737366756c000000006044820152606401610601565b98975050505050505050565b6000818152600860205260409020546060906001600160a01b03166109c65760405162461bcd60e51b815260206004820152602660248201527f455243313135355472616461626c65237572693a204e4f4e4558495354454e546044820152652faa27a5a2a760d11b6064820152608401610601565b6000828152600a6020526040812080546109df9061274f565b80601f0160208091040260200160405190810160405280929190818152602001828054610a0b9061274f565b8015610a585780601f10610a2d57610100808354040283529160200191610a58565b820191906000526020600020905b815481529060010190602001808311610a3b57829003601f168201915b50505050509050600081511115610b08576000838152600a602052604090208054610a829061274f565b80601f0160208091040260200160405190810160405280929190818152602001828054610aae9061274f565b8015610afb5780601f10610ad057610100808354040283529160200191610afb565b820191906000526020600020905b815481529060010190602001808311610ade57829003601f168201915b5050505050915050919050565b610b118361150d565b9392505050565b50919050565b610b266113f6565b6001600160a01b0316856001600160a01b03161480610b4c5750610b4c856105546113f6565b610bb35760405162461bcd60e51b815260206004820152603260248201527f455243313135353a207472616e736665722063616c6c6572206973206e6f74206044820152711bdddb995c881b9bdc88185c1c1c9bdd995960721b6064820152608401610601565b610bc085858585856115a1565b5050505050565b6000610bd16113f6565b6001600160a01b0316610bec6006546001600160a01b031690565b6001600160a01b031614610c125760405162461bcd60e51b81526004016106019061271a565b6000858152600860205260409020546001600160a01b031615610c775760405162461bcd60e51b815260206004820152601860248201527f746f6b656e205f696420616c72656164792065786973747300000000000000006044820152606401610601565b610c7f6113f6565b600086815260086020526040902080546001600160a01b0319166001600160a01b0392909216919091179055825115610d04576000858152600a60205260409020610cca8482612851565b50847f6bb7ff708619ba0610cba295a58592e0451dee2622938c8755667688daf3529b84604051610cfb919061215b565b60405180910390a25b610d1086868685611748565b505050600082815260096020526040902055919050565b81610d306113f6565b6000828152600860205260409020546001600160a01b03908116911614610d695760405162461bcd60e51b815260040161060190612910565b6000838152600a60205260409020610d818382612851565b50827f6bb7ff708619ba0610cba295a58592e0451dee2622938c8755667688daf3529b83604051610db2919061215b565b60405180910390a2505050565b60608151835114610e245760405162461bcd60e51b815260206004820152602960248201527f455243313135353a206163636f756e747320616e6420696473206c656e677468604482015268040dad2e6dac2e8c6d60bb1b6064820152608401610601565b600083516001600160401b03811115610e3f57610e3f612022565b604051908082528060200260200182016040528015610e68578160200160208202803683370190505b50905060005b8451811015610ee057610eb3858281518110610e8c57610e8c612961565b6020026020010151858381518110610ea657610ea6612961565b6020026020010151610599565b828281518110610ec557610ec5612961565b6020908102919091010152610ed98161298d565b9050610e6e565b509392505050565b6000818152600860205260408120546001600160a01b0316151561062d565b610f0f6113f6565b6001600160a01b0316610f2a6006546001600160a01b031690565b6001600160a01b031614610f505760405162461bcd60e51b81526004016106019061271a565b610f5a6000611823565b565b82610f656113f6565b6000828152600860205260409020546001600160a01b03908116911614610f9e5760405162461bcd60e51b815260040161060190612910565b610faa85858585611748565b600084815260096020526040902054610fc39084611501565b6000948552600960205260409094209390935550505050565b600c80546106e59061274f565b610ffb610ff46113f6565b8383611875565b5050565b60005b835181101561111c57600084828151811061101f5761101f612961565b602002602001015190506110316113f6565b6000828152600860205260409020546001600160a01b039081169116146110b25760405162461bcd60e51b815260206004820152602f60248201527f455243313135355472616461626c652362617463684d696e743a204f4e4c595f60448201526e10d491505513d497d0531313d5d151608a1b6064820152608401610601565b60008483815181106110c6576110c6612961565b602002602001015190506110f681600960008581526020019081526020016000205461150190919063ffffffff16565b6000928352600960205260409092209190915550806111148161298d565b915050611002565b5061112984848484611955565b50505050565b6001600160a01b03821661119a5760405162461bcd60e51b815260206004820152602c60248201527f455243313135355472616461626c652373657443726561746f723a20494e564160448201526b2624a22fa0a2222922a9a99760a11b6064820152608401610601565b60005b81518110156111e15760008282815181106111ba576111ba612961565b602002602001015190506111ce8482611aab565b50806111d98161298d565b91505061119d565b505050565b60075460405163c455279160e01b81526001600160a01b03848116600483015260009281169190841690829063c455279190602401602060405180830381865afa158015611238573d6000803e3d6000fd5b505050506040513d601f19601f8201168201806040525081019061125c91906129a6565b6001600160a01b03160361127457600191505061062d565b6001600160a01b0380851660009081526001602090815260408083209387168352929052205460ff165b949350505050565b6112ae6113f6565b6001600160a01b0316856001600160a01b031614806112d457506112d4856105546113f6565b6113325760405162461bcd60e51b815260206004820152602960248201527f455243313135353a2063616c6c6572206973206e6f74206f776e6572206e6f7260448201526808185c1c1c9bdd995960ba1b6064820152608401610601565b610bc08585858585611b1c565b6113476113f6565b6001600160a01b03166113626006546001600160a01b031690565b6001600160a01b0316146113885760405162461bcd60e51b81526004016106019061271a565b6001600160a01b0381166113ed5760405162461bcd60e51b815260206004820152602660248201527f4f776e61626c653a206e6577206f776e657220697320746865207a65726f206160448201526564647265737360d01b6064820152608401610601565b6106d581611823565b6000611400611c44565b905090565b6002610ffb8282612851565b60006001600160a01b0386166114775760405162461bcd60e51b815260206004820152602560248201527f4e61746976654d6574615472616e73616374696f6e3a20494e56414c49445f5360448201526424a3a722a960d91b6064820152608401610601565b600161148a61148587611ca0565b611d1d565b6040805160008152602081018083529290925260ff851690820152606081018690526080810185905260a0016020604051602081039080840390855afa1580156114d8573d6000803e3d6000fd5b505050602060405103516001600160a01b0316866001600160a01b031614905095945050505050565b6000610b1182846129c3565b60606002805461151c9061274f565b80601f01602080910402602001604051908101604052809291908181526020018280546115489061274f565b80156115955780601f1061156a57610100808354040283529160200191611595565b820191906000526020600020905b81548152906001019060200180831161157857829003601f168201915b50505050509050919050565b81518351146115c25760405162461bcd60e51b8152600401610601906129d6565b6001600160a01b0384166115e85760405162461bcd60e51b815260040161060190612a1e565b60006115f26113f6565b905060005b84518110156116da57600085828151811061161457611614612961565b60200260200101519050600085838151811061163257611632612961565b602090810291909101810151600084815280835260408082206001600160a01b038e1683529093529190912054909150818110156116825760405162461bcd60e51b815260040161060190612a63565b6000838152602081815260408083206001600160a01b038e8116855292528083208585039055908b168252812080548492906116bf9084906129c3565b92505081905550505050806116d39061298d565b90506115f7565b50846001600160a01b0316866001600160a01b0316826001600160a01b03167f4a39dc06d4c0dbc64b70af90fd698a233a518aa5d07e595d983b8c0526c8f7fb878760405161172a929190612aad565b60405180910390a4611740818787878787611d4d565b505050505050565b6001600160a01b03841661176e5760405162461bcd60e51b815260040161060190612ad2565b60006117786113f6565b90506117938160008761178a88611ea8565b610bc088611ea8565b6000848152602081815260408083206001600160a01b0389168452909152812080548592906117c39084906129c3565b909155505060408051858152602081018590526001600160a01b0380881692600092918516917fc3d58168c5ae7397731d063d5bbf3d657854427343f4c083240f7aacaa2d0f62910160405180910390a4610bc081600087878787611ef3565b600680546001600160a01b038381166001600160a01b0319831681179093556040519116919082907f8be0079c531659141344cd1fd0a4f28419497f9722a3daafe3b4186f6b6457e090600090a35050565b816001600160a01b0316836001600160a01b0316036118e85760405162461bcd60e51b815260206004820152602960248201527f455243313135353a2073657474696e6720617070726f76616c20737461747573604482015268103337b91039b2b63360b91b6064820152608401610601565b6001600160a01b03838116600081815260016020908152604080832094871680845294825291829020805460ff191686151590811790915591519182527f17307eab39ab6107e8899845ad3d59bd9653f200f220920489ca2b5937696c31910160405180910390a3505050565b6001600160a01b03841661197b5760405162461bcd60e51b815260040161060190612ad2565b815183511461199c5760405162461bcd60e51b8152600401610601906129d6565b60006119a66113f6565b905060005b8451811015611a43578381815181106119c6576119c6612961565b60200260200101516000808784815181106119e3576119e3612961565b602002602001015181526020019081526020016000206000886001600160a01b03166001600160a01b031681526020019081526020016000206000828254611a2b91906129c3565b90915550819050611a3b8161298d565b9150506119ab565b50846001600160a01b031660006001600160a01b0316826001600160a01b03167f4a39dc06d4c0dbc64b70af90fd698a233a518aa5d07e595d983b8c0526c8f7fb8787604051611a94929190612aad565b60405180910390a4610bc081600087878787611d4d565b80611ab46113f6565b6000828152600860205260409020546001600160a01b03908116911614611aed5760405162461bcd60e51b815260040161060190612910565b50600090815260086020526040902080546001600160a01b0319166001600160a01b0392909216919091179055565b6001600160a01b038416611b425760405162461bcd60e51b815260040161060190612a1e565b6000611b4c6113f6565b9050611b5d81878761178a88611ea8565b6000848152602081815260408083206001600160a01b038a16845290915290205483811015611b9e5760405162461bcd60e51b815260040161060190612a63565b6000858152602081815260408083206001600160a01b038b8116855292528083208785039055908816825281208054869290611bdb9084906129c3565b909155505060408051868152602081018690526001600160a01b03808916928a821692918616917fc3d58168c5ae7397731d063d5bbf3d657854427343f4c083240f7aacaa2d0f62910160405180910390a4611c3b828888888888611ef3565b50505050505050565b6000303303611c9a57600080368080601f0160208091040260200160405190810160405280939291908181526020018383808284376000920191909152505050503601516001600160a01b03169150611c9d9050565b50335b90565b6000604051806080016040528060438152602001612cb46043913980516020918201208351848301516040808701518051908601209051611d00950193845260208401929092526001600160a01b03166040830152606082015260800190565b604051602081830303815290604052805190602001209050919050565b6000611d2860045490565b60405161190160f01b6020820152602281019190915260428101839052606201611d00565b6001600160a01b0384163b156117405760405163bc197c8160e01b81526001600160a01b0385169063bc197c8190611d919089908990889088908890600401612b13565b6020604051808303816000875af1925050508015611dcc575060408051601f3d908101601f19168201909252611dc991810190612b65565b60015b611e7857611dd8612b82565b806308c379a003611e115750611dec612b9d565b80611df75750611e13565b8060405162461bcd60e51b8152600401610601919061215b565b505b60405162461bcd60e51b815260206004820152603460248201527f455243313135353a207472616e7366657220746f206e6f6e20455243313135356044820152732932b1b2b4bb32b91034b6b83632b6b2b73a32b960611b6064820152608401610601565b6001600160e01b0319811663bc197c8160e01b14611c3b5760405162461bcd60e51b815260040161060190612c26565b60408051600180825281830190925260609160009190602080830190803683370190505090508281600081518110611ee257611ee2612961565b602090810291909101015292915050565b6001600160a01b0384163b156117405760405163f23a6e6160e01b81526001600160a01b0385169063f23a6e6190611f379089908990889088908890600401612c6e565b6020604051808303816000875af1925050508015611f72575060408051601f3d908101601f19168201909252611f6f91810190612b65565b60015b611f7e57611dd8612b82565b6001600160e01b0319811663f23a6e6160e01b14611c3b5760405162461bcd60e51b815260040161060190612c26565b6001600160a01b03811681146106d557600080fd5b60008060408385031215611fd657600080fd5b8235611fe181611fae565b946020939093013593505050565b6001600160e01b0319811681146106d557600080fd5b60006020828403121561201757600080fd5b8135610b1181611fef565b634e487b7160e01b600052604160045260246000fd5b601f8201601f191681016001600160401b038111828210171561205d5761205d612022565b6040525050565b600082601f83011261207557600080fd5b81356001600160401b0381111561208e5761208e612022565b6040516120a5601f8301601f191660200182612038565b8181528460208386010111156120ba57600080fd5b816020850160208301376000918101602001919091529392505050565b6000602082840312156120e957600080fd5b81356001600160401b038111156120ff57600080fd5b61129e84828501612064565b60005b8381101561212657818101518382015260200161210e565b50506000910152565b6000815180845261214781602086016020860161210b565b601f01601f19169290920160200192915050565b602081526000610b11602083018461212f565b600080600080600060a0868803121561218657600080fd5b853561219181611fae565b945060208601356001600160401b038111156121ac57600080fd5b6121b888828901612064565b9450506040860135925060608601359150608086013560ff811681146121dd57600080fd5b809150509295509295909350565b6000602082840312156121fd57600080fd5b5035919050565b60006020828403121561221657600080fd5b8135610b1181611fae565b60006001600160401b0382111561223a5761223a612022565b5060051b60200190565b600082601f83011261225557600080fd5b8135602061226282612221565b60405161226f8282612038565b83815260059390931b850182019282810191508684111561228f57600080fd5b8286015b848110156122aa5780358352918301918301612293565b509695505050505050565b600080600080600060a086880312156122cd57600080fd5b85356122d881611fae565b945060208601356122e881611fae565b935060408601356001600160401b038082111561230457600080fd5b61231089838a01612244565b9450606088013591508082111561232657600080fd5b61233289838a01612244565b9350608088013591508082111561234857600080fd5b5061235588828901612064565b9150509295509295909350565b600080600080600060a0868803121561237a57600080fd5b853561238581611fae565b9450602086013593506040860135925060608601356001600160401b03808211156123af57600080fd5b61233289838a01612064565b600080604083850312156123ce57600080fd5b8235915060208301356001600160401b038111156123eb57600080fd5b6123f785828601612064565b9150509250929050565b6000806040838503121561241457600080fd5b82356001600160401b038082111561242b57600080fd5b818501915085601f83011261243f57600080fd5b8135602061244c82612221565b6040516124598282612038565b83815260059390931b850182019282810191508984111561247957600080fd5b948201945b838610156124a057853561249181611fae565b8252948201949082019061247e565b965050860135925050808211156124b657600080fd5b506123f785828601612244565b600081518084526020808501945080840160005b838110156124f3578151875295820195908201906001016124d7565b509495945050505050565b602081526000610b1160208301846124c3565b6000806000806080858703121561252757600080fd5b843561253281611fae565b9350602085013592506040850135915060608501356001600160401b0381111561255b57600080fd5b61256787828801612064565b91505092959194509250565b6000806040838503121561258657600080fd5b823561259181611fae565b9150602083013580151581146125a657600080fd5b809150509250929050565b600080600080608085870312156125c757600080fd5b84356125d281611fae565b935060208501356001600160401b03808211156125ee57600080fd5b6125fa88838901612244565b9450604087013591508082111561261057600080fd5b61261c88838901612244565b9350606087013591508082111561263257600080fd5b5061256787828801612064565b6000806040838503121561265257600080fd5b823561265d81611fae565b915060208301356001600160401b0381111561267857600080fd5b6123f785828601612244565b6000806040838503121561269757600080fd5b82356126a281611fae565b915060208301356125a681611fae565b600080600080600060a086880312156126ca57600080fd5b85356126d581611fae565b945060208601356126e581611fae565b9350604086013592506060860135915060808601356001600160401b0381111561270e57600080fd5b61235588828901612064565b6020808252818101527f4f776e61626c653a2063616c6c6572206973206e6f7420746865206f776e6572604082015260600190565b600181811c9082168061276357607f821691505b602082108103610b1857634e487b7160e01b600052602260045260246000fd5b6001600160a01b038481168252831660208201526060604082018190526000906127af9083018461212f565b95945050505050565b600083516127ca81846020880161210b565b60609390931b6bffffffffffffffffffffffff19169190920190815260140192915050565b6000825161280181846020870161210b565b9190910192915050565b601f8211156111e157600081815260208120601f850160051c810160208610156128325750805b601f850160051c820191505b818110156117405782815560010161283e565b81516001600160401b0381111561286a5761286a612022565b61287e81612878845461274f565b8461280b565b602080601f8311600181146128b3576000841561289b5750858301515b600019600386901b1c1916600185901b178555611740565b600085815260208120601f198616915b828110156128e2578886015182559484019460019091019084016128c3565b50858210156129005787850151600019600388901b60f8161c191681555b5050505050600190811b01905550565b60208082526031908201527f455243313135355472616461626c652363726561746f724f6e6c793a204f4e4c6040820152701657d0d491505513d497d0531313d5d151607a1b606082015260800190565b634e487b7160e01b600052603260045260246000fd5b634e487b7160e01b600052601160045260246000fd5b60006001820161299f5761299f612977565b5060010190565b6000602082840312156129b857600080fd5b8151610b1181611fae565b8082018082111561062d5761062d612977565b60208082526028908201527f455243313135353a2069647320616e6420616d6f756e7473206c656e677468206040820152670dad2e6dac2e8c6d60c31b606082015260800190565b60208082526025908201527f455243313135353a207472616e7366657220746f20746865207a65726f206164604082015264647265737360d81b606082015260800190565b6020808252602a908201527f455243313135353a20696e73756666696369656e742062616c616e636520666f60408201526939103a3930b739b332b960b11b606082015260800190565b604081526000612ac060408301856124c3565b82810360208401526127af81856124c3565b60208082526021908201527f455243313135353a206d696e7420746f20746865207a65726f206164647265736040820152607360f81b606082015260800190565b6001600160a01b0386811682528516602082015260a060408201819052600090612b3f908301866124c3565b8281036060840152612b5181866124c3565b90508281036080840152610944818561212f565b600060208284031215612b7757600080fd5b8151610b1181611fef565b600060033d1115611c9d5760046000803e5060005160e01c90565b600060443d1015612bab5790565b6040516003193d81016004833e81513d6001600160401b038160248401118184111715612bda57505050505090565b8285019150815181811115612bf25750505050505090565b843d8701016020828501011115612c0c5750505050505090565b612c1b60208286010187612038565b509095945050505050565b60208082526028908201527f455243313135353a204552433131353552656365697665722072656a656374656040820152676420746f6b656e7360c01b606082015260800190565b6001600160a01b03868116825285166020820152604081018490526060810183905260a060808201819052600090612ca89083018461212f565b97965050505050505056fe4d6574615472616e73616374696f6e2875696e74323536206e6f6e63652c616464726573732066726f6d2c62797465732066756e6374696f6e5369676e617475726529a26469706673582212206820dfe21ee2a3959c716bdf5ed5781a478efe4e61c06f59dfd0ae7d61ee1cd264736f6c63430008140033454950373132446f6d61696e28737472696e67206e616d652c737472696e672076657273696f6e2c6164647265737320766572696679696e67436f6e74726163742c627974657333322073616c7429",
    "linkReferences": {}
  },
  "methodIdentifiers": {
    "ERC712_VERSION()": "0f7e5970",
    "balanceOf(address,uint256)": "00fdd58e",
    "balanceOfBatch(address[],uint256[])": "4e1273f4",
    "batchMint(address,uint256[],uint256[],bytes)": "b48ab8b6",
    "create(address,uint256,uint256,string,bytes)": "36a100d5",
    "creators(uint256)": "cd53d08e",
    "executeMetaTransaction(address,bytes,bytes32,bytes32,uint8)": "0c53c51c",
    "exists(uint256)": "4f558e79",
    "getChainId()": "3408e470",
    "getDomainSeperator()": "20379ee5",
    "getNonce(address)": "2d0335ab",
    "isApprovedForAll(address,address)": "e985e9c5",
    "mint(address,uint256,uint256,bytes)": "731133e9",
    "name()": "06fdde03",
    "owner()": "8da5cb5b",
    "renounceOwnership()": "715018a6",
    "safeBatchTransferFrom(address,address,uint256[],uint256[],bytes)": "2eb2c2d6",
    "safeTransferFrom(address,address,uint256,uint256,bytes)": "f242432a",
    "setApprovalForAll(address,bool)": "a22cb465",
    "setCreator(address,uint256[])": "d2a6b51a",
    "setCustomURI(uint256,string)": "3adf80b4",
    "setURI(string)": "02fe5305",
    "supportsInterface(bytes4)": "01ffc9a7",
    "symbol()": "95d89b41",
    "tokenSupply(uint256)": "2693ebf2",
    "totalSupply(uint256)": "bd85b039",
    "transferOwnership(address)": "f2fde38b",
    "uri(uint256)": "0e89341c"
  },
  "id": 6
}